:020000040800F2
:10000000000008200D210108E37B0008D57A0008D4
:1000100000000000000000000000000000000000E0
:10002000000000000000000000000000637C0008E9
:1000300000000000000000004D7900087160010818
:100040008B7C0008F37C0008277D00089B7E00085D
:10005000B77F0008378000087F8000084F810008C4
:100060006B8900081F8A0008AF8A00087791000892
:100070002B930008DF9300081B9400086794000886
:10008000AF940008CF940008EF940008779500081B
:1000900033960008AB960008FB96000857980008B6
:1000A00097980008FB9800084F9E00085B9F000887
:1000B000839F00080BA000081FA00008AFA0000845
:1000C000FFA00008B3A100086FA20008FFA200086B
:1000D00043A300089BA30008CFA300083FA4000887
:1000E00017A800087FA80008ABA80008E3A800082C
:1000F0009FAA0008C7AA000817AB00081BAC00089D
:1001000037AC000873AC0008E7AC000857AD000836
:10011000A3AD0008D3AD0008DFAE00084FAF000864
:1001200093AF000827B0000867B000088FB0000840
:1001300073B10008E949010813B2000849B2000888
:100140004BB200084DB200084FB20008957001088C
:1001500051B2000853B2000855B2000857B2000867
:1001600059B200085BB200085DB200085FB2000837
:1001700061B200081171010863B200089DB2000865
:1001800065B2000867B2000869B200086BB20008E7
:100190006DB200086FB2000871B2000873B20008B7
:1001A000A13F010875B200083FD5000877B20008EA
:1001B00079B200087BB200087DB200087FB2000867
:1001C00081B2000883B2000885B2000887B2000837
:1001D00089B200088BB200088DB200088FB2000807
:1001E00091B2000893B2000895B2000897B20008D7
:0801F00099B200089BB200085F
:1001F800034C206804348047FBE70BF04CF8FEE71B
:040208006CF8010885
:10020C0038B5044612F0A2FA014600BF002051B1E5
:10021C000D46A14208BF38BD284613F07FFD016A88
:08022C00A1422846F2D138BDC1
:1002340010B50C46002158B154B100BF13F072FD43
:100244008069A04203D00028F8D1002100E00121F8
:04025400084610BD8B
:1002580045F6E822C2F2010213685BB183420AD074
:10026800D3F800C0BCF1000F04D08445194663469A
:10027800F6D101E070470021006809B108607047B5
:0802880000B90020106070476E
:10029000F0B585B00C46054601A891E8CC00CCC06D
:1002A0000D2001900395284612F096FB80B101AE17
:1002B0002F4600BF38460BF050FD074618B1049496
:1002C00031460BF0CCFA384612F086FB0028F1D10B
:0C02D000284621460BF0C3FA05B0F0BD33
:1002DC0070B582B0E0B10C46054613F009F928461A
:1002EC000DF045F80190C56901A813F021FD00BF80
:1002FC0085B1284612F0E8FAA0420DD028462146D6
:10030C0000F012F850B9284613F008FD056AEFE723
:10031C00002606E0002602E02E4600E006460CF021
:08032C0025FC304602B070BD53
:1003340070B50C46054613F0F5FCC6694EB130465F
:1003440012F0C6FAA04217D0304613F0EBFC066A4E
:10035400F4E7284613F0E6FCC56900BF4DB1284612
:100364002146FFF7E5FF30B9284613F0DBFC056AA8
:0C037400F4E7002600E00646304670BDAD
:1003800001B32DE9F04383B01C4691460F468046E9
:1003900008460CF0F2FF06460090856AA80729D5AA
:1003A00001A8414632460CF001FB18B340F60100AB
:1003B0002840012807D1B169326A01A82346FFF716
:1003C000DFFF05E0704701A93846224612F010FB16
:1003D000F6697EB14E450DD001AF00BF30463946BB
:1003E000224607F053FC304613F09EFC066A0EB11D
:1003F0004E45F3D1684613F0A1FC03B0BDE8F0838D
:10040000D1B32DE9F04184B00E4604460CF0B5FF9F
:10041000054600202862AE61039530460CF0ADFF22
:1004200007460290C66946B3D5F8288030460CF0DE
:10043000A4FF019018F0080803D190F828000007E5
:1004400024D402A813F07AFC01A813F077FC3046FC
:1004500013F06AFC019050F8206FA6B1304613F0FB
:1004600063FCB8F1000FF5D190F828100907F1D519
:10047000019804622E6207E07047FC6103A813F044
:100480005DFC02A80BE0046003A808E0FC612E629A
:1004900003A813F053FC02A813F050FC01A813F0BA
:0804A0004DFC04B0BDE8F08141
:1004A80048B338B504460CF064FF0546009090F850
:1004B800280080071BD5686A50B145F6F021C2F2C2
:1004C80001010968A14203D012F0E4FC002068622F
:1004D80020460BF04DFC50B1044600BF2046FFF704
:1004E800DFFF204613F01CFC046A002CF6D1684696
:0804F80013F020FC38BD704731
:1005000010B5044600680F280BD00E2829D1E068EA
:100510004168012918BF10BD0068BDE810400CF00B
:1005200074BC6168002045F23072C2F2010200BF63
:1005300052F820308B4204D001301028F8D14FF00F
:10054000FF3045F2B071C2F2010151F820004CF6C3
:10055000EF51C0F2AB01884203D00CF0E6FD13F07E
:0C05600071F92046BDE8104012F0F2BB1B
:10056C0038B545F68031C2F201010020087045F61D
:10057C007231C2F2010145F2F062087045F6E821D1
:10058C00C2F20101C2F20102086045F27071C2F2BE
:10059C000101002341F8230042F823000133102B02
:1005AC00F8D145F6F420C2F201000025056045F6AD
:1005BC00F820C2F2010048F60464056045F60C30E0
:1005CC00C2F20100C2F20104056045F61030C2F21D
:1005DC0001000021056045F6CC20C2F20100182272
:1005EC000560236840F29000C2F20000984745F67F
:1005FC00EC20C2F201000021056045F23070C2F21D
:10060C00010000BF40F8215001311029FAD12368B4
:10061C0044F67470C2F201000021802298472368CE
:10062C0044F6F470C2F2010000218022984723683E
:10063C0044F6F460C2F201000021802201B0BDE852
:04064C0030401847DB
:100650002DE9F04184B000284FD014460D460646DF
:100660000DF10C086F4600BF30460CF086FE0146C7
:100670000390866AB00739D524B1384622460CF07B
:1006800095F902E003C9C7E900012846394613F08D
:1006900063F958B3F007039814D1B0F9020024B1FC
:1006A000B4F902108842D8BF0846B5F90210884252
:1006B00015DDB5F90610BDF90200884216DC0138D7
:1006C000E88013E0C66900BF86B1304629463A4645
:1006D000FFF7BEFF304613F027FB066AF4E7B5F9D3
:1006E0000610BDF906008842B8BFE8800398066A84
:1006F000404613F023FB002EB6D104B0BDE8F081D4
:100700002DE9F04383B000283FD091460D460446C2
:1007100000270DF108086E4620460CF02EFE01461B
:100720000290846AA00717D5B9F1000F04D03046B3
:100730004A460CF03BF902E003C9C6E9000128462D
:10074000314613F009F938B1E0070DD1BDF80400C6
:1007500001302880012700BF0298046A404613F048
:10076000EDFA002CD8D111E00298C469002CF3D026
:10077000204629463246FFF7C3FF002818BF01274D
:10078000204613F0D1FA046AF0E70027384603B098
:04079000BDE8F0834D
:100794002DE9F04F9BB00D92002800F07C83884631
:1007A40005460CF0E8FD1690446916A813F0C4FA47
:1007B40028460BF09EFD092848F6FC5AC2F2010AAD
:1007C400CDF84C80C0F29180002C40F08E8083469E
:1007D40028460CF0D0FD04461A90B0F90800159094
:1007E400B4F90A80E068119054F8180B07691AA844
:1007F40013F0A2FADAF8000045F2F071C2F2010136
:10080400407C51F82010D1F810A0D7F80490DAF801
:10081400006012F0CDFC0421112838BF0221092800
:1008240038BF0121CDF850A01297574500F0CC8075
:10083400BBF1100FDDF84CA000F0D780BBF1200F06
:1008440040F029830F46159848430CF085FD002895
:1008540000F0218312900CF08EFD189028460CF0C5
:100864008AFD1A9000F1180B14980069002800F012
:100874005A834FEAC7090125042F0BD0022F11D048
:10088400012F1BD1DDE91406189904695846324634
:1008940001230EE0DDE9140618990469584632462E
:1008A400042306E0DDE91406189904695846324623
:1008B4000223A0470BEB860B01E000BF159E18989E
:1008C400CDE90055CDF808900021CDE9031005913C
:1008D40050460D9C21463246012300F0F7FD0134B9
:1008E400B8F101080D94C7D15EE328460CF043FD2E
:1008F40006461990C0681190D6E90449B6F908B0C3
:10090400B6F90A00089056F8180B0169DAF80000E5
:100914000A9149680B91407C12F04AFCDAF8001005
:100924000F90487C0BF0C1FE804619A813F004FA1E
:100934000420112C38BF02201294092C38BF012046
:100944000C90284612F04EFADAF800104A7C01EBBB
:100954008201896D05460F69806880470BF0C8FEE7
:1009640008282DDCCDE914894FF0010909FA00F4B7
:10097400A0000CF0F1FC002800F0B980B246012C74
:10098400C8BFA146064613F0CDF98046002400BF37
:100994006968204688473968884748F82400013444
:1009A400A145F5D13446304613F0BCF905461299F9
:1009B400564648F6FC5AC2F2010ADDE914899BE066
:1009C40000240025129997E000200121CDE90011AF
:1009D400CDF808B01199CDE90314059013980D9939
:1009E400159A434600F072FD55E215980F464843A8
:1009F4000CF0B2FC002800F04E8211900CF0BBFC0D
:100A0400189028460CF0B7FC1A90149900F1180BB2
:100A14000969002900F0428212994969002900F00D
:100A24003D82B0F9080080000CF096FC0028159D6A
:100A340000F0C28204460CF09EFC1990002800F0DD
:100A4400BD8282461094FE004FF00109042F12D09B
:100A5400022F1FD0012F2FD11298189C4569159A87
:100A6400584651460223A847DDE914022146056988
:100A7400504601231CE01298189C4569159A584663
:100A840051460223A847DDE9140221460569504670
:100A940004230DE01298189C4569159A584651464E
:100AA4000223A847DDE914022146056950460223C2
:100AB400A847159D0BEB450B1898CDE900990296B4
:100AC4000021CDE90310059113980D9C21462A4677
:100AD400012300F0FBFC0134B8F101080D94B5D1F9
:100AE40019A813F029F9109813F06CF966E20024A0
:100AF40000251299DDF854900B98CDF824B04045A8
:100B0400149500F0EF80DAF80000407C0BF0D6FD7D
:100B14000E904FEA8B000CF01FFC1090002800F0A0
:100B2400B781B9F1000F00F09281159607944846F9
:100B34000CF021FC0746189008980128C0F2CD80DB
:100B44004FF0000A0126D146CDF85CA0B86817A979
:100B5400436938464A469847584513D110980CF0D3
:100B64000AFC01461A90129B092B3DD30B98009066
:100B74000E98019015980F9C5A46234600F026FAC9
:100B84003CE000BF0546129801284FD1002DDDF846
:100B94004CB0DDF8548000F095800D9809EB00040A
:100BA400179800F00701C21700EB527208EBE2023B
:100BB400CDE900660296119BCDE90332149ACDE982
:100BC4000521584421462A46012300F097FB179833
:100BD40028441790B86817A9436938464A46984785
:100BE40005460028DCD16DE00F9C0A98CDE9004051
:100BF4000E98029015985A4607F01CFA1A98CDE9F7
:100C0400006602940021CDE903108A4605910D98EF
:100C140009EB000113985A46012300F057FC1AA867
:100C240013F08AF8DDF854804CE000BF002DDDF8A5
:100C3400548047D00D9809EB000400BF10980CF0C5
:100C44009AFB01461A9017980C9A129B00FB02809B
:100C5400092B09D30B9A0092DDE90E2B01922A4647
:100C64005B4600F0B3F909E0DDF83CB00A9ACDE93F
:100C740000B20E9A02922A4607F0DCF917981A99E4
:100C8400CDE90066CDF808B00022CDE903219246F3
:100C940005921399084421462A46012300F016FCC4
:100CA4001AA813F049F8179828441790B86817A998
:100CB400436938464A46984705460028DDF854807B
:100CC400BCD100BF11988044CDF8548009F10109CA
:100CD400DDE9080B81457FF437AF18A813F02CF831
:100CE400079CC3E0B9F1000F00F0C48007944846A4
:100CF4000CF041FB0446189008980128C0F2A28029
:100D04000DF15C09002700BF00201790A068494638
:100D1400436920463A46984780460998804523D13E
:100D24004FF000080025DDF844B082467819A16828
:100D3400421C4B69204649469847D84401355045E2
:100D4400F4D00120CDE900001298CDE9020B1498EB
:100D5400CDE904600D983918139852462B4600F0DB
:100D6400B5FB7819471E67E03146129E012E31D13A
:100D7400B8F1000F5CD00D9838441090119D159176
:100D84004FF0010BDDE9136A1798159B00F007017A
:100D9400C21700EB527203EBE202CDE900BBCDE9CE
:100DA40002B5CDE9042A0691304410994246012344
:100DB40000F0A4FA179840441790A0684946436984
:100DC40020463A46984780460028DDD1A846159E1D
:100DD40032E000BFB8F1000F2AD0DDE90CA0119D6C
:100DE40038441590DDF84CB0894600BF179800FBD5
:100DF4000A910122CDE90022CDE9026504911499FA
:100E04000591584415994246012300F05FFB179859
:100E140040441790A06817A9436920463A4698476A
:100E240080460028E2D1A8464E460DF15C0903E055
:100E3400DDF844800E4600BF4644013708988742D7
:100E4400FFF662AF18A812F077FF079C20E001209C
:100E5400CDE90000129802901198CDE9030605959A
:100E640013980D99089B5A4600F030FB109812F025
:100E7400A9FF0DE00120CDE9000002911198CDE910
:100E84000306059513980D99089B5A4600F01EFB1E
:100E9400204612F097FF1BB0BDE8F08FF8001490C5
:100EA400DDF854A0042F0FD0022F19D0012F22D126
:100EB400189C00BF3BF8020BC847B04704F8010B6D
:100EC400BAF1010AF6D116E0189C00BF3BF8020BF8
:100ED400C847B04744F8040BBAF1010AF6D10AE056
:100EE400189C00BF3BF8020BC847B04724F8020B1C
:100EF400BAF1010AF6D118980121CDE90011DDE912
:100F0400141A02910021CDE90310059113980D9C48
:100F140021465246012300F0D9FA0134B8F1010800
:100F24000D94BFD14AE0F80014904FF0010900BFBE
:100F3400042F10D0022F19D0012F20D1189CDDF8D6
:100F440054A000BF5BF8040BB04704F8010BBAF1DE
:100F5400010AF7D113E0189C159D00BF5BF8040B40
:100F6400B04744F8040B013DF8D108E0189C159DE6
:100F74005BF8040BB04724F8020B013DF8D1189834
:100F8400CDE90099DDE9141202910021CDE90310A5
:100F9400059113980D9C2146012300F097FA013422
:100FA400B8F101080D94C3D11AA812F0C5FE18A80F
:100FB40012F0C2FE12986CE7002019901AA812F0E1
:0C0FC400BBFE18A812F0B8FE119862E7FE
:100FD0002DE9F0471F4691468A4680460024DDE908
:100FE000086500BF38F81400B047A8474AF8240045
:100FF0000134A145F6D11F2F88BFBDE8F0875046C8
:0C10000049463A46BDE8F04700F078BBD6
:10100C002DE9F8439846154689460746089C00BFCB
:10101C00B8684946466838462A464346B0470135C3
:08102C00013CF5D1BDE8F88399
:101034002DE9F04F83B01C46914648F6FC55C2F2A8
:101044000105884629688246D1F898000CF093F986
:1010540083460290406918B10CF08DF9064600E011
:1010640000260196404649460BF099F82968074640
:10107400087CC00718D1086CDBF80CA005687EB3A7
:101084004C45D8BF4C460134B068414603683046ED
:101094004A4698473D80574409F101094C45F3D12C
:1010A40002A812F049FE25E04C45D8BF4C46DAF8B8
:1010B4001000013480688047054600BF2EB1B06837
:1010C4004146036830464A46984738886840388025
:1010D400DBF80C00074409F101094C45EED105E0A9
:1010E400E04348443D8057440130FBD302A812F04A
:1010F40023FE16B101A812F01FFE03B0BDE8F08F65
:10110400002854D02DE9F04784B015460E46044615
:1011140012F0F2F9002012F049FC48F6FC51C2F238
:10112400010109688046D1F8989020460CF023F913
:1011340007460390006880690BF039FE82464FF23F
:101144000100CFF6FF70864204BFB7F90460B7F917
:101154000650ADF80460388930440138ADF8080011
:10116400ADF80650788928440138ADF80A000AF031
:1011740026FF03A812F0E0FD01A811F05FFD00BFF7
:1011840038B1204631462A46FFF702FB06F0CAFD75
:10119400F6E750460BF00BFE48460BF0C5F8404608
:1011A40012F004FC0BF0E6FC04B0BDE8F0877047D5
:1011B400013928292FD8024642F61170C0F60100E1
:1011C400DFE801F0151A1F24292B29292A30353A82
:1011D400293F44292929494E535829295D29292978
:1011E40029292961656A6F2973292929770041F220
:1011F400C120C0F6000070474CF26940C0F6000000
:10120400704742F64970C0F6010070474CF24F40F7
:10121400C0F600007047002070474CF28740C0F6CB
:101224000000704742F63170C0F6010070474CF27E
:101234002140C0F60000704743F23D00C0F60100B3
:1012440070474CF2A540C0F6000070474CF2AF4026
:10125400C0F6000070474CF2B940C0F60000704779
:101264004CF2C740C0F60000704743F25500C0F688
:101274000100704749F21D40C0F600007047106835
:101284008068406B704710688068C06B70474CF290
:10129400D540C0F60000704743F26500C0F6010077
:1012A400704710688068406C704710688068006CF4
:0C12B40070474CF20B40C0F60000704781
:1012C00070B58068DDF810C00568046A04FB021080
:1012D00005EB40009445D8BF9446DB4303EB010E79
:1012E000630005997446054635F8026B21F8026BD8
:1012F0000134F9D31844624502F10102F2D170BD04
:101300002DE9F04F95B0924645F63432C2F2010213
:10131000DDF88CC012680DF1800E9EE84042DDE9D8
:101320001E4B6AB11568CDF88CC020AA82E84042F5
:10133000CDE91E4B5246AC4615B0BDE8F04F6047B4
:101340004BEA0402012ACDF82CA0119612D1804656
:1013500048F6FC50C2F201000068249CB0F90A2053
:10136000561A012E77DB9F1B012FC0F2AE8006FBC1
:1013700009EE72E014940A90012BC0F2A68048F6A0
:10138000FC50C2F20100C6F108080468CDF840C064
:1013900000220025CDF82490CDE907B30F4659442B
:1013A000B4F90A00814251DDB4F90E0087424DDCE8
:1013B000BAF1010F4ADBCDE90C51481ECDE9120705
:1013C0004FF0000B5546CDE90EEE0A98149F00BF72
:1013D000BBF1000F02D0ABEB060B04E00F99C34644
:1013E00011F8012B0F915FFA82FA3AFA08F202D152
:1013F000237C9B071FD4BCF1000F18BF5CF8222090
:10140000216CC619D1F800900A60721EDDE9123114
:101410000BF021FA48F6FC50C2F20100149F046858
:10142000226C3046C2F80090DDE910C60AFA06F2D6
:10143000013DCDD102E03844F8E700BFDDF824904B
:10144000DDE90D1EDDE907B3DDE90BA5CE4401356D
:101450009D42A3D139E01F460A461944B0F90E60F7
:10146000F6433144012902DB7F1A012F2DDB46466A
:101470000AEB0801B0F90880B0F90C500B9BED4362
:1014800029440029C8BF5B1A311B41450ADAA8EB81
:1014900001069B1B35190EEBE50E05F0070426F03F
:1014A00007063144012B119D0FDB407C45F2F0769D
:1014B000C2F2010656F82000C6687668CDE90075CC
:1014C000CDE9029ECDE9044CB04715B0BDE8F08FE0
:1014D0002DE9F04F93B0924645F63432C2F2010244
:1014E0000DF1780E12689EE86041DDE91C745AB176
:1014F000D2F800C01EAA82E86041CDE91C745246B1
:1015000013B0BDE8F04F60470A9044EA0700012895
:10151000119512D148F6FC50C2F201000068B0F9F2
:101520000A20571A012F75DBA3EB0709B9F1010F48
:10153000C0F2E18007FB06886EE00D94012BC0F23B
:10154000DA8048F6FC50C2F20100C5F108090468CF
:10155000CDF840E0002200200DF11C0C8CE848047E
:101560000E908C460D980144B4F90A0081424BDD7F
:10157000B4F90E00844547DCBAF1010F44DBCDE934
:101580000B18481E12900026CDF83C800A9800BF28
:1015900016B1761B05E000BF0F994E4611F8012BDE
:1015A0000F915FFA82F838FA09F202D1237C9B0787
:1015B00021D4BEF1000F18BF5EF82220216C00EB91
:1015C000070B0D680A60ABF101026146129B64468D
:1015D0000BF041F948F6FC50C2F20100A446046841
:1015E000226C58461560DDE910E508FA05F2BAF1FB
:1015F000010ACDD102E03844F7E700BF0DF11C0A23
:101600009AE84804DDE90B180E98B044013098427E
:10161000A6D170E099460A4603EB010BB0F90E70B3
:10162000FF435F44012F04DBA9EB0709B9F1010F68
:1016300061DB0A99B0F90870B0F90CB00AEB01054A
:101640006FEA0B0BAB44BBF1000FC8BFAAEB0B0A50
:101650008F4219DDA7EB010CAAEB0C0A119D0F2D8F
:1016600015DCA5F1010BBBF1070F30D8DFE80BF05B
:1016700004182F202F2F2F2808EBEC082CF0070739
:1016800039440CF0070C22E04FF0000C1FE0102D45
:1016900018D0182D01D0202D19D108EB8C0813E09B
:1016A00008EBAC082CF0030739440CF0030C0EE0F7
:1016B00008EB6C082CF0010739440CF0010C06E033
:1016C000E04401E008EB4C084FF0000C3946BAF159
:1016D000010F119D0FDB407C45F2F077C2F201074C
:1016E00002AB57F82000C7687F68CDE9009583E812
:0C16F00040515346B84713B0BDE8F08FDE
:1016FC00F0B5092A16DA012A23D0022A27D0042AA7
:10170C004BD1002210F832301B0101294FD000EBD5
:10171C00C2073F7907F00F073B438354013202396C
:10172C00F0D10CE0102A84BF0020F0BD002200BFD5
:10173C0050F8223020F8123001329142F8D10120B9
:10174C00F0BD0278D201012933D1844673E04B1EDF
:10175C00A1F1020EA1F1030C0022002410F8245078
:10176C00AD01A34221D000EB8406A645377907F0E2
:10177C00030745EA071518D0377A07F0030745EA3F
:10178C008705A44511D0367B06F0030635438554F6
:10179C0001320434A142E1D1D1E7002250F82230C9
:1017AC00835401329142F9D1C9E78554C7E7835478
:1017BC00C5E7C1F1070100239E468446C4180529DC
:1017CC00257905F0010542EA851232D0257A05F01B
:1017DC00010542EA451204292DD0257B05F00105AF
:1017EC0042EA0512032926D0257C05F0010542EAC0
:1017FC00C50202291FD0257D05F0010542EA8502AC
:10180C00012918D0257E05F0010542EA450291B167
:10181C00257F05F001052A4300F80E2094F82020BE
:10182C00D201203307310EF1010E0CF1010C062907
:0C183C00C4D100EB0E0C8CF8002080E7FB
:10184800F8B581B10C460546002645F63037C2F298
:10185800010700BF386841682846884706440544A0
:0C186800013CF7D100E000263046F8BD3E
:1018740038B548F6D453C2F20103044648F6CC52B4
:10188400C2F201021868126890421CD08646A4462F
:101894009EE826008CE8260045F22851C2F2010198
:1018A40001F13C02904218BF00F10C0145F6702092
:1018B400C2F20100196005689DB1296809B120468A
:1018C40088476D68F8E745F22851C2F20101884261
:1018D4000CBF01F13C000C38214690E8241081E84B
:0C18E4002410207A002818BF012038BD15
:1018F000F0B583B045F6A411C2F2010104460868B0
:1019000038B943F2D960C0F601000860084611F00A
:10191000CBFF45F6E420C2F201004BF6DB01C0F636
:10192000000101606D46284694E8025080E80250AC
:1019300045F67820C2F20100066846B16C4600BF49
:10194000316809B1204688477668002EF8D148F6FC
:10195000CC53C2F2010348F6D452C2F201021C6811
:101960001168A14245F2285CC2F2010C084616D06B
:101970000CF13C006445064618BFA4F10C069DF826
:1019800008E0377ABE4509D1B14207D0664518BF95
:10199000A6F10C00007A864508BF344620468646EC
:1019A00095E8D0008EE8D0000CF13C0E70456446FE
:1019B00018BF00F10C041C60A14205D1714518BF8D
:1019C00001F10C0CC2F800C045F62C20C2F2010057
:1019D000016809B16846884711F042FD03B0F0BDC7
:1019E000F0B583B01E4614460F46054611F086FD3D
:1019F00048F6FC50C2F201000068D0E9130104442B
:101A0000ADF808400544ADF804500E44ADF80A6046
:101A10000F44ADF8067001A811F012F940B1284644
:101A20003946224633460AF016FF06F07DF9F5E7FF
:081A30000BF0A2F803B0F0BDB9
:101A3800F8B50F2B1EDC1D4616460F4604461C2023
:101A480008F0B4FBB0B167B945F2F071C2F2010118
:101A580051F8251031B100BF0A4609680029FBD1A9
:101A680017690761868285610021C0E90011C0E914
:081A78000214F8BD0020F8BDC6
:101A80002DE9F04383B01C4615460E46814611F001
:101A900035FD04200AF07AFE48F6FC51C2F201013D
:101AA00009688046D1E913010544ADF80850814426
:101AB000ADF804900F19ADF80A708C19ADF8064016
:101AC00001A811F0BDF800BF40B1484621462A46A2
:101AD0003B460AF0C0FE06F027F9F5E740460AF05B
:0C1AE00055FE0BF049F803B0BDE8F083A0
:101AEC0038B511F0BBFE45F67B30C2F201002E2159
:101AFC00017012F025FA48F6FC55C2F2010544F6C5
:101B0C00F0342868011D0164C2F201044FF23861FF
:101B1C00C0F60101C4F8A01000F10801E160C06337
:101B2C00407C45F2F071C2F2010151F82000C1680D
:101B3C000A6B2146904747F27870C0F60000C4F853
:101B4C00940001202075208248F61060C2F201003A
:101B5C000068A06128680830E0600AF0EBF8032107
:101B6C0020644CF6EF50C0F2AB00C4E90B0048F611
:101B7C001860C2F2010084F8981000680AF0CEFEDA
:101B8C0048F61460C2F2010000680AF0CEFE45F679
:101B9C003030C2F2010047F26871C0F600010160FA
:101BAC0007F0E4FC044611F01DFB10B111F020FB12
:101BBC0040B90AF088FD05460AF088FD0146284622
:101BCC000AF087FD0020002111F008FF06F060F9F3
:101BDC0007F05CFE45F68025C2F20105286800BFBF
:101BEC0030B1016809B18847286840682860F7E778
:101BFC0045F67A30C2F2010001210170204638BD51
:101C0C0040B102888A4203D842888A4228BF704772
:081C1C008068F5E70020704725
:101C240076B548F61C61C2F2010100240B686946CE
:101C340000229847019050B348F6FC51C2F20101CA
:101C44000968096A4A692AB112681AB10099904769
:101C540004461CE0486898B10098002601380090BA
:101C640010DB01AC204611F007FC05460BF053FBDA
:101C7400064400980028A0F101000090F2DC02E084
:101C8400002404E0002528460BF038FB8419204684
:041C940002B070BD6D
:101C980076B548F61C61C2F2010115460B68694623
:101CA80001229847044648F6FC56C2F20106019004
:101CB8003068406918B1294611F04AFED0B30120B6
:101CC8000AF012FF31680A6A506978B145F62C3675
:101CD800C2F20106326832B3B1F92650826800991F
:101CE8002046904731682846884720E01068F0B1C0
:101CF8000098013800901ADB48F60C65C2F201051D
:101D080001AC45F62836C2F2010600BF2A68214612
:101D18009047316801B1884700980028A0F1010078
:101D28000090F3DC03E08268009920469047002089
:081D38000AF0DAFE02B070BDF2
:101D400038B544F62834C2F2010494F8280000B1F2
:101D500038BD45F67030C2F201000121017045F630
:101D60007C10C2F2010084F82810816811B9416822
:101D7000890881605A2121620021102204EBC103ED
:101D800002FA01F51D6401311029F7D10221D0E9D1
:101D90000020C4E903011044A0F11401C4E90D12AC
:101DA000012540F8105C2069411E02290AD3002059
:101DB000616B01EBC001821CCA60013021690139ED
:101DC0008A42F5D365626160E068A16B00F004F8B7
:081DD00000F0F0F8256338BDB6
:101DD800F8B50E46044644F62837C2F2010708440F
:101DE800FA68B96B0A44013A904206D8026822B9E7
:101DF800456808F081FA2C44B96BB14204D256F810
:101E0800040C351A286888B33546002107EBC10051
:101E1800D0F8B820A24204D9013911F1100FF5D138
:101E280022E00F310F291FD800212A19C5E9001413
:101E380042F8044C2D612A46D0F8BC3042F8083FDD
:101E4800D0F8BC3003B15A60C5E90231C0F8BC20F3
:101E580038682044386097F8291029B9D7E9021260
:101E6800101A814238BFB8602046F8BD6E6828460F
:081E780008F042FA3444C8E707
:101E80002DE9F8430446FFF75BFF44F62837C2F21A
:101E90000107E21C386C3968A04298BF22F00300A9
:101EA00000F10C048C423ED87868396B884208D81F
:101EB000481E386300F07EF8396B0131396390BBFE
:101EC0007868013878607D6A786B012100EBC50283
:101ED00000F83510506878622DB30F2107EBC10070
:101EE000006CA04202D90139F8D213E00F2911D8B1
:101EF00007EBC100406C00BF40B1866836B1D6F830
:101F00000480A04513D2B068F6E700BF0131102964
:101F1000EED100BF204608F0ABF90F210028DDD03C
:101F2000284611F093FF00252846BDE8F883D7F82E
:101F30004090304608F0E4F9786B00EBC50009F1F9
:101F40000C014660A8EB0400884238BF44460020DC
:101F5000C6E90054B0603119A04541F8044C36611F
:0C1F6000E2DDA8EB0400FFF737FFDDE72F
:101F6C0080B5FFF7E7FE002044F62831C2F20101EC
:101F7C0001EBC002D2F8BC2022B9013810F1100FCD
:101F8C00F6D10EE0916861B1002000BFD1E90121CA
:101F9C00904238BF104611B189680029F6D10C382F
:081FAC0008BD6FF00B0008BD39
:101FB4002DE9F04144F62837C2F20107F86A20B14E
:101FC400386900EBD000041D09E045F67C10C2F22C
:101FD4000100D0E901010831B0FBF1F0841CE000FC
:101FE400FFF74CFFA8B306463869796B01EBC602CC
:101FF400D7F82C80526848F60863C2F2010302F154
:1020040008051B68C200284698477D63FE62611E6E
:102014003869884208D200BF05EBC0020130506025
:102024007D6B8142F8D1084605EBC0010020486071
:1020340079683A697A623C61A21A114479608045F0
:1020440008BFBDE8F081404611F0BCFE0020BDE8A9
:08205400F0810120BDE8F081DC
:10205C002DE9F04F83B01C4615468846824611F098
:10206C0047FA48F6FC50C2F201000068018BD0E937
:10207C001320531952440139071900EB080B009334
:10208C005818ADF808009146501AADF804007818AD
:10209C00ADF80A00ABEB0100ADF8060001A810F09A
:1020AC00C9FD00BF68B348F6FC50C2F201000068DD
:1020BC00068B022E1CD3701E00EBD07007EB600455
:1020CC00009901EB6005ABEB6008A9EB600A00BF5F
:1020DC00504641462A4623460BF065F9013C013D2A
:1020EC00013E08F101080AF1010AF1D106E000BF36
:1020FC0048465946009A3B460BF055F905F00EFE42
:0C210C00D0E70AF033FD03B0BDE8F08F0F
:1021180050F804CBC1F800C01944013AF8D170470F
:10212800D0F800C041F804CB1844013AF8D1704700
:1021380070B545F6482CC2F2010CDCF800C0BCF1C1
:10214800000F02D0BDE8704060474FF2385CC0F61F
:10215800010C4FF2384EC0F6010E00BF50F8044B88
:10216800C4F30725E6B21CF805501EF80660C4F350
:10217800074406EB45151EF8044005EBC4240C8003
:082188001944013AEAD170BDCF
:1021900070B545F6282CC2F2010CDCF800C0BCF189
:1021A000000F02D0BDE870406047A2F1010C0CFBAB
:1021B0000300A1F1040E5B424FF2F83CC0F6010CA3
:1021C0004FF2D831C0F601010488C4F3451504F07C
:1021D0001F061CF805508E5DE40A46EA05250C5DD5
:1021E00045EA044444F07F444EF822401844013A42
:0421F000EAD170BD03
:1021F4002DE9F04F85B0CDE902138346012B34DB82
:1022040016460F9D019200270298049507EB000AD9
:102214000024022E18DB00BF0BEB040815F8019B09
:102224004FEA19124046514611F044F808F10100F2
:1022340009F00F02514611F03DF80234B01E032E8E
:102244000646E9D801E000BF304630B104EB0B008C
:1022540029780A09514611F02DF8049D0E98054479
:1022640001370398019E8742CED105B0BDE8F08FB7
:102274002DE9F04F91B001394FF0FF340D290DD8FD
:102284000546DFE801F0070B520B6E0F18357C96FC
:102294000BA3B3430024002D00F0BC80204611B0F2
:1022A400BDE8F08F44F69440C2F2010000688169F1
:1022B40021F001015DE0C5EBC50045F6F001C2F275
:1022C400010144F6944401EB8000C2F20104D2E916
:1022D4000012C0E9031220462B4613F053FC04A954
:1022E40003AA284611F0D2F9DDE90321204605E0CE
:1022F40044F69440D2E90012C2F201002B460CF0DD
:10230400B4FA0024204611B0BDE8F08FC5EBC50037
:1023140045F6F001C2F2010101EB80001168416051
:102324000024204611B0BDE8F08FC5EBC50045F68A
:10233400F001C2F20101526801EB800351F8200060
:10234400DF685B697A4302FB030144F69440C2F2FE
:1023540001002A4613F05AFC0024204611B0BDE8BF
:10236400F08F44F69440C2F201000068816941F0A4
:10237400010181610024204611B0BDE8F08F44F6CC
:1023840094401268C2F20100012A006800EBC511F2
:10239400D1F8843023F0010308BF0133C1F884303D
:1023A400416A41F0010141620024204611B0BDE8B8
:1023B400F08F44F694401168C2F201002A4613F0EB
:1023C40005FC0024204611B0BDE8F08F10680028F9
:1023D40000F0598444F694402946C2F2010013F0F7
:1023E4009DFB0024204611B0BDE8F08F106800F476
:1023F4007F42C0F3074111442A4660F3174144F673
:102404009440C2F2010013F06BFB0024204611B08B
:10241400BDE8F08F43F6240542F20048C4F20205F9
:10242400C4F2020804A94FF40046E868012740F406
:102434000070E860E86800F4007004900498049662
:102444000120CDE9050003200790404612F098FED4
:102454004FF40041002240460CF00BF8142011F018
:1024640049FD4FF40041012240460CF002F8782067
:1024740011F040FD286A0E2140F080602862286A2D
:10248400002200F0806004900498286840F0806086
:102494002860286820F080602860E86840F4000024
:1024A400E860E86800F400000490049855F8140CFF
:1024B40040F4000045F8140C55F8140C20F4000006
:1024C40045F8140C286A40F000602862286A00F07D
:1024D400006004900498286840F000602860286830
:1024E40020F00060286058200BF0B9FE582012F04C
:1024F40075FC45F60C15A8F53840C2F201052860B4
:10250400284612F0B7FC64200490052004A9CDE904
:1025140005040420C5E9020728460BF0D8FE45F25D
:10252400CC170220C2F201074FF4487A39464FF41F
:10253400F07BF86040F6FF70C7E906047E20B862BD
:10254400F020F86240F69E0038630C20F863C7E977
:102554000D004FF4005038654FF4805078654FF407
:102564000060B8654FF48060F8654FF40070386619
:102574004FF48070786628464FF04009C7E900445C
:10258400C7E904A4C7E90844C7E910B6C7E9129922
:1025940012F09CFC284612F095FD44F69446C2F2D3
:1025A400010630460CF053F83E2070610B20B061F8
:1025B400B620F0611820306240F2D63070624FF4D9
:1025C400FC70B06240F24E40F0624FF40170306330
:1025D40044F6E450C021C2F20100C6E918AB4FF042
:1025E400080AC0F800A041610321C161C4620CF073
:1025F4008AF9A8F53C40306030463946B48686F8FE
:10260400364034610CF058F9304613F0C9F9786853
:102614000290002115220023284600940BF0FCFEB2
:102624004FF24C60FF21C0F601003922CDE90010C1
:10263400002103232846FF2612F058FD80200021A4
:10264400152200230090284680270BF0E5FE48F26F
:10265400B5200021C0F601003922CDE90060022333
:10266400284612F043FD0021152200232846009736
:102674000BF0D2FE302000211522C42300902846FE
:102684000BF0CAFE0A2011F035FC8A200021152225
:102694000023009028460BF0BFFE00211522C4231E
:1026A4002846CDF800900BF0B7FE0A2011F022FC6A
:1026B400B120002115220023009028460BF0ACFE27
:1026C400A92000211522C523009028460BF0A4FE62
:1026D4009120002115220023009028460BF09CFE37
:1026E40000211522C5232846342700970BF094FEB9
:1026F400B420002115220023009028460BF08CFE04
:10270400502000211522C023009028460BF084FE9F
:10271400002115220023284600940BF07DFE4E2054
:1027240000211522D923009028460BF075FE812044
:10273400002115220023009028464FF081080BF059
:102744006BFE662000211522C123009028460BF061
:1027540063FE0021152200232846A12600960BF0D3
:102764005BFE00211522C1232846CDF800A00BF002
:1027740053FE9220002115220023009028460BF0DE
:102784004BFE012000211522C523009028460BF0A2
:1027940043FE9520002115220023009028460BF0CB
:1027A4003BFE00211522C523284600970BF034FE7A
:1027B400002115220023284600940BF02DFE48F238
:1027C400B820D821C0F601003922CDE9001000213B
:1027D4000223284612F08AFC9420002115220023AB
:1027E400009028460BF018FE332000211522C52343
:1027F400009028460BF010FEA32000211522002390
:10280400009028460BF008FE1B2000211522C0234F
:10281400009028460BF000FE8220002115220023A0
:10282400009028460BF0F8FD00211522C523284608
:10283400832700970BF0F0FD002115220023284682
:10284400CDF800800BF0E8FD00211522C4232846B2
:1028540000970BF0E1FD0021152200232846009685
:102864000BF0DAFD0E2000211522C123009028462A
:102874000BF0D2FDA620002115220023009028464B
:102884000BF0CAFD48F2BB20B321C0F60100392287
:10289400CDE9001000210223284612F027FC002174
:1028A400152200232846802700970BF0B5FD48F237
:1028B400BE20CE26C0F601000021CDE900603922F9
:1028C4000623284612F012FC002115220023284674
:1028D4004FF0A00BCDF800B00BF09EFD48F2C520E0
:1028E4000021C0F601003922CDE900600E232846FC
:1028F40012F0FCFB00211522002328464FF0B008FB
:10290400CDF800800BF088FD48F2D4200021C0F6F9
:1029140001003922CDE900600E23284612F0E6FBBF
:1029240000211522002328464FF0C00ACDF800A04C
:102934000BF072FD48F2E320CF21C0F601003922EA
:10294400CDE9001000210A23284612F0CFFB002114
:102954001522002328464FF0D009CDF800900BF043
:102964005BFD00211522CF23284600940BF054FD73
:10297400002115220023284600970BF04DFD48F254
:10298400EE20CB27C0F601000021CDE900703922EA
:102994000A23284612F0AAFB002115220023284608
:1029A400902600960BF038FD4FF250600021C0F6DF
:1029B40001003922CDE900700F23284612F096FB5E
:1029C4000021152200232846CDF800B00BF024FD89
:1029D4004FF260600021C0F601003922CDE9007099
:1029E4000F23284612F082FB0021152200232846DB
:1029F400CDF800800BF010FD48F2F9200021C0F65C
:102A040001003922CDE900700A23284612F06EFB3A
:102A14000021152200232846CDF800A00BF0FCFC71
:102A24004FF270600021C0F601003922CDE9007038
:102A34000F23284612F05AFB0021152200232846B2
:102A4400CDF800900BF0E8FC4FF280600021C0F656
:102A540001003922CDE900700F23284612F046FB0D
:102A6400E020002115220023009028460BF0D4FC1E
:102A740048F204300021C0F601003922CDE900708B
:102A84000A23284612F032FBF020002115220023ED
:102A9400009028460BF0C0FC48F20F300021C0F62D
:102AA40001003922CDE900700A23284612F01EFBEA
:102AB4008020002115220023009028460BF0ACFC56
:102AC40048F21A30CC27C0F601000021CDE900708D
:102AD40039220A23284612F009FB0021152200237B
:102AE400284600960BF098FC4FF290600021C0F647
:102AF40001003922CDE900700F23284612F0F6FABE
:102B04000021152200232846CDF800B00BF084FCE8
:102B14004FF2A0600021C0F601003922CDE9007017
:102B24000F23284612F0E2FA00211522002328463A
:102B3400CDF800800BF070FC48F225300021C0F67F
:102B440001003922CDE900700A23284612F0CEFA9A
:102B54000021152200232846CDF800A00BF05CFCD0
:102B64004FF2B0600021C0F601003922CDE90070B7
:102B74000F23284612F0BAFA002115220023284612
:102B8400CDF800900BF048FC4FF2C0600021C0F675
:102B940001003922CDE900700F23284612F0A6FA6D
:102BA4008120002115220023009028460BF034FCDC
:102BB400662000211522C523009028460BF02CFC2A
:102BC400B620002115220023009028460BF024FC97
:102BD400062000211522F523009028460BF01CFC4A
:102BE400002115220023284600940BF015FC4FF217
:102BF400D060FF21C0F601003922CDE90010002188
:102C04000323284612F072FA0021152200232846D5
:102C140000940BF001FC00211522002328460094A7
:102C24000BF0FAFB4DF6DB70E121C0F6010039220E
:102C3400CDE9001000211023284612F057FA002194
:102C440015220023284600940BF0E6FB4DF6EC70A9
:102C5400E221C0F601003922CDE900100021102341
:102C6400284612F043FA0021152211232846009425
:102C74000BF0D2FB782011F03DF9029802280ED017
:102C8400C0B977270CE044F694402946C2F201000B
:102C940012F05EFF0024204611B0BDE8F08F5527E6
:102CA40045F60C100021C2F2010015223A230097C8
:102CB4000BF0B2FB45F60C156020C2F201050021B1
:102CC400152236230090284600240BF0A5FB4DF670
:102CD400FD702A21C0F601003922CDE9001000213F
:102CE4000423284612F002FA4EF202002B21C0F609
:102CF40001003922CDE9001000210423284612F0F6
:102D0400F5F97F20002115225123009028460BF06D
:102D140083FB2C20002115225323009028460BF01E
:102D24007BFB0021152255232846022600960BF032
:102D340073FB002115225E232846FF2700970BF022
:102D44006BFB002115222923284600940BF064FB19
:102D5400002115220023284600940BF05DFB00217E
:102D640015222C23284600940BF056FB44F6944578
:102D74000021C2F20105284612F068FF4BF2000060
:102D84000022C4F20200016841F4007101604EF2B5
:102D94005A404FF08061CEF2000004704EF20810E9
:102DA400CEF20000016040F20000CCF240000D9031
:102DB4004FF4C0600B9007200C904FF448704FF410
:102DC400F071CDE90504CDE90716CDE90E0104A99A
:102DD4002846CDE90974ADF840408DF8424004948A
:0C2DE40012F050FE204611B0BDE8F08F48
:102DF00010B50446C06C40B104F06AF8034880681E
:102E0000A04202BF02480021016010BD0000002066
:042E10001C5B012026
:082E14000048704700FC072094
:102E1C0001480249081A704700FC072000000820EE
:102E2C0081B06846EFF31081016072B60D490E4A0D
:102E3C00535843F47F035350016881F310884FF0CB
:102E4C0000709060106840F0404010600020EFF37C
:102E5C00148020F0040080F31488BFF36F8F01B04E
:0C2E6C00704700BFECFDFFFF34EF00E0FA
:0C2E78000149C863704700BF0000002043
:102E84002DE9F0414FF0800080F3118800BF00BFAE
:102E9400144ED6E90478144DE8688047044628693E
:102EA400804728B1013748F10008E86880470446A4
:102EB400707818B94FF0000080F311886869A7FB97
:102EC400001208FB00220023001B63F100082D7A86
:102ED400002D1CBF98462046401848EB0201BDE86F
:0C2EE400F08100BF0000002070580120A9
:102EF0002DE9F0410446244FF86B28B111F0FCFE97
:102F0000014640F21B10B0472048014694E86C018E
:102F100081E86C01D0E90012B1FBF2F242614FF49A
:102F20007A720B4633B1B2FBF3F404FB13241A4656
:102F30002346F7E7B1FBF2F34FF47A74B4FBF2F2F5
:102F4000C0E90623124A13460C4614B10BF0ACF844
:102F5000FBE7B1FBF3F4B2FBF3F2C0E908240D4A3E
:102F600013460C4614B10BF09FF8FBE7B1FBF3F1ED
:102F7000B2FBF3F2C0E90A21F86B18B1816C40F2A0
:102F80001B108847BDE8F081000000207058012028
:082F900040420F0000CA9A3B09
:102F980070B50D4EF06B10B1816AD6208847FFF7E7
:102FA8006DFF0A4AD2E90832A0FB030401FB034182
:102FB8000BF06BF804460D46F06B18B1C26CD620C6
:102FC800214690470BF064B800000020705801209B
:102FD8000249D1E908210BF05EB800BF7058012002
:0C2FE8000148C06A704700BF00000020D4
:0C2FF4000148C06A704700BF00000020C8
:1030000010B5144C207801382070207800B110BD24
:1030100060680028FBD04FF0800080F3118800BF6B
:1030200000BF606868B101202070E06B20B1026AC7
:10303000A06890F850109047204604F00EFD002044
:10304000207060780028E2D14FF0000080F31188F2
:08305000DDE700BF00000020D5
:103058002DE9F84F9B46924688460446254FF86B63
:10306800DDF83090DDE90A6568B1D946D0E90EB1DE
:1030780020468847014600952E2052463346D847B9
:10308800CB46DDF830902046542103F085FEC4E994
:1030980004AA84F85290C4E90985E66297F86700A3
:1030A80084F8500030462946CD2203F076FEF86BAE
:1030B80030B1016920468847F86B08B10AF0FEFF75
:1030C800A819583820F007000BF10201C0E913B124
:1030D8004FF08071084A0AF0EAFF016060602046FC
:1030E80000F03AFCF86B10B1816C2E208847BDE8DF
:0C30F800F88F00BF00000020E179000804
:1031040038B50446094DE86B18B1C26A2A20214635
:103114009047012C04DBFFF765FF204400F008F81A
:10312400E86B10B1816C2A20884738BD000000206C
:1031340010B504460B4991F8620068B14FF0800065
:1031440080F3118800BF00BF8868042180F8501004
:10315400C46000F085FC03E0FFF744FF001BFBD4D0
:0831640010BD00BF00000020B7
:10316C0070B504460E4EF06B18B1C26AA32021460E
:10317C009047FFF781FE05462046FFF727FF002802
:10318C0008BF01204419281B03D5FFF775FE05461F
:10319C00F9E7F06B10B1816CA320884770BD00BFBC
:0431AC0000000020FF
:1031B00038B5094DE86B60B1816A40F25910884713
:1031C000AC68E86B30B1C26C40F2591021469047B0
:0C31D00000E0AC68204638BD0000002084
:1031DC0070B504460C4DE86B28B111F08BFD01461F
:1031EC0040F21510B047002C08BFAC680CB1646AF3
:1031FC0000E0064CE86B20B1C26C40F21510214681
:10320C009047204670BD00BF000000205D8501087E
:10321C0070B504460C4DE86B38B111F06BFD0146EE
:10322C004FF48B70B047E86B00E00020002C08BF17
:10323C00AC6894F8514020B1C26C4FF48B702146AD
:0C324C009047204670BD00BF000000202D
:10325800F8B50D4604461E4EF06B38B1076BC16BCE
:103268002046884701462C202A46B847002C08BF2C
:10327800B4686069A84221D0216981421DD100F05B
:1032880073FC4FF0800080F3118800BF00BF204618
:103298000AF02EFFC4E904552046002100F05CFB2B
:1032A800707818B94FF0000080F31188B069F061A8
:1032B80001207071FFF7A0FE00E06561F06B30B18E
:1032C8000AF0FCFEF06B10B1816C2C208847F8BD29
:0432D80000000020D2
:1032DC0070B504462D4DE86B20B111F00BFD014685
:1032EC002F20B04700F03EFC002C08BFAC68284EE5
:1032FC0036681EB1716820468847F9E72448416852
:10330C0009B1204688472046FFF76CFD4FF080003E
:10331C0080F3118800BF00BFA06810B1204611F0E7
:10332C00F1FC20460AF0E2FE1A480168A14204BFF3
:10333C0000210160687818B94FF0000080F3118803
:10334C00E869844204BFA869E861E86B38B1016D93
:10335C0020468847E86B10B1816C2F208847A868FD
:10336C0084420FD14FF0800080F3118800BF00BF62
:10337C00A968E86B00220A6008B18069804703489D
:10338C0004F065FBFFF736FE70BD00BF00000020A7
:08339C00F45901207800002023
:1033A40038B5134CE06B18B1816A4FF491708847BB
:1033B400A06B10B10AF094FE0CE00AF084FE5CBF2E
:1033C4000120607194F8650020B10AF08EFE04BFFC
:1033D4000120207104F148052D6815B16868804703
:1033E400FAE7E06B18B1816C4FF49170884738BDEF
:0433F40000000020B5
:1033F80070B504460E4DE86B20B111F081FC014612
:103408005220B0470B480C4901600020C4E9000075
:10341800C4E9020000F0A8FB286CA0602C64FFF748
:10342800EBFDE86B10B1816C5220884770BD00BF7E
:0C34380000000020F85901204534000875
:10344400F8B504460E4E0027304605685DB1287B6A
:1034540030B16868A04203D12F73284600F0B6FA51
:1034640005F10800F1E7A06840B18068316829B12E
:1034740001F108068142F9D100F054F8F8BD00BF0B
:0434840040000020E4
:1034880070B504460D4D286820B111F039FC01468D
:103498005720B04700F068FB2A1D116831B110466B
:1034A80001F10802A142F8D1A1680160FFF7A4FD6B
:1034B800286810B1816C5720884770BD3C000020F7
:1034C80070B50446154EF06B30B1C56AC16B204625
:1034D800884701465320A84700F046FB207B78B177
:1034E800B0686168814208D02046102100F0CCFA0B
:1034F800207B0028F8D1B0686060207B451C02E082
:10350800B068606001252573FFF776FDF06B18B190
:10351800C26C532029469047284670BD0000002001
:103528002DE9F04104464068002838D0D0E904C7A6
:10353800BC4534D0DFF86C800025424612688AB159
:10354800A24202D05368834201D00832F6E71346FC
:103558001B68002BF9D0DE683169B94284BF354653
:103568000F46F5E767451AD04FF0800080F31188C1
:1035780000BF00BF60680AF0BBFD606807612946AC
:1035880000F0EAF918F83F0C18B94FF0000080F382
:10359800118858F8041C11B16068C9688847BDE8EB
:0835A800F08100BF400000208B
:1035B00070B504460E4DE86B20B111F0A5FB014635
:1035C0005420B04700F0D4FA207B01382073207BD0
:1035D00028B92046FFF7A8FF204600F0F9F9FFF7C9
:1035E0000FFDE86B10B1816C5420884770BD00BF9F
:0435F00000000020B7
:1035F4002DE9F041B54C00256570012020704FF095
:10360400800080F3118800BF00BF606B50B1617807
:1036140001316170804784F86450C4E90D556078C5
:10362400013860704FF0000080F31188FFF7F0FB61
:103634000078CD2802D07D2012F0FEFCA06898B15D
:10364400C16A0978CD2904D0782012F0F5FCA0686D
:1036540050B1054655F8441F31B1406809688847A0
:103664006D680DB12968F9E794F8660000283DD02B
:10367400A06894F8651080F851102079002835D09E
:103684004FF0800080F3118800BF00BF002020713C
:10369400A1684FF0000080F3118819B3086808B3DB
:1036A4000B6902699A421DD10246006810B105698E
:1036B4009D42F9D04FF0800080F3118800BF00BF15
:1036C4000868E3698B4208BFE0610B6A0362186013
:1036D4000A621068086000B10162116092F8520039
:1036E40082F851004FF0000080F3118894F86300D1
:1036F400C0B1C0070CD0FFF775FC75494968081ABA
:1037040006D594F8630010F0FE0084F8630009D035
:10371400FFF7B6FBA16821B1E26D821A8B6B1A44E4
:103724008A63E065A06828B190F8501011B9416B24
:1037340001314163E06988B34FF0800080F3118860
:1037440000BF00BFE5697DB395F8506066B37007AC
:103754000FD5E16AE868411A002904DD216B411A9A
:1037640048BF206305E0284600F0B4F895F85000FF
:10377400A0B106F0FB00102809D1A8688068406851
:1037840090F8501019B929690069884206D128684F
:10379400E0614FF0000080F31188CDE74FF0800026
:1037A40080F3118800BF00BF00276FF0004804F1C8
:1037B4001806607900283BD06771E06A40442063B2
:1037C400A16A09B1204688474FF0000080F31188B0
:1037D40035462D684FF0800080F3118800BF00BF8C
:1037E400002DE6D0E06918B1006929698142E0D36F
:1037F40095F85000400716D5E16AE868411A002997
:103804000DDC284600F066F84FF0800080F3118844
:1038140000BF00BF95F850000028CAD0E868216BAB
:10382400411A48BF20634FF0000080F31188D0E7AD
:1038340000206060E569B5B395F85000B0B1A868A0
:10384400806846683168306A0160316801B1086295
:1038540028693061E06B10B1C168304688470120A7
:1038640060703046294600F079F8E661E069A060AE
:10387400054655F8441F39B14068496888476D6862
:103884000DB12968F9E7A06890F8511084F8661022
:1038940084F86510E16B11B149698847A068016B30
:1038A400013101630EE0E06B08B1406A80470020FB
:1038B40084F8650084F86600A06020704FF0000072
:1038C40080F311880148BDE8F08100BF00000020AA
:0438D4005C51012022
:1038D80038B505461F4CE06B10B1C16928468847CA
:1038E800A86820B1E06AE860284611F00DFA95F85A
:1038F800500010F0030085F8500025D1E06918B198
:1039080002692969914205D9E561207878B10120D9
:10391800607117E0A842F8D0914215D12A46126882
:1039280082B1136999420DD18242F8D1ECE70120A6
:103938002070E06B08B10AF0E3FB204604F089F838
:1039480000202070607800B138BD4FF0000080F38F
:08395800118838BD00000020B9
:1039600038B50246194C207801302070106909B131
:103970000B6809E004F118010B6823B11D69A84226
:1039800002D21946F8E70023116213600A6043B1BE
:103990001A62196981420CBF92F85200002082F825
:1039A000510092F8500070B94FF0800080F31188F8
:1039B00000BF00BF1046FFF78FFF607818B94FF0C7
:1039C000000080F31188FFF71BFB38BD00000020CA
:1039D00010B504464FF0800080F3118800BF00BF8F
:1039E000206820B12068C068FFF776FFF2E704483E
:1039F000407818B94FF0000080F3118810BD00BF67
:043A000000000020A2
:103A040070B504464FF0800080F3118800BF00BFFA
:103A1400124E7078013070700025206890B12068D3
:103A2400C06890F85000400707D5F06A2168C9685B
:103A3400C968081A0128B8BF01252068C068FFF7C3
:103A440049FFEAE7707801387070707818B94FF060
:103A5400000080F31188E8B270BD00BF00000020B0
:103A640038B5094C2578681C2070E06B08B10AF061
:103A740049FB204603F0EFFF2570607818B94FF03A
:0C3A8400000080F3118838BD0000002015
:103A900013B582B0024601900A4B986803904FF02C
:103AA000800080F3118800BF00BF14686846106072
:103AB000009404B160609A6882F850109060FFF73B
:083AC000D1FF1FBD0000002032
:103AC80033B583B003460290124CA06804904FF0BF
:103AD800800080F3118800BF00BFA068E56AC2605B
:103AE800521B002A0DDD1C6801AA1A60019404B15A
:103AF8006260826041F0040180F85010FFF7AEFF69
:103B080005E0607818B94FF0000080F3118805B01F
:083B180030BD00BF00000020D9
:103B200010B54FF0800080F3118800BF00BF0E4C2D
:103B3000607894F863100130607029B9012084F82E
:103B40006300FFF79FF9E065E06A61780139617011
:103B500041F28831084405494860607818B94FF04F
:103B6000000080F3118810BD000000205C5101208E
:103B70000248017801310170704700BF0000002049
:103B800070B5FFF747F9084DE9684C68061BFFF769
:103B900045F93218E868016F8A4203D8C06E2146A1
:0C3BA00003F0CCF870BD00BF0000002056
:103BAC000548816D19B182680023C2E91113406D7B
:0C3BBC0000B10047704700BF000000206F
:103BC80038B5174800680078532803D1154880791C
:103BD80008B1FEE7FEE7144800684CF691118842E8
:103BE8001CD112480124124D6FF000412963C0E92D
:103BF8000644C0E90844C0E90A44FFF713F92C70E9
:103C0800FFF704F9044611F071F8001BB0F1200128
:103C180003D02046CD2203F0C0F838BDFEE700BF30
:103C28002C780008D4F7010828780008705801207B
:043C38000000002068
:103C3C0038B50A4DE86B60B1816A4FF4AC708847B7
:103C4C0095F86240E86B30B1816C4FF4AC708847EA
:103C5C0001E095F86240204638BD00BF000000200E
:103C6C004FF0800080F3118800BF00BF0248012193
:0C3C7C00017003F0B9BE00BF6200002020
:103C880070B50546184EF06B38B1C46AC16B28464A
:103C98008847014640F22710A0473078013030703D
:103CA800B068002D08BF0546AC6B854210D14FF0B7
:103CB800800080F3118800BF00BFFFF7DFF8F16DC7
:103CC800401A0444707818B94FF0000080F3118846
:103CD800FFF792F9F06B20B1C26C40F22710214631
:0C3CE8009047204670BD00BF0000002087
:103CF40010B5084CE06B50B1816A40F23B10884724
:103D0400E06B20B1C26C044940F23B10904702487A
:0C3D140010BD00BF00000020308301083B
:103D200010B5084CE06B50B1816A40F23D108847F5
:103D3000E06B20B1C26C044940F23D10904702484C
:0C3D400010BD00BF000000203F83010800
:103D4C0070B504460B4DE86B38B110F0E3FF01463B
:103D5C004FF4A170B047E86B00E00020002C08BFC6
:103D6C00AC68E46A20B1C26C4FF4A1702146904754
:083D7C00204670BD000000208C
:103D840070B504460B4DE86B38B110F0C7FF01461F
:103D940040F24310B047E86B00E00020002C08BF5D
:103DA400AC68A46A20B1C26C40F24310214690472B
:083DB400204670BD0000002054
:103DBC00F8B50D460446104EF06B30B1076B0AF0A7
:103DCC00A2F90146AE202A46B8470020C4E90000FB
:103DDC00A06005F00400607205F00300411EB1FA0A
:103DEC0081F1022818BF48092072F06B10B1816C68
:0C3DFC00AE208847F8BD00BF000000208A
:103E080038B5074CE16B51B1CD6AC96B884701469B
:103E1800AF20A847E06B10B1816CAF20884738BD50
:043E28000000002076
:103E2C0070B50446164DE86B20B110F077FF0146D3
:103E3C00AB20B0474FF0800080F3118800BF00BF6B
:103E4C00687801306870606888B1207A012801D0E8
:103E5C000020606010F066FF03D14FF0000080F38B
:103E6C001188E86B10B1816CAB20884770BD20467F
:103E7C004821FFF707FE207A0228E9D0EAE700BFC5
:043E8C000000002012
:103E9000F8B50D4604461D4EF06B30B1076B0AF0C5
:103EA00038F90146AC202A46B8474FF0800080F32D
:103EB000118800BF00BFF06A616881B905442046DF
:103EC00048212A46FFF700FEB068C068281A01287A
:103ED00019DB4FF0800080F3118800BF00BF207A0B
:103EE00001281CBF00206060707818B94FF00000F6
:103EF00080F311880024F06B18B1C26CAC2021460D
:103F000090472046F8BD0124F5E700BF00000020DF
:103F100070B50446174DE86B20B110F005FF01465F
:103F2000AA20B0474FF0800080F3118800BF00BF87
:103F300068780130687001206060206860B1FFF728
:103F400017FE2046FFF75EFD20B9207A01281CBF2E
:103F500000206060FFF754F810F0EAFE03D14FF044
:103F6000000080F31188E86B10B1816CAA208847AB
:083F700070BD00BF000000203D
:103F780070B504460D4DE86B20B110F0D1FE014636
:103F8800A920B0474FF0800080F3118800BF00BF20
:103F980000206060687818B94FF0000080F311883D
:103FA800E86B10B1816CA920884770BD0000002023
:103FB800034800210170417081700161704700BFA2
:043FC800680000206D
:103FCC002DE9F0417D4E3279511C3171B01890F8C9
:103FDC002000432809D1901C307172693AB156FA0D
:103FEC0081F090F82000904701E0718911B1002018
:103FFC00BDE8F08101217181714F3870632863D065
:10400C006C283CD0742847D0732840F0D480FFF73C
:10401C0081FDFEF7E9FF6B4CA0476B4D6868A0472C
:10402C0055F8100CA0474CF6911000F06BF9708904
:10403C00C7289FBF0121395401307081FFF754FE0E
:10404C0000F0DEF9FFF766FE00F0DAF97089C72898
:10405C009FBF0021395401307081FEF7D5FE0AF064
:10406C005EF8FEF7D5FE0446B0F57F4F05D34FF44E
:10407C007F4040EA144000F045F9204699E00220C8
:10408C00708174207870504C2468002C00F0938060
:10409C0020460AF044F8F7E74B4D0AF037F804468F
:1040AC0090F8508028460068A04221D00028FAD110
:1040BC0044F24E1000F026F97089C7287BD85421A1
:1040CC0039540130708176E00AF020F8044600F093
:1040DC007DF8810804CCB2F1CD3F03D101390A043B
:1040EC00F8D1002120F00300890089B2401A60E069
:1040FC00FEF7C2FE0AF013F855F8105C2046FFF7E5
:10410C0067F800F07DF9A542454608BF4FF0FF3532
:10411C00B8F1000F18BF454671892069FF2809D9ED
:10412C00C7299FBF00227A540131718109F0F7FF32
:10413C00708904E0C72907D87854481C7081C728B7
:10414C009EBF3D5401307081A06808B1806800E0CA
:10415C0000201C4DA847E068A8472046FFF7F0FD5B
:10416C00A8472046FFF78AFDA847206BA8472046A2
:10417C00FFF702FE0546B0F57F4F05D34FF47F40A5
:10418C0040EA154000F0BEF8284600F0BBF8204687
:10419C00FFF73EF87189C72909D87854481C7081FB
:1041AC00C7291FBF94F852203A54881C7081FEF71F
:1041BC0015FF00F0A7F870891AE700BF680000200F
:0C41CC00E04801202BE100081800002052
:1041D800064810F81C1C8A1C00F81C2C425C013193
:1041E800C9B2405C40EA022080B2704788000020D3
:1041F80070B5424DA878092812D8DFE800F00513F9
:104208001B292D3E42464F56688910B96878002808
:1042180070D00020A8810120A87028708C2467E045
:10422800002465E068890221002808BF0721A970D9
:10423800ED245DE06C89F02C3DBF2C720420A87041
:10424800032021BFA870F02040EA14242C724FE00C
:104258000420A870AC7A4BE0A889411CA981294A9E
:10426800145C287A20442872688989B281423FD137
:10427800002068810520A8703AE00620A8702C7AF2
:1042880036E00020A8708D2432E00820A8706878F5
:104298000130287268780130C4B229E00920A8707A
:1042A800287A43302872432422E0A889A9690C5C43
:1042B8000130A881697880B2884216D10520A8709B
:1042C8004FF0800080F3118800BF00BF00266E7099
:1042D800286918B12869FFF7FBFA2E610848407869
:1042E80018B94FF0000080F31188287A204428720A
:1042F800204670BD00202870C443F9E768000020FC
:0843080000000020E048012044
:1043100010B507494A89C72A09D8040A054B9C5495
:10432000541C4C81C72A1EBF1855901C488110BDD3
:0843300068000020E0480120B4
:1043380010B5204C617905293AD8DFE801F0030B64
:104348000F16282FED2833D10020E0704FF480702D
:10435800A0802DE08C2829D1022028E030B309283C
:1043680024D2E071A071032021E0E17807299FBFE2
:104378004A1CE270214481F82000A179E2791044B6
:10438800E071481EA071000612D104200FE0E17907
:104398000844E071000609D1052008E08D2805D100
:1043A800FFF710FE10B1608100F006F80020607180
:0843B80010BD00BF68000020E9
:1043C00080B54FF0800080F3118800BF00BF09481E
:1043D000007830B9FFF710FF002802D4C0B211F006
:1043E00097FE0548407818B94FF0000080F3118817
:0C43F00008BD00BF680000200000002095
:1043FC00024A516950610846704700BF68000020AE
:10440C0070B50146104D6E89C6F1C7041E2C28BF2D
:10441C001E2430B10020844206D00A5C1AB101304F
:10442C00F9E7002400E00446C72E9FBF07488455D7
:10443C0001366E813CB1054810FA86F0224602F036
:10444C0077FC3019688170BD68000020E0480120BD
:10445C002DE9F04F87B09C4690468A460746129944
:10446C00DDE91005002B11D44FF0FF32E346B2FB0F
:10447C00FCF24FF0010C0E460CFB0BF9C1450AD8AF
:10448C00013E013D9145CC46F6D305E0E3464FF0A5
:10449C0001090E4600E0E146820607D4820707D4E4
:1044AC00420700F189800123002204E02D2200E064
:1044BC002B22013D002300F0100C0131B1FA81F1E7
:1044CC00490911EA1C111CBF2E464FF0FF35002480
:1044DC0010F00100049019D1022DA8BFB54215DDD2
:1044EC0002930CF12000CDE9052000BF384651465F
:1044FC00069A0BF078FB2819013C032802D30138EB
:10450C00B042F3DC25446442059A029B23B9384639
:10451C0051460BF068FB0134CDE905A7022ECDE91D
:10452C00025612DB30190190771C0135069C00BF36
:10453C002046514630220BF056FB013F022FF7D894
:10454C0003982E1A0198441E00E02E465D46DDE9C4
:10455C00057B00BFB8FBF9FA4FF62800C0F6010046
:10456C00394610F90A2058460BF03DFB0AFB198816
:10457C00B9FBF5F00134A9458146EBD20498B8B1EA
:10458C00022E15DBDDE90212012A1046A8BF01201C
:10459C000844801A471C0025DDE905863046414653
:1045AC0020220BF020FB013D78190228F6D8641B61
:1045BC00204607B0BDE8F08F013D002320227AE7AA
:1045CC002DE9F84F84B0924689460446002900F044
:1045DC0065818968002900F06181D4E9010201320A
:1045EC00824240F05B814846884757E142B2204600
:1045FC0049460BF0F8FA51E1002000BF51461AF879
:10460C00012BA2F12A07062F08D80123DFE807F0B7
:10461C002804121012120C00022309E0202A05D0E3
:10462C00232A07D1082303E0102301E0042300BF51
:10463C001843E3E701F1010AA2F13001C9B20929DB
:10464C001CD8002606EB860102EB4101A1F13006D5
:10465C001AF8012BA2F13001C9B20A29F2D30FE0EA
:10466C00049A131D04931268002A164648BF56423A
:10467C0040EAD27001F1020A4A7801E04FF0FF36AD
:10468C002E2A17D1534613F8012BA2F13001C9B2CF
:10469C00092912D800219A4601EB810102EB410154
:1046AC0030391AF8012BA2F13003DBB20A2BF3D309
:1046BC0014E000BF4FF0FF3110E02A2A08D1049912
:1046CC000A1D04920AF102039AF80120096800E01D
:1046DC0000219A4602E000BF1AF8012B02F0FB03FE
:1046EC00682BF9D053B2622B1EDC252B55D0582BDE
:1046FC0038D05F2B08BF1AF8012B20E01B68002B69
:10470C0000F0CC801F7A9742F8D15F6840B2CDE9B7
:10471C00000602912046494647F65402C0F60002B4
:10472C0004ABB847BAE000BFA3F16F07092F22D83A
:10473C00DFE807F00A3905054A057C05051845F63A
:10474C007423C2F20103D9E7049A131D049312686F
:10475C0040B2CDE900060291204649460823FFF7F6
:10476C0077FE9BE0049A131D0493126840B2CDE9C6
:10477C000006029122E0632B66D0642BDFD1049AF1
:10478C00131D0493126840B2CDE900060291204635
:10479C0049460A2311F0B8FC80E020464946252200
:1047AC000BF021FA7AE004990A1D04920A6840B2CF
:1047BC0000904FF0FF3001900820029020464946AF
:1047CC001023FFF745FE69E0049A131D0493D2F8F9
:1047DC0000B0BBF1000F04BF48F2463BC0F6010B22
:1047EC00002907DA002100BF1BF801200131002A43
:1047FC00FAD10139002E48BF0E4601292ADB0025CB
:10480C001BF805201AB10135A942F9D10D46C00794
:10481C0023D0B5B3002700BF1BF90720204649461B
:10482C000BF0E1F90137BD42F6D12BE0049A131DD0
:10483C000493126840B2CDE9000602912046494625
:10484C000A23FFF705FE29E00498011D049190F955
:10485C000020CCE60025C00714D1771B012F06DB06
:10486C002046494620220BF0BEF9013FF8D1ADB1EC
:10487C001BF9012B204649460BF0B5F9013DF7D148
:10488C000CE00025AE4209DD771B00BF20464946EF
:10489C0020220BF0A8F9013FF8D100BF1AF8010B48
:1048AC0025283FF4A9AE00287FF4A0AED4E900126D
:1048BC00A0689042A8BF501E00220A54914509D00E
:1048CC00D9F8081031B128B162680130904201DA90
:0C48DC0048468847A06805B0BDE8F08F92
:1048E800F8B545F664340DF10301C2F20104012262
:1048F800207811F023FC0128C0F20F829DF80300F4
:10490800411E06290BD8DFE811F0070053006C00A0
:10491800A600B400E40004010BF092FCF8BD7F2867
:1049280000F0FB81802840F0048120780DF103011C
:10493800012211F003FC0128C0F2EF8145F67C202A
:10494800C2F201000268002A00F0E7819DF8030026
:10495800002800F03081411E1269002A00F0DD8134
:1049680091B11269002A00F0D88101290CD012698E
:10497800002A00F0D281022906D01269002A00F02C
:10498800CC8104394B1CE7D1EFF311874FF020019C
:1049980081F3118848F6913541B2C2F20105002928
:1049A80080F2148140F0800005F8010B01200DE130
:1049B80045F66C35EFF311844FF0200181F311882F
:1049C800C2F20105287848B148F691300B22C2F2AC
:1049D800010001460BF0A8FA0020287084F3118822
:1049E800F8BD45F6BC20C2F201000068002800F0BE
:1049F800AB800068002800F0A78080470A46EFF3E4
:104A080011864FF0200181F311880146802848F66D
:104A18009130C2F20100C0F0CA8041F080030370F7
:104A2800CB09B1F5804FC0F0FC8043F080034370A0
:104A38008B0BB1F5001FC0F0718143F080038370C8
:104A48004B0DB1F1805FC0F07981051D090F43F06E
:104A58008003C37074E145F6BC20C2F2010000680F
:104A6800002800F05A814068002800F056818047ED
:104A7800F8BD45F6B420EFF311854FF0200181F31E
:104A88001188C2F20100046848F69130802CC2F205
:104A98000100C0F08680E209B4F5804F44F080013F
:104AA8000170C0F0828042F08001A20BB4F5001FB3
:104AB8004170C0F0B48042F08001620DB4F1805FB3
:104AC8008170C0F0B580011D240F42F08002C270D1
:104AD800B0E045F66F30EFF311844FF0200181F319
:104AE8001188C2F2010090F9002048F69130C2F214
:104AF8000100002A014604DA42F0800201F8012B85
:104B0800012201F8012B1B220BF00EFA84F3118805
:104B1800F8BD45F67C20C2F201000468002C00F0C4
:104B2800FC80E068002818BF80472469002CF8D171
:104B3800F8BD40B20028A8BFF8BD20780DF10301E8
:104B4800012211F0FBFAF8BD41F20400CEF2000098
:104B58000268EFF311844FF0200181F3118848F6C1
:104B68009130802AC2F201001DD3D309B2F5804FDB
:104B780042F0800101701CD343F08001930BB2F521
:104B8800001F41704FD343F08001530DB2F1805F95
:104B98008170C0F0C580011D120F43F08003C370FF
:104BA800C0E0014646E00146BCE0411C41E0054644
:104BB800C6E0411CB5E0EFF311874FF0200181F307
:104BC800118848F69135C2F20105002029469368FC
:104BD800802B01F8010BC0F0EC80084643F08006FA
:104BE80000F8016BDE09B3F5804F1ED346F080064E
:104BF8004E709C0B8E1CB3F5001FC0F09B8044F0D8
:104C0800800088705C0DC81CB3F1805FC0F0CE8056
:104C180044F08006CE701B0F04310546C9E0811CA4
:104C280007E0451C8BE0811C7BE00D463346BFE066
:104C3800C11C144645F6B0220B46C2F2010203F825
:104C4800014B1268802A26D31C46D709B2F5804F3B
:104C580042F0800104F8011B16D347F08001970B3E
:104C68009E1CB2F5001F597012D347F08001570DF2
:104C7800DC1CB2F1805F997039D347F08001D9709C
:104C8800120F0433214606E019463A46234602E04D
:104C980021463A46334645F6A8270231C2F20107B3
:104CA8001A703C68802C26D30A4644F0800302F828
:104CB800013BE309B4F5804F14D343F080024A70F6
:104CC800A20BB4F5001F10D342F080028A70620D67
:104CD800B4F1805F0DD30B1D42F08002CA70240F1F
:104CE800194608E011461C4605E0023102E031464B
:104CF800CBE70331144601F8024B002201F8012CDE
:104D080018220BF011F945F6B82085F31188C2F284
:104D18000100006808B18047F8BDF8BD851C0EE0A9
:104D2800C11C1A4601F8012B0C220BF0FDF884F384
:104D38001188F8BD0546234631463AE0C51C194698
:104D48002B46802A03F8011B26D3194642F0800718
:104D580001F8017BD709B2F5804F16D347F08007D9
:104D68005F70970B9C1CB2F5001F12D347F08001AF
:104D78009970570DD91CB2F1805F15D347F08007A1
:104D8800DF70120F04330D4606E01D463A460B4607
:104D980002E00D463A462346A91C1A700D220BF074
:104DA800C3F886F31188F8BD2546EFE73546234654
:104DB80001460B70A81C1168802211F043FE0146C1
:104DC80048F69130C2F2010016220BF0ADF887F3D5
:044DD8001188F8BD89
:104DDC00F0B583B0044600680179012903D8204658
:104DEC0026210022A3E0666C426994F84010032946
:104DFC000AD3B368DF0704D0042905D313F00203E8
:104E0C0002D12046332191E00139092900F2888032
:104E1C00DFE801F005101D2886414F86889203209B
:104E2C0084F8400045F27401C2F2010104F10C0057
:104E3C00096E98E0032084F8400045F27401C2F238
:104E4C00010104F10C00096E01F57A718BE004216B
:104E5C0084F84010526B8069F17C904704F10C008F
:104E6C00B42180E0B168C1F341214FF64402C0F691
:104E7C000102515C71740CF08FFDA06440B186612D
:104E8C00717CC1770827082112F0CCFE002870D065
:104E9C0020468821A5E794F84D10002945D1D4F877
:104EAC008030072B41D9A16CCB6EDB790B840721A9
:104EBC00CEE7B168C1F341214FF64402C0F60102BE
:104ECC00515C7174A26CD17701F012F9A16C0028BD
:104EDC0088773FD08E6104F14C05002728460021CD
:104EEC00382201F05BFF052084F87500A36C206864
:104EFC00997FA4F8761084F84C70092184F840103E
:104F0C00717C00EB8100D0F8B400C4F8840004F18B
:104F1C000C0029464FF4FA6212F010FB242816D12B
:104F2C0003B0F0BD94F84D10B9B12046012203B086
:104F3C00BDE8F0400BF066BEA06C0021A16412F03D
:104F4C0093FE204603B0BDE8F0400BF084BE014652
:104F5C00204646E72046892143E70A2084F8400092
:104F6C0004F10C001E21002203B0BDE8F0400BF050
:104F7C0022BEA06C04F14C05C06ECDE90070284631
:104F8C000121002200230CF0EEFC707C216801EB67
:104F9C008000D0F8B400C4F8840020B1062084F856
:0C4FAC004000A36CB3E7204625211AE763
:104FB8002DE9F04F83B0056882462879022870D31E
:104FC800686B00286DD0D5F81480AC6B4FF0000BDF
:104FD8000026B146E17CA869D8F82C2090470746FE
:104FE800A060DAF8440084424FD0380713D545F260
:104FF8007400C2F20100016F69B18DF804B0CDF8F8
:1050080008B095F82D008DF80500E07C8DF80600B5
:1050180001A88847A76807F48470B0F5847F17D182
:10502800606908B112F0E2FD45F27400C2F20100B5
:10503800436D23B1E17C95F82D0000229847E17C6F
:10504800A869D8F83030002700229847A7600EE0FA
:1050580007F00300012808D1606910B112F0C6FDFD
:10506800A768A069062838BF2646F8070DD16069E9
:1050780010B112F0BBFDA768B80704D5E17CA86998
:10508800D8F838209047C4F818B009F101091C3441
:10509800686B81459ED326B19AF8400008B9B07C68
:1050A80010B103B0BDE8F08FB069042819D82846BC
:1050B8000CF053FC0028F4D1B0690221002808BF85
:1050C80001218AF840100130B06128460CF0C3FB7A
:1050D800CAF844600AF10C00012100220BF06DFDB2
:1050E800DFE70528DDD10620B061F37C14202221FA
:0850F800002205F029FFD4E7B6
:1051000038B545F28C04C2F2010400BF204612F00B
:10511000BBF960B92568284612F0BCF9D5E904321C
:10512000297BA8689847284605F086FDEEE738BD3C
:105130002DE9F04745F27408C2F2010898F868506A
:10514000E5B10446002700BF58F827A050460CF0F0
:10515000E7FBD14659F8086F4E4509D0B06820B139
:1051600020463146002200F00BF83668F4E700BF15
:1051700050460CF0E2FB0137AF42E5D1BDE8F087C5
:105180002DE9F84F8A465AF8106F564508BFBDE81A
:10519000F88F144600F1100BD0E9025745F28C0845
:1051A000C2F2010808F1080930465946012200F010
:1051B000FFF980B9182012F09FFA60B1014604731C
:1051C00087600561306A4861404612F06BF94846D5
:1051D00001210CF0E1FC36685645E5D1BDE8F88FB9
:1051E00070B5521A4FF00B0E4FF0400C0CFA0EF344
:1051F0009A420DD300EB8E040D4654F8086F00BFA1
:105200002E602560D21AE9189A422E460D46F7D232
:08521000BEF1010EEAD270BDEF
:105218002DE9F043B3B02D293DD89146044647F611
:10522800C400C0F6000000EBC4004A0950F8220090
:1052380001F01F02D040C0072DD0984648F27450A4
:10524800C0F60100CAB200BF10F8013C8B4202D878
:105258000378934201D20A30F6E7471C384601F03A
:1052680039FD054601AE304639462A4601F062FD51
:105278003A2070557019202141700230C5F1C601DD
:105288004A4643460AF0CCFC01A814B112F0D4F8FF
:0C52980001E00BF054FC33B0BDE8F083E3
:1052A4002DE9F04782B00C46064624204870087861
:1052B400B76806280CD194F8281049B3F06800BFE9
:1052C400002800F0DE80427C8A4226D00068F7E79E
:1052D40097F82410032901D22525D3E02325082893
:1052E40000F2D080DFE800F02205053E4D5DCE6B74
:1052F4008400F068002800F0C48094F82810372552
:10530400427C8A4200F0868000680028F8D1B9E027
:10531400B86DC0684169F86D04E04168C068896887
:10532400C9684969896988470546ABE040F69150E8
:10533400C0F60100276207F15801C4E90301386E81
:105344000130386638460CF0B9FB054630B9F868C8
:105354004169F86D0A6A214690470546242D61D1BA
:1053640024258FE0F068002800F08B8094F8281042
:10537400372500BF427C8A4275D000680028F9D1E5
:1053840080E0BD69384612F033FC0020A86128682B
:1053940000284FD0F868E97CD0E90520926B90474B
:1053A40051E0F06800286CD094F82810372500BF2D
:1053B400427C8A426AD000680028F9D162E094F8FD
:1053C4002850707C854241D07169F06891F8028060
:1053D400002800F0A2800021027C0068002A18BF87
:1053E40001310028F8D1002900F0978029252EE00A
:1053F400B86994F8281002685AB3FA680129536905
:1054040000F0C78069BBC17C9069DB6B002500227A
:10541400984737E0817C012933D040F6AB51C0F680
:10542400010128E06570386E0138386638460CF0A2
:10543400E2FA27E045F27400C2F20100806D10B177
:10544400816828468847F86812F0B2FB0025657029
:1054540018E045F27402C2F20102926D0AB1926937
:10546400904723250EE0817C01290AD1606247F22E
:10547400D571C0F60101C4E90310214612F086F982
:1054840052E73725284602B0BDE8F0874168D1F8D5
:1054940008806062382012F025F9002800F080802E
:1054A4000646474694F8285057F8589F4FF0000A8C
:1054B4000021382201F076FC40F66560C0F6010058
:1054C400C6E90307B5854FF48170C6E90894B06254
:1054D40086F800A048460CF0F1FA05462428D1D0FD
:1054E400B5B9D8E917010131C8F86010D9F80C1022
:1054F40049690A6A3146904724283FF431AF05468A
:10550400D8F860000138C8F8600048460CF073FA17
:105514006570304605F08EFBB4E701AA6B46304651
:1055240029460BF024FC0198E0B3B574382012F03E
:10553400E1F8C8B307464462B0687D85A7F82C80BB
:1055440040F60131398540F69F61C0F60101C7E993
:105554000316002139703862B068016E01310166AA
:105564000CF0ACFA054638B9B068C1684969C06D39
:105574000A6A394690470546242D3FF4F1AEB068D7
:10558400016E013901660CF036FA384605F052FB1B
:105594005DE7C17C9069DB6B01229847002571E7C8
:0C55A40088256FE7232552E7882550E793
:1055B00010B5002AD0F808C0D0F814E054D0002963
:1055C0005CD00B88DA0704D04A88BCF82E009042E1
:1055D00052D1980704D58888BCF8302082424BD13C
:1055E000580704D5C888BCF83220824244D1180735
:1055F00004D5087A9EF8022082423DD1D80604D50F
:10560000487A9EF80520824236D1980604D5887AD9
:105610009EF8062082422FD1580604D5C87A9EF8FB
:105620000720824228D113F4C06F27D0888A18B38C
:10563000421E03F4806E03F4007300BF33B1C868E8
:10564000BCF82E4030F81200844209D1BEF1000FA0
:1056500014D00869BCF8304030F8120084420DD0F4
:105660002220013AEAD210BD9CF82A20092A03D050
:105670009EF80520092AA2D1222010BD002010BDCD
:105680002DE9F04F85B0019288460446806C049065
:10569000B4F84C00039004A803A902AB4FF0FF320A
:1056A00005F022FB98B3074645F27406C2F20106E4
:1056B0000DF110090DF10C0A0DF1080B242012F068
:1056C0001BF868B3054684600298C5E90570B06CA4
:1056D0000130B0642862B878404504BF019868740E
:1056E000284600F027F8E8B9AF6807F1100029460E
:1056F00011F0D8FEB88B0130B883484651464FF0C0
:10570000FF325B4605F0F0FA07460028D6D1204666
:1057100012F038FA00272046002105F0B1F805E024
:10572000882703E0074628460BF093FB384605B070
:04573000BDE8F08F51
:105734002DE9F04F85B00446417C04AA03AB0BF07D
:1057440016FB0498002872D090F80480B8F1000F7A
:105754006FD000BF04A803A900F0A0FF002866D002
:10576400D4F808900546D9F80CB0182011F0C2FFFF
:10577400002863D00746C0E90145E878AE7900F017
:10578400030A87F812A0281D0BF0F0F9BAF1010FF3
:1057940012D00122BAF1030F26D199F81F10032960
:1057A4001ED1A6F1110111F1100F26BF711E02FACC
:1057B40001F6202618E000BFA6F1110111F1100F27
:1057C40038BF0826711E012202FA01F699F81F104B
:1057D400C146032928D1C0F3C1210131F97406E07F
:1057E400002E14BFF6002026C1466FF3DF20AB78ED
:1057F400FE82B8827B74DBE90521A568D2F810C06B
:10580400AA7FED7F1FFA86F880B2CDE900080295E1
:1058140008465146E047F86068B1E0683860E760E0
:10582400B9F1010896D104E0FA74F600DFE73020FC
:1058340005E0002003E0384605F0FCF9892005B0B6
:04584400BDE8F08F3C
:10584800F8B5C568BDB1044641F65516C0F601065F
:10585800A068C76838460BF0FEFF7969E8684B69AD
:1058680031463A4698472868E060284605F0E0F94E
:08587800E568002DECD1F8BD3C
:105880002DE9F8430446006800F5A06600274FF0B4
:1058900040484FF0030900BFE51912F043FB2946C9
:1058A00011F8480FD0B1ED6CE87A48B3032812D351
:1058B00084F83490052802D83268002A28DB204674
:1058C0000BF034FB12F03CFB284626210BF04BFB7F
:1058D00012F028FBE87A0130E87211E03068002805
:1058E0000EDAC6F8008095F84A0013289CBF0130F4
:1058F00085F84A0094F8340010B984F8349000BF59
:1059000012F01EFB40372036B7F5407FC4D104E0CB
:10591000316841F040413160DDE720460BF036FB55
:1059200094F8310050B30025204600210BF041FBD4
:10593000C00721D194F8340000B3013884F8340052
:1059400000061BD12068E943856141614160204622
:1059500000F01EF8204601210BF058FB2068D0F81B
:105960004014C9045EBFD0F8401441F48051C0F81F
:10597000401484F8345001E084F83150204611F08E
:1059800051FF04F114006421BDE8F8430CF004B9A0
:1059900070B50446006894F830100139B1FA81F10D
:1059A00049098901C1600021C0F8001E642012F07D
:1059B00013FB206801690029FCDA01210161142030
:1059C00012F00AFB206800BF0169C907FCD1322030
:1059D00012F002FB2068C16841F0005141F0D8711B
:1059E000C160642012F0F8FA94F83000012840F207
:1059F0000035C0F2800540F20026C0F200160CD13E
:105A0000206843F64741C2681143C160816B41F48D
:105A100080318163642012F0DFFA20684FF4007156
