:020000040800F2
:1000000000000820994701081796000895900008FD
:1000100000000000000000000000000000000000E0
:100020000000000000000000000000007B960008B7
:1000300000000000000000000D8F0008158A010874
:10004000EB9600086B970008AB970008D397000861
:100050003B9800086F980008E3990008779A000819
:10006000179B0008CF9B0008EB9C00086B9D0008C5
:10007000B39D00089B9F00086BA0000893A0000898
:1000800003A20008CFA20008EBAA00089FAB00085B
:100090002FAC0008F7B20008ABB400085FB5000849
:1000A0009BB50008E7B500082FB6000897B6000812
:1000B000B7B60008D7B600085FB700081BB800083D
:1000C00093B80008E3B800083FBA000897BA0008E0
:1000D000D7BA00083BBB00088FC00008E7C1000882
:1000E0002FC20008AFC80008A3C90008D3C9000880
:1000F0004BCC0008CBCC00080BCF000827D300085E
:1001000087D50008DBD5000823D6000823D70008D0
:100110004BD7000873D70008FBD700080FD800089A
:100120009FD80008C7D9000887DA0008FFDA00085E
:10013000BBDB0008517601084BDC00088FDC0008AF
:10014000E7DC0008E9DC0008EBDC0008099A01089C
:10015000EDDC0008EFDC0008F1DC0008F3DC00084F
:10016000F5DC0008F7DC0008F9DC0008FBDC00081F
:10017000FDDC0008859A0108FFDC000839DD000875
:1001800001DD000803DD000805DD000807DD0008CB
:1001900009DD00080BDD00080DDD00080FDD00089B
:1001A000096C010811DD0008B714010813DD00080F
:1001B00015DD000817DD000819DD00081BDD00084B
:1001C0001DDD00081FDD000821DD000823DD00081B
:1001D00025DD000827DD000829DD00082BDD0008EB
:1001E0002DDD00082FDD000831DD000833DD0008BB
:0801F00035DD000837DD0008D1
:1001F800034C206804348047FBE70DF09AFDFEE7C6
:040208008C5E1108EF
:10020C0038B5044614F018FB014600BF002051B16C
:10021C000D46A14208BF38BD284616F093FB016A73
:08022C00A1422846F2D138BDC1
:1002340010B50C46002158B154B100BF16F086FB2E
:100244008069A04203D00028F8D1002100E00121F8
:04025400084610BD8B
:100258002DE9F04F85B00DF1040C8CE80E00C6694D
:10026800002E56D0304611F075F80490816AC58882
:100278008488B0F90030B0F90290039801F4207234
:10028800802A824605D0B2F5207F8246019818BFA1
:10029800824601F4A061B1F5807F0E9A934606D09C
:1002A800B1F5A06FDDF838B0029A18BF93461FFA6F
:1002B80089FC99B2084407B2F91A0CEB02000FFA4C
:1002C80080F8A8EB090251EA020006D030460094F3
:1002D8001C460EF060FD2346009C04EB0A0005EB6B
:1002E8000B0109B2A1EB080100B2C01B2AB2A9EBAD
:1002F80002020A4421B2591A014451EA020002D00A
:1003080030460EF0D9FD0498066A04A816F026FBBC
:08031800A6E705B0BDE8F08F77
:1003200044F6CC32C2F2000213685BB183420AD0B9
:10033000D3F800C0BCF1000F04D0844519466346D1
:10034000F6D101E070470021006809B108607047EC
:0803500000B9002010607047A5
:10035800F0B585B00C46054601A891E8CC00CCC0A4
:100368000D2001900395284614F0AAFC80B101AE37
:100378002F4600BF38460EF02AFD074618B10494F0
:1003880031460EF056FA384614F09AFC0028F1D19E
:0C039800284621460EF04DFA05B0F0BDDD
:1003A400F8B5044615F0B2FC684610F07EF800B3C8
:1003B40006466D463046012110F09DF8014600982E
:1003C40080B179B116F0C2FA4068A0420AD1009F08
:1003D4003046294615F0F8FB0646384614F088FAEC
:1003E40005E000BF3046294615F0EEFB0646002E18
:0803F400E0D110F097F8F8BD0C
:1003FC0070B582B0E0B10C46054615F083FC28467A
:10040C0010F0A6FF0190C56901A816F0A5FA00BF6F
:10041C0085B1284614F0B0FBA0420DD028462146E9
:10042C0000F012F850B9284616F08CFA056AEFE77E
:10043C00002606E0002602E02E4600E0064610F0FC
:08044C006DF8304602B070BDEE
:1004540070B50C46054616F079FAC6694EB13046B9
:1004640014F08EFBA04217D0304616F06FFA066ADD
:10047400F4E7284616F06AFAC56900BF4DB128466C
:100484002146FFF7E5FF30B9284616F05FFA056A02
:0C049400F4E7002600E00646304670BD8C
:1004A00001B32DE9F04383B01C4691460F468046C8
:1004B000084610F053FF06460090856AA80729D524
:1004C00001A8414632460FF075FE18B340F6010010
:1004D0002840012807D1B169326A01A82346FFF7F5
:1004E000DFFF05E0704701A93846224614F034FCCE
:1004F000F6697EB14E450DD001AF00BF304639469A
:10050000224609F067F9304616F022FA066A0EB163
:100510004E45F3D1684616F025FA03B0BDE8F083E6
:10052000D1B32DE9F04184B00E46044610F016FF19
:10053000054600202862AE610395304610F00EFF9C
:1005400007460290C66946B3D5F82880304610F0B9
:1005500005FF019018F0080803D190F82800000763
:1005600024D402A816F0FEF901A816F0FBF93046D3
:1005700016F0EEF9019050F8206FA6B1304616F053
:10058000E7F9B8F1000FF5D190F828100907F1D577
:10059000019804622E6207E07047FC6103A816F020
:1005A000E1F902A80BE0046003A808E0FC612E62F8
:1005B00003A816F0D7F902A816F0D4F901A816F08E
:0805C000D1F904B0BDE8F0819F
:1005C80048B338B5044610F0C5FE0546009090F8CB
:1005D800280080071BD5686A50B144F6D431C2F2AE
:1005E80000010968A14203D014F0CAFF0020686224
:1005F80020460EF0FBFB50B1044600BF2046FFF733
:10060800DFFF204616F0A0F9046A002CF6D16846F0
:0806180016F0A4F938BD70478B
:10062000002800F09880F8B5044615F071FB2046CC
:1006300009F0BCF8002800F08B80204609F0FEF895
:10064000054620460B210EF0EAFC2046FFF7AAFEE5
:10065000204610F083FE06460090406A08B114F070
:1006600093FF44F6B430C2F200000021016044F66A
:10067000E030C2F2000044F2EC72C2F20002006804
:1006800052F82030A34208BF42F8201044F66C0113
:10069000C2F2000151F82020A24204BF002241F81A
:1006A000202044F6CC30C2F20000006838B10021AE
:1006B0004268A24208BF416000680028F8D1204685
:1006C00007210EF0BEFBF069FFF7AAFFF0690028D2
:1006D000FAD120460EF07CFC44F6EC30C2F2000069
:1006E000006800BF50B116F033F907464069A042D8
:1006F000F8D1204616F02CF940697861B06AC1073C
:1007000006D044F6DC31C2F200010A68013A0A6000
:10071000800606D544F64640C2F200000188013941
:100720000180684616F01EF944F64240C2F200000D
:10073000018801390180204616F078F9002D07D490
:1007400044F62C00C2F2000050F825000EF01EFD09
:080750000FF0EAFEF8BD70474E
:100758002DE9F04788B0804610F0FCFD02ADD0E9E5
:100768000212C5E9001201900769866A01A816F00D
:10077800F5F8002F47D016F0020044D040462E214D
:100788000EF015FC44F65944C2F2000420780130FA
:100798002070F0041FD40DF10809484614F000FC3D
:1007A80050B34FF00F0A47F6EC55C2F20005002788
:1007B80004AE00BFCDF81C90CDE904A810F077FC7A
:1007C80028683146476440460EF014F809F04CF8A2
:1007D8000028EFD110E007950F20CDE9040810F0AC
:1007E80066FC47F6EC50C2F2000000680021416444
:1007F80004A940460DF0FEFF2078013820704046DD
:0C0808002F210EF0D4FB08B0BDE8F087F3
:1008140038B5044610F0A0FD0090806A40F601014E
:100824000840012805D0684616F09AF820460EF0D4
:10083400EAFC44F6DC30C2F200000068E8B120466D
:1008440000F066F9204616F081F88469ACB100BF67
:10085400056A002DF6D0284616F078F8806A00F074
:100864000300032802D128460EF0E0FC284600F0DD
:0C0874004FF9284616F06AF8EAE738BD94
:1008800010B5044600680F280BD00E2829D1E06867
:100890004168012918BF10BD0068BDE8104010F084
:1008A00069B86168002044F62C02C2F2000200BF61
:1008B00052F820308B4204D001301028F8D14FF08C
:1008C000FF3044F6AC01C2F2000151F820004CF6B2
:1008D000EF51C0F2AB01884203D010F0C1FB15F01C
:0C08E0002DFE2046BDE8104014F068BC5E
:1008EC0038B544F67441C2F200010020087044F699
:1008FC005741C2F2000144F2EC72087044F6CC315C
:10090C00C2F20001C2F20002086044F66C01C2F2AD
:10091C000001002341F8230042F823000133102B7F
:10092C00F8D144F6D830C2F200000025056044F638
:10093C00DC30C2F2000047F6F454056044F6F430A3
:10094C00C2F20000C2F20004056044F6F830C2F2B4
:10095C0000000021056044F6B430C2F200001822F9
:10096C000560236840F29000C2F20000984744F6FC
:10097C00D030C2F200000021056044F62C00C2F217
:10098C00000000BF40F8215001311029FAD1236832
:10099C0044F2FC20C2F20000002180229847236818
:1009AC0044F27C30C2F20000002180229847236878
:1009BC0044F27C20C2F200000021802201B0BDE88C
:0409CC003040184758
:1009D0002DE9F04184B000284FD014460D4606465C
:1009E0000DF10C086F4600BF304610F0B7FC014611
:1009F0000390866AB00739D524B1384622460FF0F5
:100A0000D9FB02E003C9C7E900012846394615F0C1
:100A10000FFE58B3F007039814D1B0F9020024B1C7
:100A2000B4F902108842D8BF0846B5F902108842CE
:100A300015DDB5F90610BDF90200884216DC013853
:100A4000E88013E0C66900BF86B1304629463A46C1
:100A5000FFF7BEFF304615F07BFF066AF4E7B5F9F5
:100A60000610BDF906008842B8BFE8800398066A00
:100A7000404615F077FF002EB6D104B0BDE8F081F6
:100A80002DE9F04383B000283FD091460D4604463F
:100A900000270DF108086E46204610F05FFC014665
:100AA0000290846AA00717D5B9F1000F04D0304630
:100AB0004A460FF07FFB02E003C9C6E90001284661
:100AC000314615F0B5FD38B1E0070DD1BDF8040091
:100AD00001302880012700BF0298046A404615F0C3
:100AE00041FF002CD8D111E00298C469002CF3D04A
:100AF000204629463246FFF7C3FF002818BF0127CA
:100B0000204615F025FF046AF0E70027384603B0B9
:040B1000BDE8F083C9
:100B14002DE9F04383B0814610F01EFC019090F85B
:100B24002810890742D5C769002F3FD001AD02AE16
:100B3400384610F011FC0290816A01F00301032988
:100B44002ED10199083115F071FD38B30198D0E91F
:100B54000284284615F004FF304615F001FF38469C
:100B64000EF064FB70B1384615F0F0FE0290384682
:100B7400FFF7CEFF384615F0E9FE0290484615F01F
:100B8400E5FE0190484610F0E7FB0190384610F06E
:100B9400E3FB0199C1E90284029001E0029800BFDD
:100BA400076A304615F0DCFE002FC1D101A815F00C
:080BB400D7FE03B0BDE8F08399
:100BBC002DE9F04F9BB00D92002800F07C83884605
:100BCC00054610F0C5FB1690446916A815F0C4FE36
:100BDC0028460EF036FF092847F6EC5AC2F2000AF6
:100BEC00CDF84C80C0F29180002C40F08E80834672
:100BFC00284610F0ADFB04461A90B0F90800159089
:100C0C00B4F90A80E068119054F8180B07691AA817
:100C1C0015F0A2FEDAF8000044F6EC01C2F2000175
:100C2C00407C51F82010D1F810A0D7F80490DAF8D5
:100C3C00006014F027FE0421112838BF0221092876
:100C4C0038BF0121CDF850A01297574500F0CC8049
:100C5C00BBF1100FDDF84CA000F0D780BBF1200FDA
:100C6C0040F029830F461598484310F062FB00288A
:100C7C0000F02183129010F06BFB1890284610F0B6
:100C8C0067FB1A9000F1180B14980069002800F00B
:100C9C005A834FEAC7090125042F0BD0022F11D01C
:100CAC00012F1BD1DDE91406189904695846324608
:100CBC0001230EE0DDE91406189904695846324602
:100CCC00042306E0DDE914061899046958463246F7
:100CDC000223A0470BEB860B01E000BF159E189872
:100CEC00CDE90055CDF808900021CDE90310059110
:100CFC0050460D9C21463246012301F067FB01341E
:100D0C00B8F101080D94C7D15EE3284610F020FB22
:100D1C0006461990C0681190D6E90449B6F908B096
:100D2C00B6F90A00089056F8180B0169DAF80000B9
:100D3C000A9149680B91407C14F0A4FDDAF800107C
:100D4C000F90487C0FF05FF8804619A815F004FE50
:100D5C000420112C38BF02201294092C38BF01201A
:100D6C000C90284614F0ECFADAF800104A7C01EBEF
:100D7C008201896D05460F69806880470FF069F81C
:100D8C0008282DDCCDE914894FF0010909FA00F48B
:100D9C00A00010F0CEFA002800F0B980B246012C69
:100DAC00C8BFA146064615F0CDFD8046002400BF05
:100DBC006968204688473968884748F82400013418
:100DCC00A145F5D13446304615F0BCFD05461299C7
:100DDC00564647F6EC5AC2F2000ADDE914899BE04C
:100DEC0000240025129997E000200121CDE9001183
:100DFC00CDF808B01199CDE90314059013980D990D
:100E0C00159A434601F0E2FA55E215980F4648430D
:100E1C0010F08FFA002800F04E82119010F098FA22
:100E2C001890284610F094FA1A90149900F1180BA7
:100E3C000969002900F0428212994969002900F0E1
:100E4C003D82B0F90800800010F073FA0028159D5F
:100E5C0000F0C282044610F07BFA1990002800F0D2
:100E6C00BD8282461094FE004FF00109042F12D06F
:100E7C00022F1FD0012F2FD11298189C4569159A5B
:100E8C00584651460223A847DDE91402214605695C
:100E9C00504601231CE01298189C4569159A584637
:100EAC0051460223A847DDE9140221460569504644
:100EBC0004230DE01298189C4569159A5846514622
:100ECC000223A847DDE91402214605695046022396
:100EDC00A847159D0BEB450B1898CDE90099029688
:100EEC000021CDE90310059113980D9C21462A464B
:100EFC00012301F06BFA0134B8F101080D94B5D15E
:100F0C0019A815F029FD109815F08AFD66E2002449
:100F1C0000251299DDF854900B98CDF824B040457B
:100F2C00149500F0EF80DAF80000407C0EF074FFAE
:100F3C000E904FEA8B0010F0FCF91090002800F096
:100F4C00B781B9F1000F00F09281159607944846CD
:100F5C0010F0FEF90746189008980128C0F2CD80D1
:100F6C004FF0000A0126D146CDF85CA0B86817A94D
:100F7C00436938464A469847584513D1109810F0A3
:100F8C00E7F901461A90129B092B3DD30B98009060
:100F9C000E98019015980F9C5A46234600F026FA9D
:100FAC003CE000BF0546129801284FD1002DDDF81A
:100FBC004CB0DDF8548000F095800D9809EB0004DE
:100FCC00179800F00701C21700EB527208EBE2020F
:100FDC00CDE900660296119BCDE90332149ACDE956
:100FEC000521584421462A46012301F007F9179898
:100FFC0028441790B86817A9436938464A46984759
:10100C0005460028DCD16DE00F9C0A98CDE9004024
:10101C000E98029015985A4608F0A2FE1A98CDE93F
:10102C00006602940021CDE903108A4605910D98C3
:10103C0009EB000113985A46012301F0C7F91AA8CD
:10104C0015F08AFCDDF854804CE000BF002DDDF873
:10105C00548047D00D9809EB000400BF109810F095
:10106C0077F901461A9017980C9A129B00FB028094
:10107C00092B09D30B9A0092DDE90E2B01922A461B
:10108C005B4600F0B3F909E0DDF83CB00A9ACDE913
:10109C0000B20E9A02922A4608F062FE17981A992C
:1010AC00CDE90066CDF808B00022CDE903219246C7
:1010BC0005921399084421462A46012301F086F92A
:1010CC001AA815F049FC179828441790B86817A966
:1010DC00436938464A46984705460028DDF854804F
:1010EC00BCD100BF11988044CDF8548009F101099E
:1010FC00DDE9080B81457FF437AF18A815F02CFCFF
:10110C00079CC3E0B9F1000F00F0C4800794484677
:10111C0010F01EF90446189008980128C0F2A2801D
:10112C000DF15C09002700BF00201790A06849460C
:10113C00436920463A46984780460998804523D112
:10114C004FF000080025DDF844B082467819A168FC
:10115C00421C4B69204649469847D84401355045B6
:10116C00F4D00120CDE900001298CDE9020B1498BF
:10117C00CDE904600D983918139852462B4601F0AE
:10118C0025F97819471E67E03146129E012E31D1A0
:10119C00B8F1000F5CD00D9838441090119D15914A
:1011AC004FF0010BDDE9136A1798159B00F007014E
:1011BC00C21700EB527203EBE202CDE900BBCDE9A2
:1011CC0002B5CDE9042A0691304410994246012318
:1011DC0001F014F8179840441790A06849464369E9
:1011EC0020463A46984780460028DDD1A846159EF1
:1011FC0032E000BFB8F1000F2AD0DDE90CA0119D40
:10120C0038441590DDF84CB0894600BF179800FBA8
:10121C000A910122CDE90022CDE9026504911499CD
:10122C000591584415994246012301F0CFF81798BF
:10123C0040441790A06817A9436920463A4698473E
:10124C0080460028E2D1A8464E460DF15C0903E029
:10125C00DDF844800E4600BF4644013708988742AB
:10126C00FFF662AF18A815F077FB079C20E0012071
:10127C00CDE90000129802901198CDE9030605956E
:10128C0013980D99089B5A4601F0A0F8109815F088
:10129C00C7FB0DE00120CDE9000002911198CDE9CA
:1012AC000306059513980D99089B5A4601F08EF884
:1012BC00204615F0B5FB1BB0BDE8F08FF80014907C
:1012CC00DDF854A0042F0FD0022F19D0012F22D1FA
:1012DC00189C00BF3BF8020BC847B04704F8010B41
:1012EC00BAF1010AF6D116E0189C00BF3BF8020BCC
:1012FC00C847B04744F8040BBAF1010AF6D10AE02A
:10130C00189C00BF3BF8020BC847B04724F8020BEF
:10131C00BAF1010AF6D118980121CDE90011DDE9E5
:10132C00141A02910021CDE90310059113980D9C1C
:10133C0021465246012301F049F80134B8F1010865
:10134C000D94BFD14AE0F80014904FF0010900BF92
:10135C00042F10D0022F19D0012F20D1189CDDF8AA
:10136C0054A000BF5BF8040BB04704F8010BBAF1B2
:10137C00010AF7D113E0189C159D00BF5BF8040B14
:10138C00B04744F8040B013DF8D108E0189C159DBA
:10139C005BF8040BB04724F8020B013DF8D1189808
:1013AC00CDE90099DDE9141202910021CDE9031079
:1013BC00059113980D9C2146012301F007F8013487
:1013CC00B8F101080D94C3D11AA815F0C5FA18A8E4
:1013DC0015F0C2FA12986CE7002019901AA815F0B3
:0C13EC00BBFA18A815F0B8FA119862E7D7
:1013F8002DE9F0471F4691468A4680460024DDE9DC
:10140800086500BF38F81400B047A8474AF8240018
:101418000134A145F6D11F2F88BFBDE8F08750469B
:0C14280049463A46BDE8F04701F05EB9C5
:10143400A8B370B584B016460D46044614F066FC95
:1014440020460FF089FF03904FF20101CFF6FF71A0
:101454008D4204BFB0F90450B0F90660ADF80450F1
:10146400018929440139ADF80810ADF806604089B6
:1014740030440138ADF80A0003A815F071FA01A848
:1014840013F090FD38B12046294632460EF03DFA5D
:1014940008F0ECF9F6E70FF045F804B070BD7047BA
:1014A4002DE9F8439846154689460746089C00BF2F
:1014B400B8684946466838462A464346B047013527
:0814C400013CF5D1BDE8F883FD
:1014CC002DE9F04F99B00E9247F6EC56C2F2000699
:1014DC00894631681690D1F89800002800F0E58311
:1014EC001F460FF035FF05461890406918B10FF0F4
:1014FC002FFF834601E04FF0000BCDF85CB0E8689D
:10150C00109018A815F028FA269800EB0904BBF1E6
:10151C00000F0BD03068007C800707D42298009015
:10152C00584621460E9A3B46FFF7B6FF259D0E996D
:10153C0020460EF049F98246DDF88C900F97B9F1F0
:10154C00180F0D946FDB22980128C0F2A883B80005
:10155C0013904FF0000800BFBBF1000F09D0DBF86F
:10156C0008000E99476808EB010258460D990F9B2D
:10157C00B84716980069C168CDE914A551B147F672
:10158C00F850C2F20000139A036850462946984757
:10159C003DE000BF41684FF07F40884781460F9F78
:1015AC007E1E0020002400BF55F8201081EA09019E
:1015BC00B1F1807F38BF0134090E03D1864200F1AE
:1015CC000100F1D174B147F6F850C2F20000A2004C
:1015DC0003685046294698473F1B05EB84050AEBE8
:1015EC00840A12E055F8040B020E0BD047F6F053A8
:1015FC00C2F20003DAF800101B6840F07F409847F5
:10160C00CAF800000AF1040A3746002FC8D1109816
:10161C00DDE914A582442498054408F101082298B8
:10162C00804599D13BE3B9F1100F75D0CDE914A5E4
:10163C00DDF89CA0B9F1080F40F0A3802298012896
:10164C00C0F22D834FF0000947F6F855C2F20005A1
:10165C0030680E99007C09EB010800F00300BAF128
:10166C00000F11D0022827D0002847D10020DDE937
:10167C00143200BF115C5AF8211043F820100130CD
:10168C008742F7D13AE000BF90B3022836D100264A
:10169C001598805D60B11499BBF1000F41F82600DC
:1016AC0006D0DBF80800A119036858464246984753
:1016BC000136B742ECD116E0002600BF1598805DCC
:1016CC0070B114995AF8200041F82600BBF1000FB4
:1016DC0006D0DBF80800A119036858464246984723
:1016EC000136B742EAD147F6EC56C2F2000605E0E5
:1016FC002B68DDE914013A46984700BF10981499FD
:10170C0001441491159824990844159009F1010984
:10171C00229881459CD1C2E222980128C0F2BF8256
:10172C004FF000080E9808EB0009BBF1000F08D031
:10173C00DBF808000F9B4768584621464A46B847D5
:10174C000F9F00261698016935F8160049688847DE
:10175C004AF82600BBF1000F06D0DBF80800A119EF
:10176C00036858464A4698470136B742EAD1109862
:10177C0082442498054408F1010822988045D1D16F
:10178C008DE2BAF1000F04BF47F6882AC0F6000AB2
:10179C0022980128C0F283822699C1F10800069094
:1017AC0048000890C1F104000590781E0490601C5C
:1017BC000290C1F102000390880007900024D846E3
:1017CC00CDF844A0B9F1040F46D0B9F1020F00F0E6
:1017DC007380B9F1010F40F0C3813068D0F89800E4
:1017EC000FF0B6FD189015980E990078214445F22B
:1017FC00C458C0F61108129118F800003168269AE6
:10180C0020FA02F9087C0D9A00F00300DFE800F0E2
:10181C0084029E02169800698068804720F07F4001
:10182C003946DDE91423069E8E4288BF0E463746A4
:10183C005FEAC9751EBF1568454015604FEA590926
:10184C000432013FF4D1891B00F0EA8013F8017FC8
:10185C00082618F80790E7E7159831680078079A7A
:10186C0000FA02F5087C10F0030000F0E180022879
:10187C0000F0F080012840F07381DDE91420394636
:10188C00039F00BFFBB29942B8BF0F463B4600BF57
:10189C00EEB2402E22BF166886F0FF0616602D01B0
:1018AC000432013B1E06F3D1FBB2C91A00F01381BE
:1018BC0010F8015F0227E5E7159831680078089A5F
:1018CC0000FA02F6087C10F0030000F0E780022812
:1018DC000D9D00F00281012840F03781DDE91420D4
:1018EC003946059FFBB29942B8BF0F463B4600BF35
:1018FC00F5B2402D22BF156885F0FF051560B600C6
:10190C000432013B1D06F3D1FBB2C91A00F0E28090
:10191C0010F8016F0427E5E73846DDE91412069F3D
:10192C00874288BF07463B4609F00106013B5AF83F
:10193C00266041F8046B4FEA5909F5D1C01B6FD0F2
:10194C0012F8013F082718F80390E9E7DAF80400C9
:10195C0013903B46DDE91476069D09949D4288BFA1
:10196C001D46BBF1000F2DD0B9F1000F3CD00C93EC
:10197C00CDE90A56013D0024B84600BF16195FEAAE
:10198C00C9700FD0DBF80800314603685846DA46B8
:10199C009346129A98475A46D346DDF844A01398BA
:1019AC0047F8240008F10408A54227D001345FEA67
:1019BC005909E3D122440A9D281B099CDDE90B63DC
:1019CC0014E000BFB9F1000F28460AD05FEAC971D4
:1019DC001CBF139939600437013819D05FEA5909D3
:1019EC00F4D107EB800713E0B8462846024408EB15
:1019FC00800745F2C458C0F6110809E0721C47462E
:101A0C00099C0C9B45F2C458C0F61108DDE90A5636
:101A1C005B1B05D016F8010F082518F800909DE700
:101A2C0018A814F099FFD8460F9FDDF88C9093E01E
:101A3C002698002800F0FF803C2000EA9500159ABB
:101A4C005AF800101498DDF810C040F8041B12F876
:101A5C00015FF3E00E982044139026980994002817
:101A6C0000F08C803C2015F0F00F0FD000EA9500B0
:101A7C0014995AF800000860B8F1000F06D0D8F895
:101A8C0008000D990368139A40469847DDE9141035
:101A9C00049F10F8015F029C0E1D72E0DDE914201A
:101AAC003946059FFBB29942B8BF0F463B4600BF73
:101ABC0006F0C0052D09B6005AF8055042F8045B33
:101ACC00013B1D06F4D1FBB2C91A03D010F8016F0B
:101ADC000427E7E7D8460F9F3EE00E98099404EBE5
:101AEC000009159812903C46149FDDF8148000BF35
:101AFC005FFA88F08442B8BFA046CDF84C8000BF96
:101B0C0016F0C00F0ED0C6F38110BBF1000F5AF8BF
:101B1C002000386006D0DBF80800294603685846D8
:101B2C004A469847B60001350437A8F101085FEA28
:101B3C000860E5D11398C0B2241A08D012984FF05F
:101B4C00040810F8016F1290D2E7D84604E0D8468A
:101B5C000F9FDDF88C90099C47F6EC56C2F20006FC
:101B6C0010981499014414911598249908441590CF
:101B7C000134229884427FF425AE90E00D9CDDE97F
:101B8C001460022F3EDB00F1010900BF15F0F00FCD
:101B9C0018D0E8B23C2101EA9000B8F1000F5AF8D5
:101BAC000000306020D0D8F80800139A0368404633
:101BBC002146984715F00F001CD05AF82000706091
:101BCC0009E000BF15F00F0014D05AF82000706027
:101BDC00B8F1000F0ED0D8F80800611C0368139AF6
:101BEC004046984706E000BF15F00F001CBF5AF89E
:101BFC002000706002340836032F19F8015BA7F13E
:101C0C000207C3DC002FA3D0E8B210280F9FDDF829
:101C1C008C903ED305F0F0008008B8F1000F5AF814
:101C2C000000306033D0D8F80800139A036840469F
:101C3C00214698472DE0DDE91402BC46BCF1020FA9
:101C4C001ADB01324FEA5C033C2100BF01EA950725
:101C5C0005F00F065AF8077007605AF826704760AF
:101C6C000830013B12F8015BF0D10CF0010C0F9F16
:101C7C0047F6EC56C2F20006BCF1000F3FF470AF11
:101C8C0005F0F00189085AF80110016068E74FF07F
:101C9C00000847F6EC56C2F20006099C60E7BBF15F
:101CAC00000F02D017A814F057FE19B0BDE8F08F42
:101CBC002DE9F04782B0994647F6EC55C2F2000583
:101CCC00924628688846D0F898000FF041FB0446ED
:101CDC000190406918B10FF03BFB064600E000266E
:101CEC000096404651460DF06FFD29680746087C6A
:101CFC00C00719D1086CE468056896B3D145D8BF04
:101D0C00D14609F1010900BFB0684146036830466D
:101D1C00524698473D6027440AF1010AD145F3D158
:101D2C0001A814F019FE27E0D1452068D8BFD14690
:101D3C00006909F101098068804720F07F4500BFE8
:101D4C002EB1B06841460368304652469847386811
:101D5C0068403860E06807440AF1010AD145EFD1C8
:101D6C0006E06FEA090050443D6027440130FBD384
:101D7C0001A814F0F1FD16B1684614F0EDFD02B0A7
:041D8C00BDE8F08737
:101D90002DE9F04F83B01C46914647F6EC55C2F250
:101DA0000005884629688246D1F898000FF0D6FAD7
:101DB00083460290406918B10FF0D0FA064600E061
:101DC00000260196404649460DF080FD29680746E9
:101DD000087CC00718D1086CDBF80CA005687EB33E
:101DE0004C45D8BF4C460134B06841460368304684
:101DF0004A4698473D80574409F101094C45F3D1C3
:101E000002A814F0AFFD25E04C45D8BF4C46DAF8E7
:101E10001000013480688047054600BF2EB1B068CD
:101E20004146036830464A469847388868403880BB
:101E3000DBF80C00074409F101094C45EED105E03F
:101E4000E04348443D8057440130FBD302A814F0DE
:101E500089FD16B101A814F085FD03B0BDE8F08F2F
:101E6000002854D02DE9F04784B015460E460446AC
:101E700013F04EFF002014F021FC47F6EC51C2F2A3
:101E8000000109688046D1F8989020460FF066FA64
:101E900007460390006880690EF040FD82464FF2CD
:101EA0000100CFF6FF70864204BFB7F90460B7F9AE
:101EB0000650ADF80460388930440138ADF80800A8
:101EC000ADF80650788928440138ADF80A000DF0C5
:101ED00082F903A814F046FD01A813F065F800BFCD
:101EE00038B1204631462A46FEF768FE07F0C0FCAE
:101EF000F6E750460EF012FD48460DF0C3FD404691
:101F000014F0DCFB0EF010FB04B0BDE8F087704766
:101F1000013928292FD8024645F2ED50C0F60100BC
:101F2000DFE801F0151A1F24292B29292A30353A18
:101F3000293F44292929494E535829295D2929290E
:101F400029292961656A6F2973292929770042F2B5
:101F50001D00C0F6000070474FF6C130C0F600000B
:101F6000704745F22560C0F6010070474FF6A73074
:101F7000C0F600007047002070474FF6DF30C0F613
:101F80000000704745F20D60C0F6010070474FF643
:101F90007930C0F60000704745F21970C0F60100B4
:101FA00070474FF6FD30C0F6000070474FF607400F
:101FB000C0F6000070474FF61140C0F600007047B1
:101FC0004FF61F40C0F60000704745F23170C0F672
:101FD000010070474BF29D50C0F60000704710683A
:101FE0008068406B704710688068C06B70474FF620
:101FF0002D40C0F60000704745F24170C0F6010068
:10200000704710688068406C704710688068006C8A
:0C20100070474FF66330C0F600007047C8
:10201C0070B58068DDF810C00568046A04FB021016
:10202C0005EB40009445D8BF9446DB4303EB010E0F
:10203C00630005997446054635F8026B21F8026B6E
:10204C000134F9D31844624502F10102F2D170BD9A
:10205C002DE9F84F84B08B46DDE90E510292C96828
:10206C008246D1F814904A6A6AB10FA801219047B0
:10207C0048B106460F980499CDE9001551465A46C9
:10208C00029BB047B7E047F6EC50C2F20000006884
:10209C00407C13F0F7FB04271128B8BF022709284E
:1020AC00B8BF012704998B4500F3A580029901F173
:1020BC0001080024411E0391012F23D0022F11D0BF
:1020CC00042F40F0918002988245564600F38C8094
:1020DC000F9831465A46C84745F8040B0136B045AF
:1020EC00F6D181E002988245564600F37D8000BF10
:1020FC000F9831465A46C84725F8020B0136B045B1
:10210C00F6D171E0072900F26F80DFE801F02E4C68
:10211C001313040404040298824565DC564600BF80
:10212C000F9831465A46C84705F8010B0136B045A1
:10213C00F6D159E00298824556DC56460F98314646
:10214C005A46C8470421A1EB84018840A1000F2204
:10215C0002FA01F12A78114008432870254401360F
:10216C0084F00104B045E9D13EE0029882453BDCA5
:10217C00564600BF0F9831465A46C847C4F107016E
:10218C0088404FF67F71E1402A781140084328704F
:10219C00601C05EBE00520F0070140FA01F4013664
:1021AC00B045E7D120E00298824556461CDC00BFC2
:1021BC000F9831465A46C8470621A1EB4401884086
:1021CC0061004FF63F7222FA01F12A781140084360
:1021DC002870601C05EBA00520F0030140FA01F407
:1021EC000136B045E4D100BFDDE9031083450BF1A6
:0C21FC00010B7FF461AF05B0BDE8F08F6F
:102208002DE9F04F95B0924644F61842C2F200020A
:10221800DDF88CC012680DF1800E9EE84042DDE9C1
:102228001E4B6AB11568CDF88CC020AA82E84042DE
:10223800CDE91E4B5246AC4615B0BDE8F04F60479D
:102248004BEA0402012ACDF82CA0119612D180463F
:1022580047F6EC50C2F200000068249CB0F90A204E
:10226800561A012E77DB9F1B012FC0F2AE8006FBAA
:1022780009EE72E014940A90012BC0F2A68047F68A
:10228800EC50C2F20000C6F108080468CDF840C05E
:1022980000220025CDF82490CDE907B30F46594414
:1022A800B4F90A00814251DDB4F90E0087424DDCD1
:1022B800BAF1010F4ADBCDE90C51481ECDE91207EE
:1022C8004FF0000B5546CDE90EEE0A98149F00BF5B
:1022D800BBF1000F02D0ABEB060B04E00F99C3462D
:1022E80011F8012B0F915FFA82FA3AFA08F202D13B
:1022F800237C9B071FD4BCF1000F18BF5CF8222079
:10230800216CC619D1F800900A60721EDDE91231FD
:102318000DF023FE47F6EC50C2F20000149F04684B
:10232800226C3046C2F80090DDE910C60AFA06F2BF
:10233800013DCDD102E03844F8E700BFDDF8249034
:10234800DDE90D1EDDE907B3DDE90BA5CE44013556
:102358009D42A3D139E01F460A461944B0F90E60E0
:10236800F6433144012902DB7F1A012F2DDB464653
:102378000AEB0801B0F90880B0F90C500B9BED434B
:1023880029440029C8BF5B1A311B41450ADAA8EB6A
:1023980001069B1B35190EEBE50E05F0070426F028
:1023A80007063144012B119D0FDB407C44F6EC06F7
:1023B800C2F2000656F82000C6687668CDE90075B6
:1023C800CDE9029ECDE9044CB04715B0BDE8F08FC9
:1023D8002DE9F04F93B0924644F61842C2F200023B
:1023E8000DF1780E12689EE86041DDE91C745AB15F
:1023F800D2F800C01EAA82E86041CDE91C7452469A
:1024080013B0BDE8F04F60470A9044EA070001287E
:10241800119512D147F6EC50C2F200000068B0F9ED
:102428000A20571A012F75DBA3EB0709B9F1010F31
:10243800C0F2E18007FB06886EE00D94012BC0F224
:10244800DA8047F6EC50C2F20000C5F108090468CA
:10245800CDF840E0002200200DF11C0C8CE8480467
:102468000E908C460D980144B4F90A0081424BDD68
:10247800B4F90E00844547DCBAF1010F44DBCDE91D
:102488000B18481E12900026CDF83C800A9800BF11
:1024980016B1761B05E000BF0F994E4611F8012BC7
:1024A8000F915FFA82F838FA09F202D1237C9B0770
:1024B80021D4BEF1000F18BF5EF82220216C00EB7A
:1024C800070B0D680A60ABF101026146129B644676
:1024D8000DF043FD47F6EC50C2F20000A446046834
:1024E800226C58461560DDE910E508FA05F2BAF1E4
:1024F800010ACDD102E03844F7E700BF0DF11C0A0C
:102508009AE84804DDE90B180E98B0440130984267
:10251800A6D170E099460A4603EB010BB0F90E709C
:10252800FF435F44012F04DBA9EB0709B9F1010F51
:1025380061DB0A99B0F90870B0F90CB00AEB010533
:102548006FEA0B0BAB44BBF1000FC8BFAAEB0B0A39
:102558008F4219DDA7EB010CAAEB0C0A119D0F2D78
:1025680015DCA5F1010BBBF1070F30D8DFE80BF044
:1025780004182F202F2F2F2808EBEC082CF0070722
:1025880039440CF0070C22E04FF0000C1FE0102D2E
:1025980018D0182D01D0202D19D108EB8C0813E084
:1025A80008EBAC082CF0030739440CF0030C0EE0E0
:1025B80008EB6C082CF0010739440CF0010C06E01C
:1025C800E04401E008EB4C084FF0000C3946BAF142
:1025D800010F119D0FDB407C44F6EC07C2F20007A7
:1025E80002AB57F82000C7687F68CDE9009583E8FB
:0C25F80040515346B84713B0BDE8F08FC7
:1026040030B5092A12DA013A072A88BF30BDDFE85B
:1026140002F03550181804040404013800EB810258
:10262400435C42F8033C0139F8D130BD102A5CD830
:10263400013900BF30F8112040F821200139F9D2C6
:1026440030BD4A1E00EB6202A0F1040E4B4203F0BF
:1026540001034FF00F0C00BF9D000CFA05F4107835
:102664002040E8404EF82100581CA2EB600220F004
:10267400010340FA03F30139EED130BD4A1E00EBE9
:10268400E202A0F1040E4B4203F007034FF0010CE9
:102694000CFA03F014782040D8404EF82100581C5E
:1026A400A2EBE00220F0070340FA03F30139EFD173
:1026B40030BD4A1E00EBA202A0F1040E4B4203F00F
:1026C40003034FF0030C00BF5C000CFA04F0157810
:1026D4002840E0404EF82100581CA2EBA00220F054
:0C26E400030340FA03F30139EED130BDCE
:1026F000F0B5092A16DA012A23D0022A27D0042AA3
:102700004BD1002210F832301B0101294FD000EBD1
:10271000C2073F7907F00F073B4383540132023968
:10272000F0D10CE0102A84BF0020F0BD002200BFD1
:1027300050F8223020F8123001329142F8D10120B5
:10274000F0BD0278D201012933D1844673E04B1EDB
:10275000A1F1020EA1F1030C0022002410F8245074
:10276000AD01A34221D000EB8406A645377907F0DE
:10277000030745EA071518D0377A07F0030745EA3B
:102780008705A44511D0367B06F0030635438554F2
:1027900001320434A142E1D1D1E7002250F82230C5
:1027A000835401329142F9D1C9E78554C7E7835474
:1027B000C5E7C1F1070100239E468446C4180529D8
:1027C000257905F0010542EA851232D0257A05F017
:1027D000010542EA451204292DD0257B05F00105AB
:1027E00042EA0512032926D0257C05F0010542EABC
:1027F000C50202291FD0257D05F0010542EA8502A8
:10280000012918D0257E05F0010542EA450291B163
:10281000257F05F001052A4300F80E2094F82020BA
:10282000D201203307310EF1010E0CF1010C062903
:0C283000C4D100EB0E0C8CF8002080E7F7
:10283C002DE9F04F87B00D460646DDF840A0D3F8E1
:10284C000080BAF1000F08BF8246092A80F281800D
:10285C00501E0127072800F29280DFE800F0045F89
:10286C00905190909094A5F10109A81E0690E81E35
:10287C000590281F0490681F0390A81F0290E81F62
:10288C0001904FF0000B56F82B00C047C701D945FB
:10289C0072D006EB8B046068C04747EA8017069835
:1028AC00584569D0A068C04747EA40170598584575
:1028BC0062D0E068C04747EA0017049858455BD0DF
:1028CC002069C04747EAC0070398584554D060694F
:1028DC00C04747EA8007029858454DD0A069C047C9
:1028EC0047EA40070198584546D0E069C04738434D
:1028FC000BF1080B0AF8010B01275D45C3D13EE033
:10290C003068C0470701012D36D07068C047384386
:10291C0008360AF8010B023DF2D12FE03068C047AF
:10292C008701012D28D07068C04747EA0017022D97
:10293C0022D0B068C04747EA8007032D1CD0F0684E
:10294C00C047384310360AF8010B0127043DE5D186
:10295C0015E0102A0ED81F6927B151462A460223CA
:10296C00B8470BE056F8040BC0472AF8020B013DA0
:10297C00F8D103E0002702E08AF8007001273846FE
:10298C0007B0BDE8F08FD3F810C0BCF1000F07D032
:10299C000127304651462A460123E047EFE700BFA6
:1029AC0056F8040BC0470AF8010B013DF8D1E5E7D6
:1029BC002DE9F04F8FB09A461746CDE907101998BC
:1029CC00002101600EA80DA90CAB00220DF0BEFC7D
:1029DC000026002840F0D28047F6EC56C2F20006E2
:1029EC0044F6EC013068189D407CC2F2000151F8AD
:1029FC0020100691096903910C995145B8BF8A467C
:102A0C000899514402910139059112F03BFF31684C
:102A1C000490487C0DF0F7F909900024A34600BF00
:102A2C000B9757F8040BA84780464FEA1069B9F189
:102A3C00FF0F09D10D9E46F82B801999086840F0BC
:102A4C00010008606BE000BF0A97002C099D3FD184
:102A5C0047F6EC50C2F20000089A00680E99B0F9E3
:102A6C0008000BEB0206841BD4BF0024064601EBC6
:102A7C008B0101EB84010091069901913046079975
:102A8C00059A0B4608F0CEFD049B172B0CDC0E9818
:102A9C0003990091AAEB040200EB8B0000EB84007D
:102AAC00014608F019FF13E041F29530C0F6010021
:102ABC0085420DD00298861B0E9800EB8B0000EB24
:102ACC00840700BF3868A84747F8040B013EF9D1CA
:102ADC0044F6FC20C2F2000007683FBBB9F1000FBE
:102AEC0006D1DDE90D6050F82B0046F82B0013E001
:102AFC0047F6F051C2F200010E980B6850F82B10FB
:102B0C0048F07F404A4698470D9E46F82B0019998D
:102B1C00086840F0010008600124189D0A9FBAF172
:102B2C00010A0BF1010B7FF47BAF27E0DDE90D60AF
:102B3C0000EB8B0106EB8B02CDE90D210B9D28469A
:102B4C005346B8470020DDE90D1200BF52F8207043
:102B5C0055F82030B3F1807F04D23B4641F8203049
:102B6C0004E000BF3F0E08BF41F820300130824521
:102B7C00ECD11999086840F00100086030460FB09C
:042B8C00BDE8F08F21
:102B90002DE9F04F85B013F0BBF844F65437C2F27C
:102BA00000070024D7F800A00DF110080DF104096A
:102BB000504600BF00B313F0A9F8834638680EF002
:102BC000CDFB04904169594513DC3968D0E90065B3
:102BD00000693D600391CDE901B0404613F0C2FEAB
:102BE0004846B04745B1386801245045E2D1002439
:102BF00002E004A813F0B6FE0DF096FC204605B0E6
:042C0000BDE8F08FAC
:102C04002DE9F04385B007460EF0A6FB054644F6D1
:102C14005434C2F200040390206870B30EF09CFB9D
:102C24000490466904A813F09BFE20686969B142C8
:102C340027DD0EF091FB02904468DCB101AE0DF18A
:102C4400080900BF20460EF087FB0190D0F81480DD
:102C5400304613F085FE6869404515DD02984468E6
:102C6400484613F07DFE20460EF076FB0290446841
:102C7400002CE7D10021696008E00020686027602B
:102C840008E02760686005E06C600298476002A86D
:102C940013F066FE03A813F063FE05B0BDE8F083ED
:102CA40098B170B582B0044613F030F844F6483653
:102CB400C2F200063568A54208D120460EF04CFB4E
:102CC40081683160009068461AE07047D5B101AE62
:102CD40028460EF041FB01908568A54205D0304698
:102CE40013F03EFE002DF3D10CE020460EF034FB31
:102CF400019982688A600090684613F031FE01A849
:102D040013F02EFE204608F099FE204613F08CFEA8
:082D14000DF008FC02B070BDD7
:102D1C002DE9F843044613F01BFF051913F018FFB7
:102D2C002C1A012CB8BFBDE8F88347F6C858C2F27C
:102D3C00000844F63C49C2F2000900BF02F086F8D4
:102D4C00D8F800008442C8BF044612F0DBFFD9F863
:102D5C00007013F047FE3E4677B100BF0DF0DEFB6E
:102D6C00013EFBD1204613F0F5FE00BF12F0CAFF66
:102D7C00013FFBD103E000BF204613F0EBFE13F044
:102D8C0039FE0DF0CBFB13F0E3FE2C1A002CD5DC36
:042D9C00BDE8F88313
:102DA0002DE9F0411F46144647F6EC56C2F20006E4
:102DB0000D4631688046087CC00718D1BC4221DC32
:102DC000086C29460368404613F08AF8BC4208BFE5
:102DD000BDE8F08130680134006C29460368404644
:102DE000224613F07DF8A742F4D1BDE8F081BC4241
:102DF00008DC013740462946224613F093F8013497
:082E0000A742F7D1BDE8F08103
:102E08002DE9F04383B01C460F4600680290C16864
:102E180016460A680A9D042A08D1CDE90065E11919
:102E28004B1E394632460DF0E0FC26E04A6A02A8FD
:102E38000121904704EB070980B184460298CDE947
:102E48000065A9F1010339463246E0470DF01CFD43
:102E5800024628462146FFF7D1FB0EE0012C18DB7D
:102E6800A84600BF02983246C1684B693946984760
:102E780048F8040B01374F45F4DB012C09DBDDE989
:102E88000B7800BF55F8040BC04747F8040B013C0A
:082E9800F8D103B0BDE8F0839E
:102EA0002DE9F84347F6EC56C2F200060C463168AD
:102EB00044F26C69497CC2F2000959F82110096892
:102EC0000969D1F810C0BCF1000F04D0214601B04F
:102ED000BDE8F043604715468046042B1CD0022B0A
:102EE00034D0012B48D158F8040B0968884704F8FE
:102EF000010B6F1E40D000BF3068407C59F82000A5
:102F00000068016958F8040B0968884704F8010B48
:102F1000013FF1D1BDE8F88358F8040B09688847F0
:102F200044F8040B6F1E08BFBDE8F8833068407C8E
:102F300059F820000068016958F8040B09688847AF
:102F400044F8040B013FF1D1BDE8F88358F8040BB5
:102F50000968884724F8020B6F1E0DD03068407C4A
:102F600059F820000068016958F8040B096888477F
:0C2F700024F8020B013FF1D1BDE8F8830A
:102F7C002DE9F84347F6EC56C2F200060C463168D0
:102F8C0044F26C69497CC2F2000959F821100968B5
:102F9C000969D1F814C0BCF1000F04D0214601B06E
:102FAC00BDE8F043604715468046042B1CD0022B2D
:102FBC0034D0012B48D118F8010B4968884744F8E4
:102FCC00040B6F1E40D000BF3068407C59F82000C5
:102FDC000068016918F8010B4968884744F8040B2C
:102FEC00013FF1D1BDE8F88358F8040B49688847D4
:102FFC0044F8040B6F1E08BFBDE8F8833068407CB2
:10300C0059F820000068016958F8040B4968884792
:10301C0044F8040B013FF1D1BDE8F88338F8020BFA
:10302C004968884744F8040B6F1E0DD03068407C0B
:10303C0059F820000068016938F8020B4968884784
:0C304C0044F8040B013FF1D1BDE8F8830B
:1030580038B547F6C453C2F20003044647F6BC52DB
:10306800C2F200021868126890421CD08646A44634
:103078009EE826008CE8260044F22461C2F2000192
:1030880001F13C02904218BF00F10C0144F62430D3
:10309800C2F20000196005689DB1296809B120468F
:1030A80088476D68F8E744F22461C2F2000188425B
:1030B8000CBF01F13C000C38214690E8241081E84F
:0C30C8002410207A002818BF012038BD19
:1030D400F0B583B044F63821C2F200010446086812
:1030E40038B946F22900C0F601000860084613F01A
:1030F40055FA44F6C830C2F200004EF60F11C0F67D
:10310400000101606D46284694E8025080E80250B0
:1031140044F62830C2F20000066846B16C4600BF8F
:10312400316809B1204688477668002EF8D147F601
:10313400BC53C2F2000347F6C452C2F200021C6838
:103144001168A14244F2246CC2F2000C084616D065
:103154000CF13C006445064618BFA4F10C069DF82A
:1031640008E0377ABE4509D1B14207D0664518BF99
:10317400A6F10C00007A864508BF344620468646F0
:1031840095E8D0008EE8D0000CF13C0E7045644602
:1031940018BF00F10C041C60A14205D1714518BF91
:1031A40001F10C0CC2F800C044F6D820C2F20000B1
:1031B400016809B16846884712F0CCFC03B0F0BD41
:1031C40070B584B00EF0C8F8019046F29521C0F6AF
:1031D4000101016001250577019C0020A0610DF12A
:1031E4000301204613F06AF8002831D19DF803004A
:1031F400D8282DD10DF1030120460AF0C3F9002887
:1032040026D10DF103069DF80310A1F1C00001259C
:103214001A280FD8DFE800F02525221B101B1B1BE2
:103224001C1B1B1B101B1B1B1C1C1C1C1C1C1C1CEC
:103234001B1B1B0001290BD020460DF06CFC204603
:1032440031460AF09FF901250028DCD000E0002572
:1032540001A813F085FB284604B070BD012084F852
:10326400220003A920460DF067FC58B922680DF12D
:103274000B012046904728B904F1120120460DF0B5
:1032840074FC08B10125E3E704F1100120460DF0B8
:0C3294006CFC0546002818BF0125D9E796
:1032A0002DE9F04F91B047F6F451C2F20001044607
:1032B0000B680CA800211022984747F22D3047F2E6
:1032C0004041261861580129C0F2BF80D6F81B0181
:1032D000002245F6241AC0F6110A9146CDE902648F
:1032E0000128C0F2AE80019200230025002700BF14
:1032F000079304EB830147F24C42D6F8470151F89B
:1033000002800EF02BF804EB08010490109047F2B5
:1033100025300591085C0CA904EB800047F20C32C3
:1033200051F828108658CDF8188004EB081B47F296
:10333000B83004EB880208970F4447F2F83158443C
:103340005158099501EB0508394642460AAB0DF084
:1033500027FC044647F278305844394642460BABC6
:103360000DF01EFC074658B354B3049800EBC91582
:103370002846398820F8021B47F6F851C2F20001AE
:103380007E220B68A11C98473F2000BF1AF800104E
:1033900035F8111021B90138F8D8002002E000BF3B
:1033A00000280DD41AF8001035F8112022B136F893
:1033B00010305A4325F811200028A0F10100F1DC5B
:1033C000109810B110A813F0CDFA002C039C02D075
:1033D0000AA813F0C7FA17B10BA813F0C3FA029E9C
:1033E000DDE908753078012804D101202946079BC2
:1033F00010E000BF47F21D30059A115C781C88422E
:1034000012D147F22131079B515C013500278D42D3
:1034100039460BD10DF1300C069D5CF82520104487
:103420004CF825000D4601E00746079B09F101090C
:10343000D6F81B0101338342FFF65AAFD6F81311B9
:10344000019A01328A42FFF64BAF3078012808D149
:10345000707804EB800047F2F83142580132425054
:1034600015E0A0B147F22E31214447F2213247F254
:10347000F83300BF11F8015B661904EB8509B65CEF
:1034800059F803502E4449F803600138F2D111B0C5
:04349000BDE8F08F14
:103494002DE9F04FA9B0044647F2084047F28841AD
:1034A40027186058019710B1387808BB11E294F8D6
:1034B400220018B12046FFF7F1FE14E0204609F07F
:1034C40003FCB869F96F81420DDC08A9204609F0B4
:1034D4007FFA01460120002940F089849DF82010DC
:1034E400D92940F0848401203870B869C7F8800075
:1034F400B86F079020B9786F0DF02EFF0790B8676A
:10350400F86E0DF029FF2890002800F0E081396959
:103514000129C0F2D98108A970310091002100BFAE
:10352400029100EBC11147F6F850C2F2000080226C
:10353400036808A89847002008A90144B1F9045079
:10354400B1F90220B1F906C0B1F90840B1F90A9005
:10355400B1F90CE0B1F90E3045EA020646EA0C0670
:10356400264346EA090646EA0E061E43360400F0E0
:103574008D800EEB050641F2511706FB07FB41F661
:103584007E0615FB06B608AD05962D5E2F19069727
:103594002C1B049406EB473409EB020503EB0C07E0
:1035A40007EB05084FF28436CFF6FF76754342F2F7
:1035B400A15608FB065A35464CF23B16CFF6FF7669
:1035C400774308FB05779E184EF23335CFF6FF7527
:1035D4006E4343F20B0512FB0562524440F68E150E
:1035E40013FB056303EB0708161906F5806608ABA1
:1035F400F60A1E52A21A02F58062D20ACA814CF25D
:103604003B12CFF6FF7202F569721EFB02B2DDF8BF
:1036140010E002EB4E3609EB0C044AF6FD53CFF6EC
:10362400FF735C4346F254231CFB03433B4444F2C4
:10363400B31719FB074757449D1905F58065ED0A33
:103644004D80F31A03F58063DB0A8B81C2EB4E33A2
:103654003B4403F58063DB0A8B803A44C2EB4E3271
:1036640002F58062D20ADDE90567C6EB47334344BD
:1036740003F58063DB0ACB804A8108EB0602C2EBC8
:10368400473202F58062D20A0A810AE008AB1A5A6C
:1036940092001A528A804A80CA800A814A818A81A9
:1036A400CA81103080287FF447AF0020009900BF02
:1036B40008AA02EB400231F9603CB2F94070B2F959
:1036C4002050B2F950C0B2F9608031F940ECB1F940
:1036D400006045EA030444EA0E043C4344EA0C0453
:1036E40044EA08043443240400F0BA8008EB0504D7
:1036F40041F25112544341F67E0215FB0249CDE9D1
:10370400044931F9705CEA190692EC1B039409EB45
:1037140042340CEB030706EB0E0202EB070A4FF2EE
:103724008435CFF6FF756F4342F2A1590AFB097B3A
:103734004CF23B15CFF6FF756A430AFB0922DDF80C
:103744001C90F5184EF2333ACFF6FF7A05FB0AF5D2
:1037540043F20B0713FB07535B4440F68E1716FB2B
:103764000755AE181D1905F500354FF0800A0AEB10
:10377400A545FF2D88BF6FEAD53509F80050E31A37
:1037840003F500330AEBA3430CEB0E044AF6FD5594
:10379400CFF6FF756C4346F254251EFB05451544D0
:1037A40044F2B3121CFB024202EB0B0C4CF23B1230
:1037B400CFF6FF7202F56977DDE903E218FB07280B
:1037C40008EB4E377A1B02F500320AEBA242FF2ABD
:1037D40088BF6FEAD2322F4407F500370AEBA747B8
:1037E400FF2F09EB000588BF6FEAD73785F8302033
:1037F4002F72DDE90547C4EB4732324402F500324B
:103804000AEBA242FF2A88BF6FEAD2322A76321923
:10381400C2EB473202F500320AEBA247C8EB4E3244
:10382400624402F500320AEBA242FF2A88BF6FEA23
:10383400D2322A74FF2B88BF6FEAE333FF2F88BF8D
:103844006FEAE7370CEB0802C2EB4E3202F50032A6
:103854000AEBA242FF2A88BF6FEAE23220261BE06D
:1038640031F9702C079F02F110036FF07F0282EA96
:1038740063125B117F2BC8BF4FF0FF3213F1800F2F
:10388400B8BF00223B183A5483F820201A761A74E1
:103894001A72302617461346079C2518264485F8C5
:1038A4002820375485F838300231013008287FF455
:1038B400FFAEDDE9017101313869814204DA04F1B6
:1038C4004000079028982BE628A813F049F8002018
:1038D40038707878042800F28382DFE810F005005D
:1038E40026007A0002019A01BD69D7E920600DF033
:1038F40033FD0446089078680128C0F2F080019AEC
:10390400A91B926F02EBC105461C47F6F857C2F299
:10391400000700BF3B682046294608229847013E1D
:1039240008344035012EF5D8D9E0BC69D7E92050D8
:103934000DF012FD08907B68012BC0F2D080E100ED
:10394400019AA1EBC501926F114401F1400E48F2B6
:103954000428C0F6000845F67417C0F6110747F6A8
:103964000469C0F6000948F2046AC0F6000A48F681
:10397400042BC0F6000B00BF07930021724600BF62
:1039840012F8403C12F8016B03F5807358F8265086
:103994001D4492F83F407D5D455459F824501D4420
:1039A40000EB010C7D5D8CF802505AF824405BF862
:1039B40026502C4403EB24430431FB5C8CF8013087
:1039C4002029DDD108440EF1C00E079B013BD3DC56
:1039D40085E0BC69D7E920500DF0BEFC08907F68F3
:1039E400012F7CDB8346611B019AC900926F531837
:1039F40003F1800E47F60462C0F6000245F6741126
:103A0400C0F6110148F60429C0F6000948F2046A18
:103A1400C0F6000A48F2042CC0F6000C804600BF31
:103A240002975E1C012000BFCDE903060593002325
:103A3400CDE906BE60461EF803C0079F07EB030EE0
:103A44009EF8405052F825E016F8012C02F58072D9
:103A540002EB0E070BEBC304CF5DA77059F82C7073
:103A64005AF82550CB4607EB050902EB29470133E9
:103A7400CF5D677050F82C703A4484468A5C08F82D
:103A8400082B16F8022B02F5807202EB0E05DDF806
:103A94001CE04D5D174408F8025CCF5D02EB29423F
:103AA400D946DDF818B027718A5C627147F6046262
:103AB400C0F60002042BBDD19E44DDE90464403607
:103AC40004F140030398C0074FF00000C346ABD194
:103AD4000EF1F80E029F013F04F1C003A0DC08A818
:103AE40078E1D7F88040E00740F08481D7F8188067
:103AF400D7F884000DF030FC06460890D7F888000B
:103B04000DF02AFC28907D68012DC0F25F81019A96
:103B1400A8EB0401946F01F0070204EBC20202F166
:103B240040030829B8BF04EBC1036FF0040707EA98
:103B3400810104EB010B48F20424C0F6000445F6AD
:103B4400741AC0F6110A00BF0793CDE90556002583
:103B5400002100BF0BEB0107DDF81C9097F88030C3
:103B6400804654F823C019F801E00EF5807404EB84
:103B74000C0297F8C0701AF802205046DDF818A01D
:103B84000AF8052047F60462C0F6000252F827E05E
:103B940004EB0E060AEB05028246865D48F20460D9
:103BA400C0F60000967050F8276048F60420C0F66E
:103BB400000050F82330334404EB23441AF8044043
:103BC400547009EB010248F20424127A02F580725F
:103BD40002EB0C0740461AF80770475502EB2343E3
:103BE40047191AF8033072447B701AF80220BA702D
:103BF400C0F6000404350131202DABD1069E2E44BD
:103C040028440BF5807B059D013D09F580739BDC01
:103C1400DCE0D7F88050E80740F0EC80D7F8188053
:103C2400D7F884000DF098FB04460890D7F8880074
:103C34000DF092FB28907E68012EC0F2C780824668
:103C44000198A8EB0502836F02F0070103EBC101A1
:103C54008031082AB8BF03EBC2016FF0040707EAFA
:103C64008202A0461A4402F5807047F60467C0F643
:103C7400000745F6741EC0F6110E48F6042BC0F674
:103C8400000B00BF039601220492079100254FF018
:103C9400090C0021CDE905A0079A02EB0C03421898
:103CA400465C92F8402013F8093C57F8224004F58A
:103CB400807909EB030408EBC10A1EF804408AF872
:103CC400024048F20467C0F600075BF8264057F844
:103CD400222022444FF4807404EB224B0BEB0302AA
:103CE40047461EF802208AF8012048F20422C0F652
:103CF4000002079852F8262002F5807808EB0302A8
:103D04001EF802207A5500EB4102537809EB0304B4
:103D14007E191EF80440B47108EB03045B441EF8DA
:103D240004408AF804401EF803308AF80530DDF8B0
:103D340014A0127A0BEB02030AEBC1041EF8033041
:103D4400637009EB020342441EF80330A3701EF8AB
:103D540002200AF8052010F80C2009EB02030AEBF4
:103D640005061EF80330384608EB0207B3711EF847
:103D740007308046069823715A4448F6042BC0F64F
:103D8400000B47F60467C0F600071EF802206271B4
:103D94000CF1020208350131ACF10903062B9446FB
:103DA400FFF47AAFA844AA4408440799049A40311E
:103DB400D2074FF000027FF467AF00F5BC70039E9A
:103DC4000799013E01F5A0713FF75CAF08A812F016
:103DD400C7FD28A812F0C4FD0020019F87F88C00BD
:103DE400D7E91F0101390138C7E91F01002029B0B3
:083DF400BDE8F08F0120F1E7AA
:103DFC002DE9F04F8FB0834612F0B8F90546002834
:103E0C0040F0FF8158460DF0A3FA47F21C310B909D
:103E1C00425C01444FF000080125012A26D0032AF8
:103E2C0040F0A8808A78012A40F0A2808A79012A81
:103E3C0040F09E80CA78012A40F09A80CA79012A03
:103E4C0040F096804A78022A00F0DF81012A40F087
:103E5C008F804F79012F00F0E581022F40F0888090
:103E6C0001241023082204250327E7E10822002758
:103E7C000823AC46002481F8ED70478AC1E95A78D2
:103E8C00008A1F44013FB7FBF3F71618013EB6FB3F
:103E9C00F2F60F30C1E93C67C1F8F8504FF6F077F5
:103EAC0038400CFB00F76E43C1E93F62C1E9413C6D
:103EBC00C1F80C710BA812F04FFDF00112F0C8FD07
:103ECC000546B00112F0C4FD8146304612F0C0FD2B
:103EDC000646384612F0BCFD82461CB1384612F03C
:103EEC00B7FD8046A5B3B9F1000F31D086B3BAF156
:103EFC00000F2DD0B8FA88F014EA501028D158468B
:103F0C000DF026FA47F2744142184550C2E906A852
:103F1C00C2E901690B9030460DF01AFA47F21842CB
:103F2C000B990790895801290DDB402101700B98E2
:103F3C008058022807DB0120079B19540B9B01308A
:103F4C009B589842F8DB07A812F006FD00250FE0FD
:103F5C00284612F065FD484612F062FD304612F01C
:103F6C005FFD504612F05CFD404612F059FD0125F4
:103F7C000B9810B10BA812F0EFFC0DB1012540E12C
:103F8C0058460DF0E5F9059090F82210002942D022
:103F9C0005A812F0E1FC58460DF0DAF947F21C3195
:103FAC000690475C06A812F0D7FCBFB1042FE5D0F1
:103FBC000026012558460121324601230CF01AFE39
:103FCC00002840F01E8158460221324608230CF08E
:103FDC0011FE0028D2D10136B742EBD158460DF074
:103FEC00B7F9069008F08CFFD0B147F21C31069857
:103FFC004218415C517451B1002147F22E32531ECC
:10400C000844815406980131C75CB942F8D300F0DA
:10401C0047FA0025F2E008F073FF054605A8EEE02C
:10402C0047F27536B21CD11E47F22D3347F6F457C2
:10403C00C2F2000707A847F22134DDF8188018F8FF
:10404C0001B018F806108B4500F2D78018F8022042
:10405C0008EB030ABBF1000F04D09AF800100129F9
:10406C0003D0CAE0002940F0C88072B19AF8491018
:10407C00013A8A4240F0C18044F21D39C0F6000971
:10408C0046F22145C0F6010507E04DF22569C0F660
:10409C00000940F69F45C0F601053B68002110223F
:1040AC009847BBF1000F08BFA946CDF81090DAF87D
:1040BC0017010128C0F2918047F22E304044019044
:1040CC0047F24C4008EB0009002102913B680BA819
:1040DC00002110229847DAF81301012807AE57DBAC
:1040EC0000200390DAF8070130B1DAF80B0118B9A7
:1040FC00404600F0BDF807AEDAF81B0101283ADBA8
:10410C0000240025AB4600BF59F82B700BA956F8BC
:10411C00270051F82710049E4A19031940463946C6
:10412C00B047002869D19AF8000001280AD1012073
:10413C00214607AE0BAB0C4653F82720104443F82E
:10414C00270012E008EB070147F21D32681C8A5C5D
:10415C00904207AE08D147F221320134895C002528
:10416C008C422946E6D000E005460BF1010BDAF84B
:10417C001B018345C8DBDAF80B01DAF8131101389F
:10418C00CAF80B0103980130884247F22134A8DBAE
:10419C009AF80000012807D19AF8010056F820106F
:1041AC00013146F820100DE060B1019911F8012B96
:1041BC0008EB020356F822701B5D3B4446F8223094
:1041CC000138F3D10299DAF817010131814247F62F
:1041DC00F457C2F20007FFF678AF069808F090FE8D
:1041EC00002847F2753647F2773247F2743147F2BE
:1041FC002D3307A83FF421AFF7E6012506A812F0EE
:10420C00ABFB28460FB0BDE8F08F4A79012A10D0DD
:10421C00022A7FF4ADAE01240427102206251023B8
:10422C00BC4628E600244FF0040C08220325082382
:10423C0021E600240823102204250227AC461AE6A6
:10424C0070B5012912DB0D4604468669B54208DDBE
:10425C0020460CF043FCAD1BA669002EF6D10120C4
:10426C0070BD701BA061606928446061002070BD46
:10427C00F8B5044647F21C3026184FF4FA670DF1D6
:10428C00030500BF226820462946904728B99DF8AF
:10429C000300FF2802D0013FF4D1F8BD012F11DB40
:1042AC0001370DF1030500BF2268204629469047CF
:1042BC000028F2D19DF80300FF2806D1013F012F01
:1042CC00F2DCF8BD002FE8D0FF20D6F82011D03159
:1042DC008142E2D147F2643047F6F451C2F2000158
:1042EC0020440B6831788A00002500219847C6F8D5
:1042FC001451D6F81801D6F82011C6F81C01481C28
:10430C0000F00700C6F82001204612F03FF8F8BD77
:10431C002DE9F04F85B09A46814647F2743800EB90
:10432C0008058B46AF78012600EB011047F2B83137
:10433C00084404AB114652460CF02CFCD8B3824610
:10434C00B01EB840029006FA07F719F80840D5F8E5
:10435C00BC0048B301282ADB69788C4220DC45F686
:10436C00241BC0F6110B00BF1BF8048026463AF83C
:10437C00180078B14846012111F0BAFF50B13AF952
:10438C001800074206D100280299A8BF39460844F4
:10439C002AF81800741C68788642E5DBD5F8BC0056
:1043AC000138C5F8BC0002E06878844207D90026C1
:1043BC0004A812F0D1FA304605B0BDE8F08F09EB35
:1043CC000B0047F236310844009045F6241BC0F62A
:1043DC00110B039700984FF45061007810FB01907B
:1043EC0000F6BC01484609F0F3F8061110F00F0175
:1043FC000AD001293FD14846012111F079FF00284C
:10440C0008BF029F019703E00F2E36D100200190C8
:10441C002046029C1BF8007080463AF8170088B1C1
:10442C004846012111F064FF70B13AF91700039A64
:10443C00024209D100282146A8BF114608442AF897
:10444C00170001E0013E05DB08F1010069788845A1
:10445C00E0DB00E04046019A2AB13F28DCBF1BF8A4
:10446C0000102AF81120441C6978039F8842B1DBA4
:10447C00D5F8BC006EE701269AE710284FF0010032
:10448C0000FA06F0C5F8BC00FFF464AF48463146AC
:10449C0011F02EFFD5F8BC100844C5F8BC0059E744
:1044AC002DE9F04F88B00021CDE90611CDE90411BA
:1044BC00CDE90211CDE9001147F21C31435CC3B1C7
:1044CC00014447F22132871800221E46944600BF51
:1044DC0017F804BC17F8018B424538BF4246DC453F
:1044EC0038BFDC46013EF3D1BCF1000F18BF002AE7
:1044FC0002D108B0BDE8F08F43B347F2213700EB8F
:10450C000708A2F1010E448AB0F81090ACF1010A30
:10451C00EB4604AE18F8047C07FB09A797FBFCF7E5
:10452C00FD1DEF1705EB5777FF1018F8015B46F8E8
:10453C00047B05FB04E797FBF2F7FD1DEF1705EB7A
:10454C005777FF10013B4BF8047BE3D14B7C012BDD
:10455C000FD1887C04AA4FF0010C6F4652F8202032
:10456C0057F8207001F5927383E88410C1F830017C
:10457C00BFE70027068A07360CEBD606013E96FBF2
:10458C00FCFC468AC1F824C106F1070C02EBDC0CDA
:10459C00ACF1010C9CFBF2F2C1E94A27002BA8D02C
:1045AC00002247F22E3E47F21D3447F2213947F2E2
:1045BC004C4B00BF861816F80E60871917F809C007
:1045CC003F5D0CFB07F75FB1D1F82CC10CF1010872
:1045DC0000EB8C0CC1F82C814CF80B60013FF3D133
:0845EC0001329A42E6D184E796
:1045F4002DE9F14F8CB015460B91CDE90932169C8B
:1046040011F086F906460894AC0008A8CDE9000428
:104614000CA80BA90AAA09AB11F03AFF10B10DB00E
:10462400BDE8F08F039609990691012934DB002037
:104634000790DDE90B06CDE90404DDF828B0DDF8C8
:10464400208047F6EC59C2F2000944F6EC0AC2F2A3
:10465400000A00BFBBF1010F16DB07980499451847
:10466400002700BF58F827000BF0AAFC0346D9F82E
:104674000000407C5AF82000C268F11994692A4667
:10468400A0470137BB45EDD1DDE90540A0440799BA
:10469400013107918142DDD103980DB0BDE8F04F9F
:0446A4000CF0F2BC68
:1046A8002DE9F04F9DB01E460C910790CDE91A10E8
:1046B8000E92CDE9183211F08DFF0690269C11F06C
:1046C800FBFB15900D941794DDE9271247F6EC547F
:1046D800C2F20004DDE92AA820681691089242EA8D
:1046E8000105407C0BF09AFB1290012D09D120683E
:1046F800299C407C0BF089FB001BB0FA80F0400934
:1047080000E0002044F62441C2F200010968B1B17A
:1047180047F6EC51C2F200010968D1F89820497CAB
:10472800002A44F6EC02C2F2000252F8211008D026
:10473800096948F61C62C0F60002891A03E00021E4
:1047480004E0C9680968B1FA81F149090AEB480B24
:10475800DDF838A04FEA8A070843CDE913B700F01F
:10476800E68010910BF002001690DDF85CC04CF664
:10477800EF51C0F2AB011291DDE90C9B584647F6A8
:10478800EC54C2F200042168B1F90A30A3EB090223
:104798009642C0F21782012A0ADBB61A012EC0F22D
:1047A8000D8202FB0AF200EB820B584601E000BFC3
:1047B8004B46B1F90E20934200F30082D24399464A
:1047C8001A449319002BC8BF56420B96B1F908201A
:1047D800079D531B012B80465646AA46354605DBE6
:1047E80000EB830CF51AE346E04692461190B1F9C6
:1047F8000C20924500F3DE810AEB0503013B93424E
:10480800A2EB0A02C8BF551C012DC0F2D38144F6A1
:104818005D42C2F200021278002A40F0DE81109A4E
:10482800002A40F0EE8100BF1698002650B900BF5C
:1048380058F82600B0F17F4F0CD30136B542F7D1B6
:1048480007E000BF08EB8600C07818B90136B5420A
:10485800F8D12E46E6B12068407C11F027FB159967
:10486800884202D0084607F00FFC0120CDE900007D
:10487800202002A981E88108002005905046494679
:1048880032460123FDF7A4FDAD1B0BEB860838E08B
:10489800139858F8044BC0B201280DD0022813D041
:1048A800032813D124F0FF1064F31740C4F3074121
:1048B800084480F07F4409E024F0FF1064F31740B7
:1048C800C4F30741441801E084F07F44270E11D057
:1048D8001298844203D020460BF0AFFB129447F69F
:1048E800AC50C2F2000044F07F4306685046494687
:1048F8003A46B04747F6EC54C2F20004149F013D13
:104908000126C346B244002D3FF78EAFDDF838A02C
:1049180011980B9E00EB8A0C013E09F10109E34650
:1049280060467FF430AFCDF85CC000264CE1012D25
:1049380040F0A08017A8CDE900071BA81AA919AA5A
:1049480018AB11F0A3FD002840F09581DDE917515F
:1049580011910129C0F28C8000211A9810901B989F
:104968001690DDF864904CF6EF50C0F2AB0015904D
:104978005FFA8BF747F6EC54C2F20004B9F1010F65
:1049880013916DDB109800EB010B4FF0000800BF8E
:1049980055F82860012F0DD0022F13D0032F13D103
:1049A80026F0FF1066F31740C6F30741084480F06D
:1049B8007F4609E026F0FF1066F31740C6F307416B
:1049C800461801E086F07F4644F65D40C2F20000DA
:1049D8000078B8B13046129988470346206844F6F3
:1049E800EC01407CC2F2000151F82000C26816991F
:1049F800D2F818A041445A46D04708F10108C145E9
:104A0800C6D12DE05FEA166AF7D01598864203D022
:104A180030460BF012FB1596BAF1000F10D016981D
:104A280047F6AC51C2F2000140440C6846F07F439F
:104A380059465246A04747F6EC54C2F20004DCE758
:104A4800226844F6EC01507CC2F20001126C51F865
:104A58002000C3681699D3F818A01368CAE700BFE6
:104A6800DDE9131005440131119881427FF486AFC6
:104A78001795ACE0012EC0F29A800B9600234CF6F5
:104A8800EF56C0F2AB0647F6AC58C2F2000800BFBA
:104A980047F6EC50C2F200000C9F006808997A189B
:104AA800B0F90A100C928A42099376DDB0F90E002B
:104AB800874272DCBAF1010F6FDB501EB8421297C1
:104AC8000A90C8BF0746159700210D9A079F00BF97
:104AD8005FFA8BF052F8049B149101280ED002283B
:104AE80016D0032816D129F0FF1069F31740C9F32F
:104AF8000741084480F07F490CE000BF29F0FF100F
:104B080069F31740C9F3074100EB010902E000BF50
:104B180089F07F49B14505D0484615460BF08DFA16
:104B28002A464E465FEA196502D1169807440CE0FA
:104B380016983C18FF2D0BD11546621E384612995F
:104B48000A9B0BF00AFA2A462746149922E000BF6E
:104B5800CDE90F421196DDF848B000BF169801283C
:104B68000DDB0446BA4600BFD8F8006050465946E7
:104B78002A464B46B047013C0AF1010AF4D1159880
:104B880083450BF1010BE9D1DDE90EA7DDE913B18E
:104B9800DDE91026013151459AD10D9800EB8A00C4
:104BA8000D90099B0B98013383427FF471AF0D98E8
:104BB80017900CE0CDF85CC00B9E05E0CDF85CC00A
:104BC800994601E0CDF85CC01896CDF86890069833
:104BD8001DB0BDE8F04F0CF04ABACDF868900B9BB9
:104BE800CDE917C3002020210122CDE9002202AA25
:104BF80082E882080590504649462A46FDF7E8FBB8
:104C080039E0CDF868900B9FCDE917C7D1F8980027
:104C180018B30CF09FFB06461C904F46B0F9048071
:104C2800B0F90690C4681CA811F098FE44F6244018
:104C3800C2F200005946D0F800C01498CDE90040EF
:104C4800A7EB090000FB046000EB8A00A0EB8800DA
:104C580018302A460B9BE0470DE044F62842C2F282
:104C68000002487C1668CDE9005714990291514614
:0C4C78004A465B46B0471DB0BDE8F08F17
:104C8400F8B50F2B1EDC1D4616460F4604461C20A5
:104C940008F034FFB0B167B944F6EC01C2F2000188
:104CA40051F8251031B100BF0A4609680029FBD12B
:104CB40017690761868285610021C0E90011C0E996
:084CC4000214F8BD0020F8BD48
:104CCC002DE9F04383B01C4615460E46814611F083
:104CDC0019F804200BF009F947F6EC51C2F2000167
:104CEC0009688046D1E913010544ADF808508144A8
:104CFC00ADF804900F19ADF80A708C19ADF8064098
:104D0C0001A810F04BF900BF40B1484621462A4695
:104D1C003B460BF020F904F0A5FDF5E740460BF0FF
:0C4D2C00E4F80BF0FBFB03B0BDE8F083E3
:104D380038B511F011FC44F66140C2F200002E2192
:104D4800017011F033FF47F6EC55C2F2000543F647
:104D5800F8742868011D0164C2F2000445F6744124
:104D6800C0F61101C4F8A01000F10801E160C063A9
:104D7800407C44F6EC01C2F2000151F82000C16801
:104D88000A6B2146904748F61460C0F60000C4F844
:104D9800940001202075208247F6FC50C2F20000E2
:104DA8000068A06128680830E0600AF003F8032171
:104DB80020644CF6EF50C0F2AB00C4E90B0047F694
:104DC8000460C2F2000084F8981000680BF02EF915
:104DD80047F60060C2F2000000680BF02EF944F6B6
:104DE8001440C2F2000047F62851C0F600010160E5
:104DF80006F0B2FC044610F065FD10B110F068FD35
:104E080040B90BF014F805460BF014F80146284693
:104E18000BF016F80020002111F068FC04F0D4FE15
:104E280006F056FE44F63035C2F20005286800BF89
:104E380030B1016809B18847286840682860F7E7F9
:104E480044F65F40C2F2000001210170204638BDDF
:104E580010B500210C460CF09FF801210028F9D16B
:044E6800204610BD13
:104E6C0038B5002490B144F64C31C2F20001096807
:104E7C0061B185B20C4600BF204611F063FD018E76
:104E8C00A94203D0C46A002CF6D10024204638BDB8
:104E9C002DE9F04182B044F65034C2F2000425688A
:104EAC005DB3804628460CF053FA0190454501D17C
:104EBC0000210EE001AE00BF476A304611F04CFDF8
:104ECC00DFB138460CF044FA0190474529463D467F
:104EDC00F2D149B108460CF03BFA0199496A41629A
:104EEC000090684611F038FD2068404502BF0198DB
:104EFC00406A206001A811F02FFD02B0BDE8F081DE
:104F0C002DE9F04F87B0834610F0FCFEBBF1000F8B
:104F1C005DD058460CF01CFA05460690CDF808B04A
:104F2C008068039010F0ECFED5E90212871A8F42CC
:104F3C004FDD286A0CF00CFA83460027CDE904708B
:104F4C00A869002800F0C78047F6FF7A00260021E8
:104F5C00C1EBC1020BEB8204A14619F8142F0AB95C
:104F6C00627D12B346B92A6822B169690020904764
:104F7C00012601E0002600BFA04618F8150F40B12D
:104F8C00CDE900A7226812B121696846904788F8DC
:104F9C0000700220CDE900A0226812B12169684698
:104FAC00904789F80070A8690499013104918142F5
:104FBC00CED305A811F0D0FC002E00F08F802A680B
:104FCC00002A00F08B8069690220904786E0002659
:104FDC008CE0A869002800F08580286A002800F081
:104FEC008180296900268F42C0F27D807A1AEB6994
:104FFC009A423A46B8BF5A182A610CF0A9F983466E
:10500C00CDE90460A869002860D001264FF00008A3
:10501C00002000BFC0EBC0090BEB89040196A0680F
:10502C00874203DA4FF0FF30009041E0A2461AF8B5
:10503C00151F01295AF8091C04D18F42A8BF4F1E15
:10504C0002E000BF8F4212DA636813B13A1A984734
:10505C0000E000202146009011F8142F22B90E70A8
:10506C0000218AF80010019100280ED520E020467E
:10507C0010F8141F0129D5D1002101708AF80010F5
:10508C0047F6FF70009002200190B8F1000F09D193
:10509C002A682AB16969002090474FF0010801E0A5
:1050AC004FF000085BF8292012B12169684690473F
:1050BC00049801300490A9698842ABD3B8F1000F71
:1050CC0004D02A6812B169690220904705A811F032
:1050DC0043FC002607E005A811F03EFC2846002101
:1050EC0000F00AF8012606A811F036FC0BF016FAAF
:0850FC00304607B0BDE8F08F5B
:1051040038B50546006A80B10C460CF025F90090CC
:10511400A96939B11530002200F8012C00F81C4BA4
:0C5124000139F9D1684611F01BFC38BDC0
:1051300038B543F63074C2F2000494F8280000B188
:1051400038BD44F66040C2F200000121017044F60F
:105150002020C2F2000084F82810816811B941684B
:10516000890881605A2121620021102204EBC103C9
:1051700002FA01F51D6401311029F7D10221D0E9AD
:105180000020C4E903011044A0F11401C4E90D1288
:10519000012540F8105C2069411E02290AD3002035
:1051A000616B01EBC001821CCA60013021690139C9
:1051B0008A42F5D365626160E068A16B00F004F893
:0851C00000F0F0F8256338BD92
:1051C800F8B50E46044643F63077C2F200070844A5
:1051D800FA68B96B0A44013A904206D8026822B9C3
:1051E800456808F02FFD2C44B96BB14204D256F83B
:1051F800040C351A286888B33546002107EBC1002E
:10520800D0F8B820A24204D9013911F1100FF5D114
:1052180022E00F310F291FD800212A19C5E90014EF
:1052280042F8044C2D612A46D0F8BC3042F8083FB9
:10523800D0F8BC3003B15A60C5E90231C0F8BC20CF
:1052480038682044386097F8291029B9D7E902123C
:10525800101A814238BFB8602046F8BD6E682846EB
:0852680008F0F0FC3444C8E733
:105270002DE9F8430446FFF75BFF43F63077C2F2AF
:105280000007E21C386C3968A04298BF22F0030086
:1052900000F10C048C423ED87868396B884208D8FB
:1052A000481E386300F07EF8396B0131396390BBDA
:1052B0007868013878607D6A786B012100EBC5025F
:1052C00000F83510506878622DB30F2107EBC1004C
:1052D000006CA04202D90139F8D213E00F2911D88D
:1052E00007EBC100406C00BF40B1866836B1D6F80C
:1052F0000480A04513D2B068F6E700BF0131102941
:10530000EED100BF204608F059FC0F210028DDD067
:10531000284611F0CDFB00252846BDE8F883D7F8D4
:105320004090304608F092FC786B00EBC50009F124
:105330000C014660A8EB0400884238BF44460020B8
:10534000C6E90054B0603119A04541F8044C3661FB
:0C535000E2DDA8EB0400FFF737FFDDE70B
:10535C0080B5FFF7E7FE002043F63071C2F2000182
:10536C0001EBC002D2F8BC2022B9013810F1100FA9
:10537C00F6D10EE0916861B1002000BFD1E90121A6
:10538C00904238BF104611B189680029F6D10C380B
:08539C0008BD6FF00B0008BD15
:1053A4002DE9F04143F63077C2F20007F86A20B1E4
:1053B400386900EBD000041D09E044F62020C2F255
:1053C4000000D0E901010831B0FBF1F0841CE000D9
:1053D400FFF74CFFA8B306463869796B01EBC602A8
:1053E400D7F82C80526847F6F853C2F2000302F152
:1053F40008051B68C200284698477D63FE62611E4B
:105404003869884208D200BF05EBC0020130506001
:105414007D6B8142F8D1084605EBC001002048604D
:1054240079683A697A623C61A21A114479608045CC
:1054340008BFBDE8F081404611F0F6FA0020BDE84F
:08544400F0810120BDE8F081B8
:10544C0050F804CBC1F800C01944013AF8D17047A8
:10545C00D0F800C041F804CB1844013AF8D1704799
:10546C0070B544F6F42CC2F2000CDCF800C0BCF1B0
:10547C00000F02D0BDE87040604745F6240CC0F622
:10548C00110C45F2247EC0F6110E00BF50F8044BEF
:10549C00C4F30725E6B21CF805501EF80660C4F3E9
:1054AC00074406EB45151EF8044005EBC4240C809C
:0854BC001944013AEAD170BD68
:1054C40070B544F6D42CC2F2000CDCF800C0BCF178
:1054D400000F02D0BDE870406047A2F1010C0CFB44
:1054E4000300A1F1040E5B4245F2E46CC0F6110C1A
:1054F40045F2C461C0F611010488C4F3451504F0F3
:105504001F061CF805508E5DE40A46EA05250C5D6D
:1055140045EA044444F07F444EF822401844013ADA
:04552400EAD170BD9B
:105528002DE9F04F85B0CDE902138346012B34DB1A
:1055380016460F9D019200270298049507EB000A72
:105548000024022E18DB00BF0BEB040815F8019BA2
:105558004FEA19124046514610F018FA08F10100B6
:1055680009F00F02514610F011FA0234B01E032E52
:105578000646E9D801E000BF304630B104EB0B0025
:1055880029780A09514610F001FA049D0E9805443D
:1055980001370398019E8742CED105B0BDE8F08F50
:1055A8002DE9F04F91B001394FF0FF340D290DD896
:1055B8000546DFE801F0070B520B6E0F18357C9695
:1055C8000BA3B3430024002D00F0BC80204611B08B
:1055D800BDE8F08F44F29C00C2F2000000688169C7
:1055E80021F001015DE0C5EBC50044F69C11C2F253
:1055F800000144F29C0401EB8000C2F20004D2E9ED
:105608000012C0E9031220462B4612F09BFF04A9A2
:1056180003AA284610F0E0FCDDE90321204605E056
:1056280044F29C00D2E90012C2F200002B460DF0B1
:1056380050F80024204611B0BDE8F08FC5EBC50036
:1056480044F69C11C2F2000101EB80001168416030
:105658000024204611B0BDE8F08FC5EBC50044F624
:105668009C11C2F20001526801EB800351F820003E
:10567800DF685B697A4302FB030144F29C00C2F2D3
:1056880000002A4612F0A2FF0024204611B0BDE80F
:10569800F08F44F29C00C2F200000068816941F07A
:1056A800010181610024204611B0BDE8F08F44F269
:1056B8009C001268C2F20000012A006800EBC511C4
:1056C800D1F8843023F0010308BF0133C1F88430D6
:1056D800416A41F0010141620024204611B0BDE851
:1056E800F08F44F29C001168C2F200002A4612F0C2
:1056F8004DFF0024204611B0BDE8F08F1068002847
:1057080000F0598444F29C002946C2F2000012F0CD
:10571800E5FE0024204611B0BDE8F08F106800F4C3
:105728007F42C0F3074111442A4660F3174144F20F
:105738009C00C2F2000012F0B3FE0024204611B013
:10574800BDE8F08F43F6240542F20048C4F2020592
:10575800C4F2020804A94FF40046E868012740F49F
:105768000070E860E86800F40070049004980496FB
:105778000120CDE9050003200790404612F0E0F92A
:105788004FF40041002240460CF0A7FD142011F010
:10579800E3F94FF40041012240460CF09EFD7820C9
:1057A80011F0DAF9286A0E2140F080602862286A30
:1057B800002200F0806004900498286840F080601F
:1057C8002860286820F080602860E86840F40000BD
:1057D800E860E86800F400000490049855F8140C98
:1057E80040F4000045F8140C55F8140C20F400009F
:1057F80045F8140C286A40F000602862286A00F016
:10580800006004900498286840F0006028602868C8
:1058180020F00060286058200CF055FC582011F04A
:10582800BDFF44F6B815A8F53840C2F20005286057
:10583800284611F0FFFF64200490052004A9CDE953
:1058480005040420C5E9020728460CF074FC44F25C
:105858006C470220C2F200074FF4487A39464FF4E9
:10586800F07BF86040F6FF70C7E906047E20B86256
:10587800F020F86240F69E0038630C20F863C7E910
:105888000D004FF4005038654FF4805078654FF4A0
:105898000060B8654FF48060F8654FF400703866B2
:1058A8004FF48070786628464FF04009C7E90044F5
:1058B800C7E904A4C7E90844C7E910B6C7E91299BB
:1058C80011F0E4FF284612F0DDF844F29C06C2F21B
:1058D800000630460CF0EFFD3E2070610B20B061F1
:1058E800B620F0611820306240F2D63070624FF472
:1058F800FC70B06240F24E40F0624FF401703063C9
:1059080044F2EC10C021C2F20000C6E918AB4FF017
:10591800080AC0F800A041610321C161C4620CF00B
:1059280026FFA8F53C40306030463946B48686F8F4
:10593800364034610CF0F4FE304612F011FD786800
:105948000290002115220023284600940CF098FCB0
:1059580045F68840FF21C0F611003922CDE9001034
:10596800002103232846FF2612F0A0F880200021FA
:10597800152200230090284680270CF081FC4DF664
:1059880097600021C0F60E003922CDE9006002239D
:10599800284612F08BF8002115220023284600978C
:1059A8000CF06EFC302000211522C42300902846FC
:1059B8000CF066FC0A2011F0CFF88A20002115228D
:1059C8000023009028460CF05BFC00211522C4231C
:1059D8002846CDF800900CF053FC0A2011F0BCF8D2
:1059E800B120002115220023009028460CF048FC25
:1059F800A92000211522C523009028460CF040FC60
:105A08009120002115220023009028460CF038FC34
:105A180000211522C5232846342700970CF030FCB6
:105A2800B420002115220023009028460CF028FC01
:105A3800502000211522C023009028460CF020FC9D
:105A4800002115220023284600940CF019FC4E2052
:105A580000211522D923009028460CF011FC812042
