:020000040800F2
:1000000000000820CD27050827E00208C9DE020805
:1000100000000000000000000000000000000000E0
:100020000000000000000000000000009FE0020847
:10003000000000000000000029DD0208C92D0608AC
:100040000BE10208DBE1020827E2020893E2020862
:10005000EBE20208FFE20208DFE3020837E40208ED
:100060007FE502081FE60208A7E60208C7E60208C5
:100070006BE702081FE80208BFEB02086BED0208FD
:10008000ABED020867EE0208C3EE020803EF0208B8
:10009000C3EF0208D3F1020827F20208FFF20208B8
:1000A0003FF30208CBF30208F3F302083BF4020823
:1000B0006BF4020893F40208BFF40208D7F40208B4
:1000C0003FF50208A3F5020807F6020863F60208E6
:1000D000D3F60208B7F70208EFF702086FF8020834
:1000E000AFF80208D7F802083FF9020873F90208CE
:1000F000E7FA02087BFB02081BFC0208D3FC02089B
:10010000EFFD02086FFE0208ABFF020803020308BE
:10011000770403086B050308470603080F08030864
:10012000E708030817090308DB090308530A030853
:10013000E30A030885180608531603088317030803
:1001400053180308FF1803083F190308D94D060880
:100150005F1B03089B1C03081F1D0308D31F030814
:100160002B2003089F200308132103081B260308E4
:100170002F270308554E0608C7270308976703086B
:10018000572A03083B2B0308FB2B0308132D0308F6
:100190007B2D0308733E0308AB3E0308D73E0308DC
:1001A00085DC05081F3F0308EFB804080741030872
:1001B000D7410308FF4103082B4503088348030880
:1001C000F3490308BF4A0308DB5203088F530308AF
:1001D0001F540308E75A03089B5C03084F5D03089C
:1001E0008B5D0308D75D03081F5E03088762030861
:0801F0009F6403088365030806
:1001F8002DE9F04784B01C4615466FF4001C4FF0FB
:10020800FF3E1EF101024CF100030027C7F6F0770C
:100218003C4276D04F0047EAD0774600BEEB060650
:100228007CEB07076DD3670047EAD5776E00921B12
:1002380073EB07029FED440B5ED301F000480DF10C
:10024800080A21F00042CAE90002E94624F0004702
:10025800C9E900572B1A77EB020355D2C1F30A56A6
:100268002EB1012262F31F51CAE9000103E002A87E
:1002780064F07CFE0646380D03D0012161F31F545B
:1002880004E0484664F072FED9E90054DAE9001245
:10029800864210DD4B1B72EB040704D453EA0701B6
:1002A8001DD019463A46520042EAD1724900013E31
:1002B8008642EFDC0646481B72EB040304D450EA7E
:1002C80003010CD001461A46D0020CD4500040EA73
:1002D800D1704900013E12030246F7D504E0002020
:1002E80048EC100B08E01046002E18DD721E404442
:1002F80000EB025040EC101B51EC100B04B0BDE8B1
:10030800F0879FED110BF7E780EA05037A401A435F
:1003180006BF00224146024641EC102BECE7C6F12D
:100328000102D140C2F1200300FA03F319436FF030
:100338001E039B1B58BF20FA03F14CBFD04000207E
:100348000022D4E700BF00BF000000000000F87FD3
:100358002DE9F04141EC100BC1F30A52A2F1010C56
:1003680040F2FE739C454ED240F2FE339A4206D8C4
:10037800002929A0A8BF083090ED000B3FE040F20B
:1003880032439A423BD8A2F2FF32B2F120034FF433
:10039800801CC2F1200E0CFA0EF440F20005CFF6D4
:1003A800F07505FA0EF65CBF2CFA03F445FA03F66D
:1003B80006EA00082CFA02F64EBF154100264FF057
:1003C800FF350D4014EB08046E41914020FA0EF7FA
:1003D8003943002B58BF00FA03F16FF31F514CBF8C
:1003E80090400020084318BF01200021002DA8BF1D
:1003F8000121084004BF2E46444646EC104B51EC00
:10040800100BBDE8F081002A04BF01F0004110463E
:1004180041EC100BF3E700BF0000000000000000F3
:08042800000000000000F03F9D
:100430002DE9F04141EC100BC1F30A52A2F1010C7D
:1004400040F2FE739C454FD240F2FE339A4206D8EA
:10045000002929A0A8BF083090ED000B40E040F231
:1004600032439A423CD8A2F2FF32B2F120034FF459
:10047000801CC2F1200E0CFA0EF440F20005CFF6FB
:10048000F07505FA0EF65CBF2CFA03F445FA03F694
:1004900006EA00082CFA02F64EBF154100264FF07E
:1004A000FF350D4014EB08046E41914020FA0EF721
:1004B0003943002B58BF00FA03F16FF31F514CBFB3
:1004C000904000200843B0FA80F00021002DA8BF22
:1004D000012151EA50101CBF2E46444646EC104BF9
:1004E00051EC100BBDE8F081002A04BF01F000417F
:1004F000104641EC100BF3E7000000000000F0BFD5
:080500000000000000000000F3
:10050800F8B50C46054641EC100B4FF0FF3000EBF8
:10051800115040F2FE71884260D20020C5F6E870A2
:10052800A0EB5400C0F385314DF6E022C0F602027C
:1005380052F82110461A002031460022334615F0A1
:100548004FFB2A46234615F04BFB4FF0FF3252F083
:100558003AF802460B463049002015F033FB0022DA
:10056800334615F03DFB06460F4602460B4615F08E
:1005780037FB2A46234615F033FB4FF0FF3252F083
:1005880022F802460B462548254915F01BFB324642
:100598003B4615F025FB06460F462A46234615F02E
:1005A8001FFB04460D4632463B4615F019FB024632
:1005B8000B461C49002015F005FB22462B4615F07A
:1005C8000FFB4FF0FF3251F0FEFF22462B4615F08D
:1005D800CFF941EC100B51EC100BF8BD0020C7F619
:1005E800F070044208D0002C0CD44FF6FF70C7F608
:1005F800EF70844291D9EEE704F00040002140EC0E
:10060800101BE8E79FED020BE5E700BF00BF00BF46
:10061800000000000000F87F0000F83F0000C0FF65
:08062800FFFFF73F0000F03F67
:1006300070B52DED028B04460028054648BF654283
:100640009FED158BB0EE480AF0EE680A95B19FED6C
:10065000120B41F2B036C0F60006E80707D0D6E923
:10066000002351EC100B15F0BFFA41EC100B0836CB
:100670006D08F2D156EC105B51EC180B2A4633464C
:1006800015F054FB002CA4BF31462846BDEC028B6C
:1006900070BD00BF00BF00BF000000000000F03FC1
:1006A0002DE9F84F2DED068B90B092468946834692
:1006B0000020CBF800000DF12600013806909FEDD8
:1006C000C08B9FEDBD9BCDF820B019F8011B2529EB
:1006D00006D0002900F04986584664F037FDF4E75B
:1006E0000026484619F8012BA2F12003102B0DD843
:1006F0008021DFE803F0091B1B191B1B1B101B1BB0
:100700002F131B151B1B170040210DE05E2A0DD176
:100710004FF4805108E04FF4004105E0202103E050
:10072000102101E04FF400710E43DAE700F10109F6
:10073000A2F1300009281AD8002119F8010B01EBA9
:10074000810102EB41013039A0F130020A2A024650
:10075000F3D309E05AF8041B002944BF46F0100601
:100760004942427800F1020921EAE17801E04FF0C4
:1007700000082E2A0BD1484610F8012B2A2A08D14E
:1007800099F801205AF8047B09F1020914E00027C6
:100790001AE0A2F130010027092912D810F8011B34
:1007A00007EB870302EB4302A2F13007A1F130020D
:1007B0000A2A0A46F2D38146002F58BF46F48076B3
:1007C00002E0814646F480766B2A08DC4C2A03D08E
:1007D000682A0CD06A2A28D119F8012B1CE06C2A4F
:1007E00011D07A2A14BF742A19F8012B1DE048464B
:1007F00010F8012B682A12D199F8012009F1020999
:1008000046F0080611E0484610F8012B6C2A09D181
:1008100099F8012009F1020946F0020605E046F0C8
:10082000040601E046F001068146462A1FDDA2F1DA
:10083000630015282FD8DFE810F0480017004500A6
:100840002300AF0116001700160016001600160050
:10085000560063006D00160016007A0016007D0039
:1008600016001600360030E746F4804666E0442A5B
:1008700009DD452A24D0462A7FF427AF46F40056E6
:1008800046F400658AE1252A40F09A8258462521DF
:1008900064F05CFC19E7472A00F07C81582A7FF459
:1008A00014AF46F40056F0054FEA066048BF26F440
:1008B0000076782A43F2580108BF43F2780126E017
:1008C00046F4005646F4806568E11AF8044BA8F136
:1008D000010858463146424651F026FF5846214607
:1008E00064F034FCD0E1300700F16E82B007DAF832
:1008F0000000DBF8001052BF0160002206C068E271
:10090000F0054FEA066048BF26F40076302101EA80
:10091000E07514E03006232101EAE07546F48076A4
:1009200000215AF8040B08270DF1260CCCE05AF8E8
:10093000044B87E1F00548BF26F40076002506F059
:100940000200710405D42C4640B90AF104030021C9
:100950000CE0B8B95AF8040BC1171BE00AF1070004
:1009600020F0070A0AF10803DAF804100DF1260C4A
:10097000DAF80000750717D416F008051CBFC0B2DE
:10098000002113E00AF1070020F0070ADAF804104A
:100990005AF8080B0DF1260C730715D416F008034E
:1009A0001CBFC0B2002112E080B200219A46254649
:1009B0001CE000BF00BF00BF00000000000024409A
:1009C000000000000000000040F3C03100B2002928
:1009D00005DBB30609D4730648BF202506E00023D3
:1009E000404263EB01012D2500E02B25F30548BFB4
:1009F00026F40076F30558BF012700246E2A24DD73
:100A00006F3A092A00F28780DFE802F0055E8585EB
:100A100085852585855E50EA01027BD0AE46C208F9
:100A200042EA417200240625134665F3DF000CF804
:100A30000400013452EAD1004FEAD1014FEAD2005A
:100A400040EA41721846EFD162E0582A3CD0642A4D
:100A500018BF692A5FD150EA01025BD0CDE9045882
:100A6000CDF81CA006F4004800248A460546B8F1DB
:100A7000000F0AD004F00300032806D10DF1260B65
:100A80002C200BF80400013401E00DF1260B284660
:100A900051460A22002315F091FB00EB8002A5EBE2
:100AA000420242F030020BF804200134D5F1090271
:100AB0004FF0000272EB0A02DDF820B0D5D3DDF86A
:100AC0001CA0DDE9045826E050EA010222D0AE461F
:100AD000B20446F2FC42C0F609025CBF46F20C5278
:100AE000C0F609024FEA101343EA01734FF0000405
:100AF00000F00F051846535D0CF80430013450EA3D
:100B000011134FEA11114FEA101343EA0173EFD1A9
:100B1000754600E00024A8EB0400FF2D88BF0138D3
:100B2000002D294618BF0121401A391B21EAE1781E
:100B3000A0EB0807B00505D4584631463A4651F0B7
:100B4000F3FD0027FF2D03D9290A584664F0FEFA69
:100B5000002D2946069D1CBF584664F0F7FA5846FA
:100B600031463A4651F0E0FD58463021424651F0B8
:100B7000CCFD012C05DB295D584664F0E7FA013C09
:100B8000F9D8F0067FF5A1AD584620213A4651F03C
:100B9000BCFD9AE546F4005646F440650AF10700AC
:100BA00020F00700E905F0E802A658BF062705F483
:100BB0004061A1F54061B1FA81F1002F08BF4F09F2
:100BC00007905046314651F0F7FC90B153EC182B8A
:100BD0005046314615F01CFA15F40051F0B149F2B7
:100BE000D944C0F6070404BF49F2DE44C0F6070446
:100BF00024E05046314651F0D0FC00284DD0A804E6
:100C000046F21C54C0F609045CBF46F22054C0F6FC
:100C1000090425F48076DDF81CA013E049F2E342D4
:100C2000C0F60702104649F2E841C0F6070112BFBC
:100C3000541C08464C1CA90648BF0446DDF81CA0FD
:100C400025F48076002C04BF4EF67064C0F60604CE
:100C5000F00503D4204615F0A9FB03E020463946F1
:100C600064F04EFA054626F40076A8EB00085846D4
:100C70003146424651F058FD35B114F8011B584633
:100C800064F064FA013DF8D1F0067FF51EAD5846D8
:100C90002021424651F039FD17E55046314664F0B7
:100CA0004DF9CDF8148018B145F0600586F0004686
:100CB000504631460FAA64F043F953EC188B0F9855
:100CC00000EB400046F26761C6F2666150FB01F03E
:100CD000811001EBD0740F94504631464246049384
:100CE00015F01EF9C0B9601CFFF7A2FC524633464E
:100CF00015F08EF920B10F98411C0F910230F3E7E7
:100D00000F98FFF795FC5246334615F059F918B184
:100D10000F9801380F90F4E705F44061B1F5806F4A
:100D200003955AD0B1F5406F05D10F988742C8BFDF
:100D300010F1050F52DD680509D50F98C1430F4426
:100D4000102FA8BF10270E2840F39E8100270F9870
:100D5000103879428842B8BF0846FFF769FC4FF067
:100D6000FF3251F034FC5246334614F005FE824601
:100D70000E460F980130FFF75BFC5246334615F0E4
:100D800047F90F99002818BF0131002966D41129AD
:100D900041F2F838C0F600086BD3A1F110000F90B3
:100DA000C1F11000FFF744FC5246334614F01CFF1B
:100DB00015F066F906468A460020049001906CE022
:100DC000002A7FF482ACE3E2DAF80000DBF80010DE
:100DD00001700AF1040AFFF778BC0F980291B0F590
:100DE0009A7F08D1DFF8B425DFF8B4355046314694
:100DF00014F09CFF06E04042FFF71AFC52463346CF
:100E000014F0F2FE41EC1A0B55EC1A4B2046294621
:100E10004246049B15F084F80028DDF81CA040F041
:100E20008E802046294651F0C7FB002854D020462A
:100E300029464246049B15F0EBF8039B03F400514E
:100E4000002800F04281002949F2D944C0F6070485
:100E500004BF49F2DE44C0F6070447E1CDF804A020
:100E6000049600260F96B24641F2F838C0F6000804
:100E700013E05046314615F003F9049606465446F1
:100E80008A4615F02DF902460B462046049914F0C7
:100E90009DFE0190049100200F90059B25F4806435
:100EA00008F10800002506C80135711A7AEB020125
:100EB000F9D20F98D91B039B03F080023A4318BF65
:100EC000012213F0600318BF4FF0FF339A1A101A73
:100ED0000844401BA04647E158EC196B20462946C0
:100EE0003246434615F042F80F9D78B151EC1A0B8B
:100EF0003246434614F01AFF41EC1A0B3246434681
:100F000015F034F801350028F0D10F9551EC1A0B8B
:100F1000DFF890440022234615F07AF878B151ECBE
:100F20001A0B3246434614F05FFE41EC1A0B0022C6
:100F3000234615F06DF8013D0028F0D10F95029879
:100F4000B0F5406F3E4608BFB6F1010638BF3E46D9
:100F50007042FFF76DFB4FF0FF3251F038FB53EC5E
:100F60001A2B14F009FD0F4655EC194B049022463C
:100F70002B4614F0FBFF50B10498394622462B460D
:100F800014F0D4FE04900F460F9801300F90002EFD
:100F9000DDF814800398CDE901453FD000F40860E6
:100FA000B0F5006F3BD1102EA8BF10263046FFF7DA
:100FB0003FFB049A3B4614F017FE15F061F8054616
:100FC00008432BD08A464CF6CD42CCF6CC42A5FB4A
:100FD0000201531E05FB03110AFB0211C20742EA7C
:100FE0005102C90741EA5000D0F1993049F69910F1
:100FF000C1F69910904112D3284651460A22002387
:1010000015F0DCF805468A460A22002315F0D6F8CA
:10101000013E04D052EA0300EED000E000260F9C0F
:10102000039AA8EB060002F08001314318BF0121AA
:10103000401A05380590D00404D40094394602962D
:10104000012571E045F25650C5F2555054FB00F0B1
:1010500000EBD07000EB4000201A0230042859D871
:10106000DFE800F003495C03490004983946DDE9F4
:10107000012314F0B9FD0490013C00940F940598ED
:101080000138059002254CE028063FF560AE002FA0
:101090003FF45DAE3846FFF7CBFA5246334614F0C4
:1010A000A3FDC24B002214F067FCFFF7C1F953EC1B
:1010B000192BFFF7A1F84246049B14F031FF0028DA
:1010C0003FF445AE013FE5D140E6002949F2E34255
:1010D000C0F60702104649F2E841C0F6070112BF08
:1010E000541C08464C1C990648BF0446DDF8148081
:1010F00023F48076A6E5AC4B04983946002214F020
:1011000073FD0490023C00940F94059802380590FA
:10111000032506E000943946002502E00094394694
:10112000012526EAE6760296DDE9037027F40068D9
:101130000C4614F0A5FF06468A4614F0D1FF02467D
:101140000B460498214614F041FD0190049117F0DC
:10115000600F059C009818BF013C63F02DFF6328C9
:101160002046C8BF0138029F20EAE074CDF8148001
:1011700018F4047F0DD101280BDB41F2F838C0F6DA
:1011800000085846202163F0E1FF013CF9D100241A
:1011900003E041F2F838C0F60008059901F040007C
:1011A000890602D440B1202103E02D21002808BF88
:1011B0002B21584663F0CAFF0598C00607D434B106
:1011C0005846302163F0C2FF013CF9D10024013DB3
:1011D00008EBC50003C8321A7AEB010201D23022B3
:1011E00008E03022361A6AEB010A0132331A7AEB30
:1011F0000103F7D2D1B2584663F0A8FF002DE6D123
:10120000059E16F400650BD00F98012808DB013805
:101210000F905846302163F099FF0F980028F6DCB4
:1012200006F080003843DDF81CA045D058462E213A
:1012300063F08CFF0F9902971026102FB8BF3E461F
:1012400026EAE678002D404618BF401AFFF7F0F96D
:10125000012E24DB019A049B14F0C6FC14F010FF4D
:1012600005460E464746013F41F2F830C0F6000001
:1012700000EBC70003C82A1A76EB010201D2302224
:1012800007E030222D1A8E4101322B1A76EB010332
:10129000F8D2D1B2584663F059FF002FE3D102993A
:1012A000059EB1EB080007D0A8EB01055846302198
:1012B00063F04CFF0135F9D370054BD54521B004DF
:1012C00058BF6521584663F041FF0F98002805DBA1
:1012D00058462B2163F03AFF0F9806E058462D211F
:1012E00063F034FF0F9840420F90642815DB48F2FA
:1012F0001F55C5F2EB15A0FB0501302000EB511185
:10130000584663F023FF0F9850FB05F14A1102EB9A
:10131000D171642201FB12000F9046F26765C6F29C
:10132000666550FB05F0811001EBD07000F13001D3
:10133000584663F00BFF0F9850FB05F18A1002EB43
:10134000D17101EB8101A0EB410000F13001584661
:1013500063F0FCFE002C3FF4B8A95846202163F04E
:10136000F5FE013CF9D1FFF7B0B9DBF80C0028B16C
:10137000DBE9001291423CBF00224254584651F032
:10138000B9F9DBF8000010B0BDEC068BBDE8F88FB2
:10139000584651F0AFF94FF0FF30F4E7A0C8EB85A5
:1013A000F3CCE17F0000F03F000059400000E03F37
:1013B0000000000000002440000000000000594030
:1013C000000000000088C3400000000084D797415F
:1013D0000080E03779C34143176E05B5B5B8934631
:1013E000F5F93FE9034F384D321D30F94877825AFD
:0813F0003CBF737FDD4F157552
:1013F80001000000000000000A00000000000000DA
:101408006400000000000000E80300000000000085
:101418001027000000000000A08601000000000066
:1014280040420F0000000000809698000000000075
:1014380000E1F5050000000000CA9A3B000000002A
:1014480000E40B540200000000E876481700000092
:101458000010A5D4E800000000A0724E1809000092
:1014680000407A10F35A00000080C6A47E8D030065
:101478000000C16FF286230000008A5D7845630191
:10148800000064A7B3B6E00D0000E8890423C78A0A
:10149800034C206804348047FBE735F0ACF9FEE7DD
:0414A8004865090882
:1014AC0030B583B0044600680E38182800F264800A
:1014BC00DFE800F00D4B626262626262626262623D
:1014CC00626262156262626262626262680043F02A
:1014DC005EFF214603B0BDE8304044F0C1BE6068F9
:1014EC004FF4047101F05AFE0E21054657F058FDD9
:1014FC0049F2D0512846C0F6020145F0DBFC606889
:10150C004FF4006101F04AFE002145F0B4F8606828
:10151C0040F6010101F042FE002145F0ACF8606894
:10152C004FF4B07101F03AFE4EF69F610446C0F6DE
:10153C00060145F096F94CF2AC212046C0F60201AA
:10154C0003B0BDE8304056F041BF606844F03EFE49
:10155C000546606844F053FE6A1E431E4CF6DC657B
:10156C004FF0FF30CFF6C0750021CDE9000500200B
:10157C003BF008F903B030BD204603B0BDE8304065
:10158C0056F098BBA06855F099FFE168022935D157
:10159C0040F6010188421BD0B0F5006F2ED14BF6FE
:1015AC002C00C2F201000178012929D1002101701F
:1015BC005AF0EAFB4BF22C724BF23073C2F201027E
:1015CC00C2F20103014600201268891A196028E052
:1015DC004BF220700121C2F2010001604BF62C008D
:1015EC00C2F20100002101704BF23070C2F2010016
:1015FC0001604BF22C70C2F20100016003B030BDEF
:10160C00012101705AF0C0FB4BF230714BF22C737C
:10161C00C2F20101C2F201030A686168801A186003
:0C162C00084603B0BDE8304055F08EBE0B
:1016380030B583B00446006801381C281ED8DFE89E
:1016480000F00F1D1D1D1D1D1D1D1D1D1D1D1D2314
:101658002B1D1D1D1D1D1D1D1D1D1D1D1D1D42009C
:1016680047F038FD00EBD071412349106068002233
:1016780000930B4644F074FD03B030BD204603B020
:10168800BDE8304056F018BB43F083FE214603B056
:10169800BDE8304044F0E6BD606844F099FD054679
:1016A800606844F0AEFD6A1E431E4CF6DC654FF0E0
:1016B800FF30CFF6C0750021CDE9000500203BF0D2
:1016C80063F803B030BD606840F2611101F068FD55
:0C16D800012103B0BDE8304056F0C0BE58
:1016E4002DE9F04F9DB040F668704DF6FE31C0F61E
:1016F4000800C0F60601072236F00BFA51F090FB01
:1017040047F0EAFC044647F0F0FC4FF6DE61CFF602
:10171400FF714138B4F5BF7FA8BF6FF0D1012144F8
:10172400C217412301EBD1714FEA610800EB5271FA
:10173400CA1003EBE109A0EB420743F02CFE009032
:10174400022001900020002104904FF40070D22266
:10175400CDE90210404649463B4657F069FF8046B2
:101764002DF0B6FF404645F08CFD012158F058FBA2
:101774000121404645F007FE0121404645F0AFFDFA
:101784000521404657F0BCFF0521404657F09EFF17
:1017940045F67E624621C0F607020023404630F03B
:1017A40057F846F62D790021C0F6040940464A460A
:1017B40045F0C3FB45F683623221C0F607020223DB
:1017C400404630F045F8012140464A4645F0B5FB15
:1017D40040F678723C21C0F608020123404630F0FE
:1017E40037F840F655220221C0F60302404645F080
:1017F400A4FB404657F00EFC0DF12C0A49F20005FB
:101804000AF11400C0F602054FF0000B00244FF05B
:10181400000900260A900AF128074FF0FF300790CC
:10182400099704EB4400089005EB8007B86800288A
:1018340018BF51F081F978680138052800F2DD807D
:10184400DFE800F003878C919599CDE905644EF6A5
:101854004F4628271A25C4F6C4663C21504614F086
:101864002DFE14F041FD40F215224108C2F24D1242
:10187400A1FB02121109F62201FB120049F2EC113C
:10188400C0F6020151F82010504614F075FD14F012
:101894002BFD50FB06F1CA0802EBD17101FB1500C8
:1018A40041308DF8400014F01FFD50FB06F1CA08CA
:1018B40002EBD17101FB150041308DF8410014F0A9
:1018C40013FD50FB06F1CA0802EBD17101FB1500B0
:1018D40041308DF8420014F007FD50FB06F1CA08B0
:1018E40002EBD17101FB150041308DF8430014F077
:1018F400FBFC50FB06F1CA0802EBD17101FB150099
:1019040041308DF8440014F0EFFC48F6AD31099CE9
:10191400C6F6DB0150FB01F10A1302EBD17142F26E
:10192400107201FB120041F28831421A4DF68D41CA
:101934002046C0F6060150F0FEFE0A981AA9CDE929
:101944001B044046CDF868A003F09EFD013F84D1FE
:1019540041E00798471C45D3002149E086F0010681
:101964004046079946E0404657F072FE45E040463F
:1019740045F078FC41E0404657F078FE00284AD014
:10198400CDE9056449F28C1405460746C0F6020405
:10199400049E54F8290000230090404659463246DC
:1019A40003F08EFC09F101000BF1010AB0F11809F2
:1019B40018BF8146404657F071FEBAEB000B06F1A2
:1019C400010018BFD346461B18BF0646013FE0D1AD
:1019D40004960DF12C0A49F20005C0F60205DDE972
:1019E40005640AE0404657F059FE391A18BF3946D3
:1019F40040460791324657F055FB089855F82000A9
:101A040007F078FF202C0BD0013451F07BF800282C
:101A14003FF407AF04E049F20005C0F60205ECE725
:0C1A2400404601F0D1FC1DB0BDE8F08F81
:101A30002DE9F04F99B044F6506045F29941C0F657
:101A40000900C0F60701062236F065F851F0EAF900
:101A50004AF610600DF1180BC0F602005946CCC8CA
:101A6000CCC1B0E8CC02A1E8CC0290E8CC0281E87D
:101A7000CC0247F033FB814647F039FB09EBD971C3
:101A800080464908ADF82610ADF82800ADF84210A0
:101A9000ADF8440043F081FC034649F6C7620020DC
:101AA000C0F60302022105905846002700970197CF
:101AB00031F044F8064655F083FC834644F08CFB35
:101AC0000746584644F0A1FB83464FF41071304658
:101AD000029601F069FB39465A46039055F03AFEEA
:101AE000012035F0BEF900284FF270654FF26C60AE
:101AF0004BF2A8664FF260644FF25C674BF2B06B3A
:101B0000C2F20105C2F20100C2F20106C2F20104F2
:101B1000C2F20107C2F2010B12D002684AF29040F1
:101B20002968C0F602005AF0D9F930604AF22C4018
:101B300021683A68C0F602005AF0D0F9CBF80000EC
:101B40004FF26866C2F2010635F041FA0599834604
:101B500001EB41074AF67061C0F6020101EB870113
:101B60000491896811B1084650F0E8FF4AF67060A8
:101B7000C0F6020050F82700834423E002462060AC
:101B80004FF25C67DAF80000C2F2010756463B6884
:101B90001B183B6044BF404230604F88A8EB0707EA
:101BA000BB42C4BF404230604BF2B060C2F20100A1
:101BB000006836F0C9FC642007F09EFE35F007FA95
:101BC000584562DA50F0A0FF002840F0B1800120B3
:101BD00035F047F90028EED04BF2A4620021C2F2A2
:101BE0000102B24610680428B8BF411C11604AF6D1
:101BF0004862C0F60202286852F8211000F10A0279
:101C00002A60088840424A4502DC8242484601DA9E
:101C1000024628604FF264664FF26C67C2F201061A
:101C2000C2F2010730683B681B183B6044BF40426A
:101C300030604F88A8EB0707BB42C4BF404230600A
:101C40004BF2A860C2F20100006836F07DFC4BF256
:101C5000AC620021C2F2010210680428B8BF411C26
:101C600011604AF65C62C0F60202206852F8211048
:101C7000A0F108022260088840424A453FF77EAF43
:101C800082424846FFF67AAF7AE7039856F098F911
:101C900014A9824656F074FA04984068013807285F
:101CA0002DD8DFE800F004080C1014212628039832
:101CB00044F0A5FD23E0039856F0BEF91FE050461E
:101CC00044F0A0FD1BE0504644F0A9FD17E0149835
:101CD000E0B1159818B34BF2740201215046C0F6DA
:101CE000020256F01BFA0AE00121039856F07EF931
:101CF00005E0002100E00121039856F03FF9059826
:101D0000013005902B287FF41FAF11E04BF29C02AD
:101D100002215046C0F6020256F000FAEFE74BF2FD
:101D2000880200215046C0F6020256F0F7F9E6E7B5
:101D3000012035F096F868B14BF2A860C2F20100BC
:101D4000006847F077FF4BF2B060C2F20100006814
:101D500047F070FF029801F039FB35F004FB19B031
:041D6000BDE8F08F5B
:101D64002DE9F04104464AF27818C2F201084046CF
:101D7400054690F87B0090B1D5F8840058B98820C6
:101D840054F0FEFFC5F8840028B10021882214F025
:101D940099FBD5F884000028EAD1002625E0D5F87F
:101DA4008470002628460021882214F08BFBC5F895
:101DB400847040F20310A5F87C00012085F87B00B4
:101DC400606880B1804700280DD4032185F87A101B
:101DD40028712C600120687298F88800013088F816
:101DE40088002E4601E085F87B603046BDE8F0812E
:101DF4002DE9F843002847D0804614F0D5FA4AF27A
:101E04007816C2F2010600283FD0814640463A21A6
:101E140014F0FAFA10B3A0EB0809417831B18078D4
:101E24003A2803D1A1F13000C5B200E000253446C0
:101E3400207985420DD1216809688847074614F046
:101E4400B3FA484505D1384641464A4650F009FCA4
:101E5400F0B1D4F88440002CEAD100BF96F87B009E
:101E640070B1D6F880705FB1384614F09DFA4845D9
:101E740006D1384641464A4663F00AF928B100BF04
:101E8400D6F88460002EE9D100263046BDE8F883F8
:041E94002646FAE7FD
:101E980010B5944600EB400E4BF2EC14C2F201046C
:101EA8000022042838BF04EB8E02032888BF10BD27
:101EB800C2E900130020012101FA00F39C4503D078
:0C1EC80001301028F8D11020107210BD5D
:101ED40038B54AF26410C2F20100006988B10446C0
:101EE400007B80B1606B0028F8D1382054F048FFA3
:101EF40060630028F2D00021382214F0E3FA606B0A
:101F0400ECE7002408E0656B20460021382214F039
:0C1F1400D9FA656301202073204638BD17
:101F200051430A22012901D1012104E04908013A63
:0C1F300018BF0129FAD1D0404843704787
:101F3C0070B5044600254BF26816C0F6020600BFC9
:101F4C007159204614F0E0F920B10835782DF7D1FD
:081F5C00002070BD701970BD7A
:101F6400F8B53FF03AFB20B34AF26415C2F201051A
:101F74008600EF88400154F005FF044606FB07F095
:101F840054F000FF4CB140B13EB1211D324600BFB8
:101F940041F8080B3844013AFAD12C602E7118200C
:101FA40054F0F0FEE860382054F0ECFE2861012083
:041FB4002872F8BDDA
:101FB8002DE9F04F85B01D4616460F4683468469C5
:101FC80053F084FE0E99FCB180464FF000090029B9
:101FD80018BFC8460495CDE90276BA4627690F9B13
:101FE800584651463246B847002808BF4FF0010905
:101FF8004644013D0AF1010AF0D1B9F1000F049DF0
:10200800DDE902760E9909D01098CDE900105846FE
:10201800394632462B463BF010FD00E0002005B063
:04202800BDE8F08F90
:10202C002DE9F84F85699DB11C4692460E468146B6
:10203C00DDF8288053F048FE834600BF6F684846A1
:10204C00314652464346B847DA440136013CF5D195
:04205C00BDE8F88F54
:1020600070B51446007A4BF2D432C2F2010252F833
:10207000205095F8210020B3E88B08B1012070BDF5
:10208000FCB10E46284631462CF00EFB01460130CD
:1020900011D12868A969814208D128462CF014FB87
:1020A00088B928462CF0C8F968B90021686A40F858
:1020B0002160481CA861284653F04CFE0136013CC3
:0C20C000E0D1002070BD0020A861D7E72F
:1020CC00F8B5866916B30C460546002795F821002D
:1020DC0038B1F808E96A085C07F00701C840C00786
:1020EC0011D16969A86A3944012223463BF0E5FC09
:1020FC0068B9686A224650F8271028463CF02BFA3B
:10210C00002818BFF8BD0137BE42DFD10020F8BD52
:10211C00F8B5044690F8210078B3A06968B3461E60
:10212C004FF0FF3100220120002700BF80B1F808DA
:10213C00E36A185C07F00703D840C00708D0606A50
:10214C0050F8275052B15018A84203D1013200BFA9
:10215C000D4604E0A06A53F0EBFD70B90122BE42BB
:10216C0004D0013794F821002946DFE72AB1A06A90
:0C217C002946BDE8F84053F0DBBDF8BD7B
:102188002DE9F04F8BB0DDE915E90446DEF82C7037
:10219800149D97B10694DEF808401798A68EB7F8F4
:1021A80008B00895744204EA010C1C408C422CFAD1
:1021B8000BFA04D934461A460AE04A4691E00A4422
:1021C8009A4238BF1A46711E11EA020408BF344603
:1021D800D7F80080CEF8302024FA0BF5079053F09A
:1021E8006FFB0A90CDF81490484653F069FB0346FC
:1021F800CDF82480CDF810B045B3CDE9024605FAF4
:102208000BF00190012000FA0BF64FF0000900BF17
:10221800786803EB09024468CDF800A00A9800EB3F
:10222800090140469B463346A0475B46DDF82480BB
:10223800B144013D0AF1010AEAD10A9848440A90DA
:102248004B44DDE90104251A039E00E02546A6EB70
:10225800040BEDB1786800218289A1EBD20115EA5F
:10226800010918D0D0F804C0CDF800A0DDE90907AD
:1022780039461A4698464B46E047B5EB09054F44A0
:1022880024D0C8440AF1010A069CDDE9042007E0CD
:10229800069C0A9F1BE0069C0A9FDDE904209846DD
:1022A8004FF0FF3101FA02F653F00AFBA8EB0000E9
:1022B800B04318BFA8F1010000905FFA8AF33846CE
:1022C80041462A462DF07EF82F4400E0069CBBF1DB
:1022D800000F04D03846FF215A4614F0F1F8DDE922
:1022E8000725204629460BB0BDE8F04F3CF0D9BA87
:1022F8002DE9F04F89B09B4689460146D66A002EE3
:1023080055D01546129C2046002200233AF087FB40
:1023180020463AF066FC002840F08380A868296BC4
:10232800808E3589424201EA0203471E394008BFC0
:1023380001464B4588BF0146CDE9061621FA05F846
:1023480002EA090020FA05F73668CDF810B05846B9
:1023580053F0B6FA0590204653F0B2FA8346B8F126
:10236800000F2FD008FA05F0CDE90205012000FA88
:1023780005F54FF00009DDF814A00896079E00BF88
:1023880070680AEB0901846800970BEB090208984A
:102398002B46A047A9440137B8F10108F0D1CA4437
:1023A800CB44069CDDE90205241A089B0DE058463B
:1023B800002200233AF033FB584609B0BDE8F04F3D
:1023C8003AF00FBCDDE905A4334600204CB3079969
:1023D80049688A89A0EBD20014EA00060CD0D1F82B
:1023E80008C00097184651465A463346E047A41B92
:1023F80016D0B344B24401374FF0FF3000FA05F667
:10240800049853F05DFAAAEB0000B04318BFAAF194
:1024180001000090FBB250465946224600F01CFDD0
:08242800002009B0BDE8F08FAF
:10243000F8B51C460D460646202114F045F8012C3F
:10244000B8BFF8BD4FF20877C2F20107396815F836
:10245000010B4968884706F8010B013CF6D1F8BD2D
:102460002DE9F04786B01446884605460020CDE9A0
:10247000040010462AB995F852002028204608BFCB
:10248000A86C05F13009CDE9020002AE28464146AC
:10249000324653F069FE07460498013004902FB18C
:1024A0003878E52846D00028F0D143E0ECB3029A12
:1024B000002728464146002300F06EF902462846D0
:1024C00041463DF08EFD0646404653F0D7F98EB3A7
:1024D00040463AF0D2FC68BB404653F0F5F904465A
:1024E000404653F0F5F98246AA8E2046002113F0AB
:1024F000EBFF484631463DF0BEFB064695F85020BE
:102500000120CDE900005046314623463BF02BF92F
:10251000054640463AF051FB65B940463146012236
:10252000012353F0C9F9274604E0B5F84C00002810
:0C253000BDD00027384606B0BDE8F0879B
:10253C002DE9F047994616460D468046012A98BF6C
:10254C0001264FF0FF3700240D2C30D0BA462F5DFA
:10255C0038463DF0A6FE50B32E2F07D1B9F1000F2F
:10256C00274604D1BAF1000F01DB20E057460134B5
:10257C00A642E9D1781C08BF37460120AFB1082F1D
:10258C0013DCF41B042CC8BFBDE8F0874046294679
:10259C0008223B46FFF746FFE819411C08F10800EA
:1025AC00631E0322FFF73EFF0020BDE8F0870120E9
:0425BC00BDE8F087FF
:1025C0002DE9F04383B088468146684611461A4695
:1025D000012353F095FE20B10027384603B0BDE833
:1025E000F0830A9E48464146324653F0BDFD00281E
:1025F000F2D007460B9D6C4638780028ECD0384660
:1026000021460B2250F02FF830B9F87A00EA050184
:10261000A94201D10828E0D1B0680130B060484635
:102620004146324653F0A0FD07460028E4D1D3E7E7
:102630002DE9F04F83B01D469246884681461A60C8
:1026400010462BF053FE012600270024824501D0BE
:10265000D34606E000F1010BC5F800B058462BF058
:1026600045FE8246C0B1AAEB0B03012B14DB002010
:1026700000971021CDE90110484641465A4654F0D2
:1026800067F978B104463DF042F807460E99481CB8
:1026900001D08F4209D0013628682BF027FE002890
:1026A000D4D104E00024002601E000260F460C9857
:1026B00007600D9800B10460304603B0BDE8F08FAC
:1026C0002DE9F84F33B39B4690468A46044653F0B3
:1026D000B3F902281ED1A06E0130C4E9198094F824
:1026E0005290A68E08F10105B9F1100F14D0B9F17E
:1026F0000C0F14D1E08E05EB550727FA00F06A465F
:1027000003212CF077FE701E00990229014618BFA4
:10271000B11E07E000253CE0701E6F0001E0701E56
:10272000AF0001463840081A98BF3044C000B0FBE3
:10273000F9F02844616D4F1CB84238BF0746BD42CE
:1027400013D800BF204651462A463DF00AFB38B94F
:10275000A06E0130A0660135BD42F3D9002506E028
:10276000013002D16FF0060500E00025A06E80B1B7
:10277000C4F870B0DBF80000426A3AB12046514616
:10278000434653F071FF002818BF0546E06E013044
:08279000E0662846BDE8F88F61
:102798002DE9F0411E46884607460024154638466E
:1027A800414601233DF0B7FB28B102460134786D5C
:1027B8008442F3D9002406B134602846BDE8F0818C
:1027C80010B590F850C04FF0FF334FF0010E00BF26
:1027D80001331F2B03D80EFA03F46445F8D10239EC
:1027E8009A40836B01FB0C31BDE810403BF0CDB83B
:1027F8002DE9F84398460D4604460668C768104612
:1028080053F034FD04F1040937B9A26806F1300029
:10281800494653F099FC00BF304641464A4653F0BA
:102828009FFC0446484653F01DFDACB12078E528CE
:10283800F2D0D0B1E07A0F28EED010F00800EBD13A
:10284800D5E9050122462CF0C1FC204629463DF079
:10285800E6FD0020BDE8F88340463AF00AFB002870
:1028680008BF6FF00600BDE8F8830120BDE8F883D3
:1028780010B584B0044653F035F940B120463AF01B
:1028880072FE20B901A920463BF041F810B10020A2
:1028980004B010BD002202994BF2F010C0F60200FD
:1028A80083588B4202F10C0302D83C2A1A46F7D10E
:1028B800184494F8501030F8080C401AB0FA80F018
:0428C8004009E5E7F7
:1028CC002DE9F04F8FB0994682464D88B1F800B093
:1028DC0048680C90B1F8088010880D9050680E90E4
:1028EC00D2E90276147D50880B90504653F0F8F8DC
:1028FC0000287BD000208AF879002CF099FD002864
:10290C0077D002464AF26410C2F20100A8F101012C
:10291C00C08889B2814280F08580002D08BF3F2598
:10292C00BBF1000F08BF4FF0FF0B202CCDE9055B6E
:10293C00CDF8288060D0002C61D1CDF81090CDE975
:10294C0002A20B9820F00F094FEAC8000790002450
:10295C00DDE90D65A84600BFA01C484628BF4FF412
:10296C008070B9F1000F08BF8146002C204618BFBB
:10297C0048460B9040010A9954F0EAF90121002CC9
:10298C0008BF2021002D08BF88460E9A0990954259
:10299C0018BF884640440C990F1A97FBF6F04BF27F
:1029AC003821C0F6020101EBC405023095F810B0D5
:1029BC0000FB0BF0C246DDF81C80414654F0C8F910
:1029CC00A7EB400090FBF6F7B81CCDF820B000FB4D
:1029DC000BF0414654F0BCF90146A01C57D0686975
:1029EC00013C87425546D046B6DB55E06FF01604E5
:1029FC0049E06FF0170446E00894002007E00894C3
:102A0C000B9840014146144654F0A2F92246DDF8D9
:102A1C00388008EB460529180D9B07FB03110C9B0E
:102A2C00994202D96FF002042AE00E960C9109909B
:102A3C00104600211646DDF828B05A4613F03EFD2C
:102A4C000124009450460021324602233AF015FF2F
:102A5C0098B90795CDF810900E9845003046002196
:102A6C005A4613F02BFD0220CDE900045046414696
:102A7C002A4633463AF071FE08B36FF0070432462B
:102A8C0010462CF0EDFC20460FB0BDE8F08F40F660
:102A9C00F5708742D0460ADA012FDDE902A2DDF893
:102AAC00109009980E46B4DA6FF01804E8E7471E48
:102ABC00DDE902A2DDF8109009980E46A9E7D94687
:102ACC00FF20B0707070F821317008990C29B34652
:102ADC000FD0F07020290CD1301D6FF0704154F0E4
:102AEC003FF90BF108006FF0704154F039F90120F7
:102AFC0000E00020039000200124012500940E9991
:102B0C0000FB01815046324602233AF0B6FEE8B98A
:102B1C00E8074FF001004FF000055E46EED130465D
:102B2C0000214A4613F0CAFC0B9800284FF0010014
:102B3C00CDE900005046079D14BF099C0D9C294609
:102B4C00224633463AF009FE049E18B16FF0070492
:102B5C005A4695E70398E8B309945D465846002118
:102B6C004A4613F0ABFC45F25221C4F261115846AF
:102B7C0054F0F6F80BF5F27047F27221C6F24111DF
:102B8C0054F0EEF80BF5F470791E54F0E9F80BF5EF
:102B9C00F670032154F0E4F80BF5FF704AF655215A
:102BAC0054F0E6F801240094504601215A460223C1
:102BBC003AF063FE18B16FF007042A4660E7009400
:102BCC00504607212A4602233AF057FE0028099C5A
:102BDC00079DBBD15F46584600214A4613F06EFC58
:102BEC00E9203870F81C48F63901C0F607010822B4
:102BFC0013F02EFC0BF10B00494654F0B9F80D986C
:102C0C0078730BF10E00414654F0B2F80220387480
:102C1C000BF111000B9954F0ABF80C99A046080C71
:102C2C0004D107F1130054F0A3F803E007F12000DE
:102C3C0054F096F8DDF82090F820787507F118001C
:102C4C00059954F095F807F11A00069954F090F88C
:102C5C00DAF8281007F11C0054F082F844F267549B
:102C6C00C0F22314039878B3292087F842008020FF
:102C7C0087F8400007F124000E9954F071F807F121
:102C8C002C00022154F06CF807F13000012154F0B3
:102C9C006FF8062087F8320007F14300214654F004
:102CAC005FF807F1470044F6F071C0F609010B22FA
:102CBC0013F0CEFB07F1520048F65401C0F60701A1
:102CCC00082213F0C5FB2AE0292087F82600802073
:102CDC0087F8240007F12700214654F041F807F14A
:102CEC0016000E9954F044F807F12B0044F6F071DD
:102CFC00C0F609010B2213F0ABFB07F13600B9F15A
:102D0C000C0F04D148F64201C0F6070103E048F667
:102D1C004B01C0F60701082213F09AFB5F4607F53A
:102D2C00FF704AF6552154F023F8012000905046CC
:102D3C0000213A4602233AF0A0FD00287FF406AFAA
:102D4C00039850B101200090504606215A460223A8
:102D5C003AF093FD00287FF4F9AE00244EB1DAF876
:102D6C00280030B150460C994A465B463DF087FE30
:102D7C0004469AF87D0000283FF4EAAE08EB050102
:0C2D8C000C98421A50463AF0FEFDE1E6B9
:102D980070B58AB00446D1B10D4607AE3046002161
:102DA8000C2213F08DFB01A80021182213F088FBD8
:102DB800204652F097FEA0B3204652F07FFC002830
:102DC80045D1686880B390E80E000EC630E007A8C9
:102DD80000210C2213F074FB01A80021182213F023
:102DE8006FFB204652F06AFC88BB07A920463AF0E0
:102DF8008EFDA06A00281ABFE06A0890089840B3C0
:102E08004BF25021C0F6020151F8082B9042FBD832
:102E180011F8040CADF8040031F8020CADF8060006
:102E28000FE06FF0160012E007A920463AF06FFD98
:102E3800A06A20B1E06A0899814288BF0890286892
:102E4800019007A901AA20460123FFF73BFD0AB01C
:082E580070BD6FF01900FAE7EC
:102E600000B58C460199002914BF0978A52100BF3F
:102E700059401CF801EB81EA0E01013A00F8011BF0
:042E8000F6D100BDCA
:102E84002DE9F04F85B09A46934688468146002046
:102E9400CDE9030004A80121CDE90010484608212A
:102EA4000022002352F02AFD044600285AD1049837
:102EB400002857D003A80021CDE900104046142172
:102EC4000122012352F01AFD0400049826D103992B
:102ED40021B352F06BFFF8B1044603982146002257
:102EE40052F0FEFC039839F07EF903980021002289
:102EF40052F0F6FC04AE03AF04985946524639F03A
:102F04002CFB78B10546039859462A4638F077FDDC
:102F1400A84206D1641BEFD1002406E03AF02DF854
:102F240020E03E463068B0F90C4004983AF025F8A9
:102F340003983AF022F81CB1404652F0D3FC11E059
:102F440002A900244846002252F0B2F902994046F0
:102F5400002252F0D5F948463EF007FE01464046AD
:0C2F64003EF079FD204605B0BDE8F08F7E
:102F700038B5044654F032F8014600BF002051B184
:102F80000D46A14208BF38BD28465AF037FB016AFA
:082F9000A1422846F2D138BD30
:102F980010B50C46002158B154B100BF5AF02AFBB5
:102FA8008069A04203D00028F8D1002100E0012167
:042FB800084610BDFA
:102FBC002DE9F04F85B00DF1040C8CE80E00C669BC
:102FCC00002E56D0304648F027FB0490816AC58805
:102FDC008488B0F90030B0F90290039801F42072A3
:102FEC00802A824605D0B2F5207F8246019818BF10
:102FFC00824601F4A061B1F5807F0E9A934606D00B
:10300C00B1F5A06FDDF838B0029A18BF93461FFADD
:10301C0089FC99B2084407B2F91A0CEB02000FFABA
:10302C0080F8A8EB090251EA020006D03046009461
:10303C001C4641F0C0F92346009C04EB0A0005EB4A
:10304C000B0109B2A1EB080100B2C01B2AB2A9EB1B
:10305C0002020A4421B2591A014451EA020002D078
:10306C00304642F0E2FF0498066A04A85AF0CAFA05
:08307C00A6E705B0BDE8F08FE6
:103084004BF26472C2F2010213685BB183420AD04C
:10309400D3F800C0BCF1000F04D084451946634640
:1030A400F6D101E070470021006809B1086070475B
:0830B40000B900201060704714
:1030BC00F0B585B00C46054601A891E8CC00CCC013
:1030CC000D2001900395284654F008FB80B101AE09
:1030DC002F4600BF384642F0EAF9074618B104946F
:1030EC0031463FF058FE384654F0F8FA0028F1D13A
:0C30FC00284621463FF04FFE05B0F0BD15
:10310800F8B5044658F044FE684646F000FD00B3A2
:1031180006466D463046012146F01FFD01460098DF
:1031280080B179B15AF066FA4068A0420AD1009F8E
:103138003046294658F08AFD0646384653F0C8FFFF
:1031480005E000BF3046294658F080FD0646002EAF
:08315800E0D146F019FDF8BDBD
:1031600038B5F0B1044658F017FE204653F040FF42
:1031700040F0B5FD05460446204642F050FE3CB105
:1031800030B9204640F0ABFD0446A842F4D12C46AD
:1031900020462CF09FFA002818BF002446F0F8FCC7
:0831A00000E00024204638BDC8
:1031A80070B582B0E0B10C46054658F0F1FD2846EE
:1031B80048F034FA0190C56901A85AF025FA00BF11
:1031C80085B1284654F07CF9A0420DD02846214606
:1031D80000F012F850B928465AF00CFA056AEFE7E1
:1031E800002606E0002602E02E4600E0064646F0ED
:0831F800CBFC304602B070BDB3
:1032000070B50C4605465AF0F9F9C6694EB130461C
:1032100054F05AF9A04217D030465AF0EFF9066A36
:10322000F4E728465AF0EAF9C56900BF4DB12846CF
:103230002146FFF7E5FF30B928465AF0DFF9056A65
:0C324000F4E7002600E00646304670BDB2
:10324C0001B32DE9F04383B01C4691460F468046EE
:10325C00084648F0E1F906460090856AA80729D58A
:10326C0001A84146324646F07EF918B340F60100FB
:10327C002840012807D1B169326A01A82346FFF71B
:10328C00DFFF05E0704701A93846224654F0D2FA18
:10329C00F6697EB14E450DD001AF00BF30463946C0
:1032AC0022462CF013FB30465AF0A2F9066A0EB1F6
:1032BC004E45F3D168465AF0A5F903B0BDE8F0834A
:1032CC00D1B32DE9F04184B00E46044648F0A4F980
:1032DC00054600202862AE610395304648F09CF903
:1032EC0007460290C66946B3D5F82880304648F0A8
:1032FC0093F9019018F0080803D190F82800000702
:10330C0024D402A85AF07EF901A85AF07BF9304671
:10331C005AF06EF9019050F8206FA6B130465AF071
:10332C0067F9B8F1000FF5D190F828100907F1D51D
:10333C00019804622E6207E07047FC6103A85AF002
:10334C0061F902A80BE0046003A808E0FC612E629E
:10335C0003A85AF057F902A85AF054F901A85AF0E8
:08336C0051F904B0BDE8F08145
:1033740048B338B5044648F053F90546009090F830
:10338400280080071BD5686A50B14BF26C71C2F2F9
:1033940001010968A14203D057F072FD0020686260
:1033A400204642F0C8F950B1044600BF2046FFF75A
:1033B400DFFF20465AF020F9046A002CF6D1684653
:0833C4005AF024F938BD7047EE
:1033CC00002800F09880F8B5044658F0DFFC204641
:1033DC002CF068FA002800F08B8020462CF0AAFA1A
:1033EC00054620460B2142F04AFF2046FFF786FE99
:1033FC00204648F011F906460090406A08B157F093
:10340C003BFD4BF21C70C2F20100002101604BF23B
:10341C007870C2F201004AF6C872C2F2010200686A
:10342C0052F82030A34208BF42F820104BF248015A
:10343C00C2F2010151F82020A24204BF002241F83F
:10344C0020204BF26470C2F20100006838B10021F8
:10345C004268A24208BF416000680028F8D12046AB
:10346C00072142F09AFDF069FFF7AAFFF0690028E6
:10347C00FAD1204642F0DCFE4BF28470C2F201001D
:10348C00006800BF50B15AF0B3F807464069A0423B
:10349C00F8D120465AF0ACF840697861B06AC1079F
:1034AC0006D04BF27471C2F201010A68013A0A604B
:1034BC00800606D54BF2FA70C2F201000188013980
:1034CC00018068465AF09EF84BF2F670C2F2010089
:1034DC0001880139018020465AF0F8F8002D07D4F4
:1034EC004BF20800C2F2010050F8250042F07EFFBA
:0834FC0046F048FBF8BD7047E3
:103504002DE9F04788B0804648F08AF802ADD0E94A
:103514000212C5E9001201900769866A01A85AF0EF
:1035240075F8002F47D016F0020044D040462E21F3
:1035340042F0FAFD4BF62F04C2F201042078013068
:103544002070F0041FD40DF10809484654F0ACFA79
:1035540050B34FF00F0A4FF2CC65C2F201050027B9
:1035640004AE00BFCDF81C90CDE904A847F003FDDC
:1035740028683146476440463FF0ABFB2CF0F8F92D
:103584000028EFD110E007950F20CDE9040847F09B
:10359400F2FC4FF2CC60C2F20100006800214164E9
:1035A40004A940463FF095FB20780138207040463E
:0C35B4002F2142F0B9FD08B0BDE8F087FF
:1035C00038B5044648F02EF80090806A40F60101B4
:1035D0000840012805D068465AF01AF8204642F003
:1035E00051FF4BF27470C2F201000068E8B120464E
:1035F00000F066F920465AF001F88469ACB100BFCA
:10360000056A002DF6D0284659F0F8FF806A00F0D0
:103610000300032802D1284642F047FF284600F065
:0C3620004FF9284659F0EAFFEAE738BDF0
:10362C0010B5044600680F280BD00E2829D1E0688D
:10363C004168012918BF10BD0068BDE8104046F074
:10364C00D3BD616800204BF20802C2F2010200BF38
:10365C0052F820308B4204D001301028F8D14FF0B2
:10366C00FF304BF28801C2F2010151F820004CF6F8
:10367C00EF51C0F2AB01884203D047F04DFC59F03A
:0C368C00CFFB2046BDE8104054F014BBFA
:1036980038B54BF63001C2F20101002008704BF634
:1036A8002501C2F201014AF6C87208704BF2647132
:1036B800C2F20101C2F2010208604BF24801C2F2F3
:1036C8000101002341F8230042F823000133102BA5
:1036D800F8D14BF27070C2F20100002505604BF280
:1036E8007470C2F201004FF2E06405604BF28C7016
:1036F800C2F20100C2F2010405604BF29070C2F2FE
:103708000100002105604BF21C70C2F20100182272
:103718000560236840F29800C2F2000098474BF217
:103728006870C2F20100002105604BF20800C2F285
:10373800010000BF40F8215001311029FAD1236857
:103748004AF21470C2F201000021802298472368CF
:103758004AF29470C2F2010000218022984723683F
:103768004AF29460C2F201000021802201B0BDE853
:04377800304018477E
:10377C002DE9F04184B000284FD014460D46064682
:10378C000DF10C086F4600BF304647F045FF01466F
:10379C000390866AB00739D524B13846224645F0E5
:1037AC00E2FE02E003C9C7E900012846394659F098
:1037BC00E3FB58B3F007039814D1B0F9020024B11D
:1037CC00B4F902108842D8BF0846B5F902108842F5
:1037DC0015DDB5F90610BDF90200884216DC01387A
:1037EC00E88013E0C66900BF86B1304629463A46E8
:1037FC00FFF7BEFF304659F0FBFE066AF4E7B5F959
:10380C000610BDF906008842B8BFE8800398066A26
:10381C00404659F0F7FE002EB6D104B0BDE8F08159
:10382C002DE9F04383B000283FD091460D46044665
:10383C0000270DF108086E46204647F0EDFE0146C4
:10384C000290846AA00717D5B9F1000F04D0304656
:10385C004A4645F088FE02E003C9C6E90001284645
:10386C00314659F089FB38B1E0070DD1BDF80400A1
:10387C0001302880012700BF0298046A404659F0A5
:10388C00C1FE002CD8D111E00298C469002CF3D0F1
:10389C00204629463246FFF7C3FF002818BF0127F0
:1038AC00204659F0A5FE046AF0E70027384603B01D
:0438BC00BDE8F083F0
:1038C0002DE9F04383B0814647F0ACFE019090F8BB
:1038D0002810890742D5C769002F3FD001AD02AE3D
:1038E000384647F09FFE0290816A01F003010329E8
:1038F0002ED10199083159F045FB38B30198D0E930
:103900000284284659F084FE304659F081FE38463C
:1039100042F0CBFD70B1384659F070FE0290384647
:10392000FFF7CEFF384659F069FE0290484659F03D
:1039300065FE0190484647F075FE0190384647F015
:1039400071FE0199C1E90284029001E0029800BF72
:10395000076A304659F05CFE002FC1D101A859F02A
:0839600057FE03B0BDE8F0833F
:103968002DE9F04114468846408E069D000711D483
:10397800002B48BFBDE8F0811E195F42E11940469F
:10398800324638F043FEA844013E0137012FF5D1F5
:10399800BDE8F081002B0BD41E195F42E1194046A7
:1039A800324608F085FDA844013E0137012FF5D1C4
:0439B800BDE8F081F5
:1039BC002DE9F04FBFB00546D0F804904846294693
:1039CC002CF050FA002800F0C083286825280FDD61
:1039DC00B0F5897F00F38B82262800F0E9822E282F
:1039EC0040F0B38348463FB0BDE8F04F42F099BE7B
:1039FC000B2800F0F4820E2800F013830F2840F0FF
:103A0C00A483484647F008FE06461690D0F834804A
:103A1C00006D59F00FFBE86804AD8188C28841EA5B
:103A2C0002414288008840EA0240C5E90001B6F92B
:103A3C000000B6F9022041425242284659F07EFA63
:103A4C000DF1240A4846514653F046FD284651468E
:103A5C0045F06CFDCDF82C9017AF1497BDF8100005
:103A6C00ADF81C00BDF81400ADF82000BDF9240021
:103A7C00BDF92610BDF928201091111A4A1CF16BC2
:103A8C00B36CC31AD6F8A000D6F8B8A0159052455E
:103A9C00B8BF52460F931A44119251B148B14C1E03
:103AAC0000F0EEFC1590611EA14202D200280C46DB
:103ABC00F6D1002800F0EF8216AC33AD3EAECDE966
:103ACC00018900BF1098ADF81E0000B2BDF91610A8
:103ADC00884200F3E082204659F094FD15983E9000
:103AEC00B8F1000F08D03C961B20CDE93390284646
:103AFC00C047834602E000BF4FF0000B484647F03A
:103B0C008BFD1690BDF81E0058440138ADF822000C
:103B1C0000B2BDF912108842C0F2DC8107A842F055
:103B2C000CFB15A814901098584401381290169854
:103B3C00406B002800F0CE814FF2E060C2F2010031
:103B4C00002103683846702298470B9E304647F098
:103B5C0063FD8046339014980468204647F05CFD62
:103B6C0081463E9098F89C00800715D5304653F05E
:103B7C0055FA28B1B8F89C00800703D4002007E060
:103B8C00022005E0D8F8A800001BB0FA80F040092C
:103B9C0008EB8000406D1790304653F03FFA0394C9
:103BAC0030B1D8F8A800001BB0FA80F0440900E04E
:103BBC000224454655F8500F1E9047F0DAF882461D
:103BCC00D5E910010F9A114499F81C20013202FB1F
:103BDC000017ADF86C7005EB840409F11D0528463F
:103BEC0059F0B8F8216918911F9538440138ADF88F
:103BFC00700060681990109812990AEB0002891AEB
:103C0C00013101EBD17100EB6100ADF86E00504455
:103C1C000138ADF87200304653F000FA28B1B8F80C
:103C2C009C00800703D4002008E0022006E0D8F8AE
:103C3C00A8000399401AB0FA80F0400917AF08EBBE
:103C4C0080000DF12C0A406D1790B9F81800C007D0
:103C5C0010D0D9F8040068B147F0DEFC3D90047F29
:103C6C0099F81C503DA859F0CDFCAC4294BF0024EF
:103C7C00012400E00024B8F89C00C0070AD13046AB
:103C8C0053F0CCF9009440B1B8F89C00800706D4EE
:103C9C0000200BE00F980138A0E0022006E0D8F8D5
:103CAC00A8000399401AB0FA80F0400908EB800094
:103CBC00DDF848E0C06E1A90DDE90F0499F81C207D
:103CCC00D8F890100138002A01FB020304EB0E0215
:103CDC0002EBD2724FEA620701EBD1724FEA620536
:103CEC001AD09DF880A017AA02EB4A025E1B5686DA
:103CFC00D6849485B9F8184064073C4658BF74467E
:103D0C0014870AF10104B9F818205FEAC27C09D1C2
:103D1C00CA18A2F1010C35E0B9F81810CA0715D170
:103D2C0017AF5AE003EB050C009B53B3920729D550
:103D3C00E2B217AC04EB42020AF10204A2F826C06C
:103D4C00A2F832C09785A2F838E01BE0009C002C4A
:103D5C0000F0CB8011F0020100F0C78059199DF8DA
:103D6C0080200DF15C0A0AEB420301325986D9849A
:103D7C009F8557460DF12C0AA3F838E08DF880206A
:103D8C002CE0AC44E2B20DF15C0A0AEB420204F105
:103D9C00010A97851787D684A2F832C08DF880A0C7
:103DAC00B9F81A20B2B12B189DF89AA0009C17AF45
:103DBC00D60709D05FFA8AF607EB46060AF1010A24
:103DCC00A6F840308DF89AA00B445208F0D10DF1B2
:103DDC002C0A03E017AF0DF12C0A009C99F81C106B
:103DEC00D8F8902002FB01064046494654F0E0F911
:103DFC00B9F81810CA070FD18068DDF8089008B917
:103E0C00D8F884003090D8F890003044ADF8C60053
:103E1C00022116AC33AD29E001F00201002C224640
:103E2C0018BF012212EA51010CBF03220422DDF853
:103E3C0008906CB108EB82038DF8C820DA6F2F92D2
:103E4C00D8F8902002EBD27206EB5202ADF8C420E7
:103E5C0050F8210016AC33AD10B908EB8100C06FDF
:103E6C003090D8F890003044ADF8C6008DF8C910E9
:103E7C00284659F0C7FB3EAE304659F0C3FB05202F
:103E8C000C9015981D9016981497416B50468847C6
:103E9C0012200C901698416B5046884714200C90B9
:103EAC001698416B5046884706200C902F98DDF8E9
:103EBC00048030B19DF8C8000D901698416B5046A7
:103ECC008847309830B19DF8C9000D901698416B19
:103EDC0050468847109858441090159800F0D0FA26
:103EEC00159000287FF4EEADD5E017AF76E740F2E1
:103EFC001311884200F0EC80B0F5107F40F0258162
:103F0C00EF68002F00F0F480484654F053F8044654
:103F1C00387A002800F0F580484653F0BFFB0028A3
:103F2C0043D103944846012153F054F9D7F804A027
:103F3C00484647F071FB0B90456BC46BD0F8A06002
:103F4C000BA859F05FFB5CB156B1013C304600F058
:103F5C0097FA0646601EA04202D2002E0446F5D106
:103F6C00DEB100240DF15C0833963DB133A82090EE
:103F7C001B20CDE917904046A84700E0002000EB3D
:103F8C00040B544502DCD34580F2E280304600F04D
:103F9C0077FA064600285C46E6D1484647F03CFBDB
:103FAC00339033A859F02EFB039C48460121AAE01C
:103FBC00E868062800F09F80052840F0C680484637
:103FCC0047F02AFB06460B90AC68484653F038FB8A
:103FDC00D5F808A0844240F0A0803C24A5E04846D7
:103FEC0047F01AFB1790D0F8A04017A859F00AFB1D
:103FFC00002C00F0AA8033AD204647F00DFB339027
:10400C00016919B1084659F061FB33984668284696
:10401C0059F0F8FA204659F059FB002E3446EBD1F2
:10402C0093E0484647F0F8FA0B90D0F8AC400BA858
:10403C0059F0E8FA002C40F08880E86841680029C3
:10404C0000F083800468484647F0E6FA1790D0F8F1
:10405C00A0A0D0F8A86017A859F0D4FAA4F11000C9
:10406C00082800F2C680DFE800F005A6ACBEC4C488
:10407C00C4C8CE00002E68D0304647F0CDFA33903D
:10408C00048B33A859F0BEFAE00740F0EE803046BE
:10409C002CF024FCEEE0002042F04FF816994CF680
:1040AC00EF52C0F2AB02486D90420CD01099ADF8B3
:1040BC001E10BDF82A10ADF8221045F091F907A892
:1040CC0046F0D6FD1699084642F028FB16A80CE0DF
:1040DC00484647F0A1FA04460B90D0F8AC0052F0D9
:1040EC00F5FF0020C4F8AC000BA859F08BFA2CE0BB
:1040FC004846032127E048463FB0BDE8F04F42F068
:10410C0023BB4846022141F048FF484653F052FF7A
:10411C0084421AD04846042115E0484653F080FAF0
:10412C00824508D1D5F808A0482417A9504641F07B
:10413C0080FC189830510BA859F064FA484642F0AC
:10414C00A7F848460A2141F028FF3FB0BDE8F08FA0
:10415C00484647F061FA82463390304647F05CFAA5
:10416C0080460B90007FDAF84810DAF890503A68E5
:10417C001144BAF9C020891A05FB00F2914207DB01
:10418C0005FB0052914203DAB8F81840E10758D108
:10419C00BAF89C10890742D4DAF89410441CCB4628
:1041AC0004FB051908F11D0058F0D4FD4844D9460C
:1041BC0004FB05F13BE0002EC7D0304600F03AF985
:1041CC0058E0002EC1D0304647F026FA3390048BCD
:1041DC0033A859F017FAE007B7D0A0076BD43046D4
:1041EC0042F00AFBB1E7002EAFD0304600F0D8F811
:1041FC0040E0284653F05EFDA7E7BAF1000FA4D0CB
:10420C004846514638E0002E9FD03546304600F0E7
:10421C00C7F80646A842F8D1484629462CE017A90B
:10422C00484653F059F9BDF95C10BDF960003A6885
:10423C008A4212DB824210DCDAF8AC00F8B1B8F832
:10424C0018400BA859F0DEF933A859F0DBF9A00798
:10425C0007D4304653F020FFA6E60BA859F0D2F94C
:10426C009FE6304653F036FF9EE6A0072AD4304630
:10427C0000F028F90146484653F0DCFE65E7CAF821
:10428C00A860484642F004F80BA859F0BBF933AECD
:10429C00304659F0B7F9484600214FF49672002386
:1042AC0052F02CFF8246484647F0B6F9C0F8ACA055
:1042BC003390304676E6484642F0B8FA48462CF041
:0C42CC00A1FA42E7304642F0A4FA3EE7B7
:1042D800F0B583B0044647F0A1F90190017EC90703
:1042E8001AD04568C5B1077F284647F097F902906C
:1042F800017FB9420DD902AE2C4645684DB1304612
:1043080059F082F9284647F089F90290017FB942AD
:10431800F2D802A859F078F901A859F075F92046A1
:0443280003B0F0BD31
:10432C0070B582B00C4647F077F9019001AE00BF32
:10433C00856855B1304659F065F9284647F06CF957
:10434C000190017FA14201D0F2DA002501A859F0B9
:08435C0059F9284602B070BDBA
:1043640099B138B50D46044657F014FD002D0DD40F
:10437400204653F023FE28B100F016F801462046EB
:1043840053F05CFE013DF3D10AE07047204653F040
:1043940015FE28B100F052F80146204653F04EFEB7
:0843A400BDE8384045F0F2BB12
:1043AC002DE9F04383B0814647F036F90190017E48
:1043BC00890735D4456801A859F024F9ADB302AE8C
:1043CC000DF10408284647F027F90190284647F0DC
:1043DC0023F90290047F00BF8768304659F012F928
:1043EC00FFB1384647F018F90290017F8C4207DD87
:1043FC00028B02F00302571E18BF01270C4600E087
:10440C0001270FB1002CE7D1304659F0FBF847B922
:10441C0001984568404659F0F5F8002DD2D104E0DA
:10442C00456801A859F0EEF805B94D46284603B089
:04443C00BDE8F08364
:10444000F8B5044647F0EEF800908568CDB1077FD7
:1044500000246E46304659F0DBF8284647F0E2F873
:1044600000900CB9077F2C46018BCA0706D0027F4B
:10447000974203DD890758BF2C4617468568002DF3
:0C448000E8D1684659F0C4F82046F8BDA9
:10448C0070B582B047F0C8F80190018B01F00301C0
:10449C0001290ED1067F01AD446864B1284659F05C
:1044AC00B1F8204647F0B8F80190017FB142F3D83B
:1044BC0002E0446800E0002401A859F0A3F820466B
:0444CC0002B070BD0D
:1044D000F8B5044647F0A6F80090077F6E462546DB
:1044E00028462CF001FA0546304659F091F8284646
:1044F00047F098F80090007FB84202D30028EFD12F
:0C4500002546684659F084F82846F8BDAE
:10450C002DE9F04F89B00646406A002800F0F7818B
:10451C007168D0F80C80122968DC0A2900F0A6809A
:10452C000F2940F0EC810069002800F07E814FF2E9
:10453C00B419C2F201094FF21C2BC2F2010B0BF1A0
:10454C001800B8F1000F0BF1140104BF09F1280099
:10455C0009F124010568584608BF09F11000D1F88B
:10456C0000A000683769B46946F0E1FC07EB0A006B
:10457C002844201A00EBD07007EB600A0AEB050404
:10458C00651E706951462A4607F090FF7069F26902
:10459C00411C504638F038F80BF10400B8F1000F0C
:1045AC0008BF09F11400006846F0C1FC0AF10107CC
:1045BC00A4F1020AF0693946524607F077FF706998
:1045CC00F269411C284638F01FF80BF10800B8F1CD
:1045DC00000F08BF09F11800006846F0A8FC7069CC
:1045EC00F269411C531E3846524686E1132964D0A9
:1045FC00142940F08481B8F1000F4FF2B419C2F2C3
:10460C0001094FF2282AC2F2010A514608BF09F1EA
:10461C001C010469086846F08AFC776A002C7868EB
:10462C0000F071810128C0F26A8100250AF1080AA4
:10463C000138B8F1000F3968BA6801EBD17105FB8C
:10464C0002F292FBF0F0726902EB610108445146F0
:10465C0008BF09F12401B2690968511A013107F048
:10466C0025FF013578688542E2DB48E1306801219D
:10467C0054F040F8002800F042814FF2B410C2F21E
:10468C0001004FF22C21C2F20101B8F1000F08BF5A
:10469C0000F12001086846F04AFC06F110030FCB2C
:1046AC00ADF81C00ADF81E10ADF82020ADF822308E
:1046BC0007A8002137F0F2FF21E10168006906919B
:1046CC00002801F101004FEA60094FF2B413C2F265
:1046DC0001034FF20C22C2F2010202F1240000F09D
:1046EC003581B8F1000F04BF03F124001A4605927E
:1046FC0004681068B56946F01AFCCDE90354E04330
:10470C0005EB000BABEB0904651CA9F1010A7169FF
:10471C0001EB0A0328465A4607F0A2FEC9F101072D
:10472C00F169CB192846A9465A4607F099FED6E9F5
:10473C000410224607F0BAFE3169F069224607F0F0
:10474C00B5FED6E90401F26937F05EFF4FF20C209A
:10475C00C2F201000430B8F1000F4FF2B415C2F2EE
:10476C00010508BF281D006846F0E1FBABF1010B09
:10477C00706900EB0A03411C48465A4607F070FE6C
:10478C00F069C319411E48465A4607F069FED6E93E
:10479C00041001300131224607F088FE3169F069BE
:1047AC0001380131224607F081FED6E90401F26995
:1047BC0001300131013A37F027FF4FF20C20C2F2E1
:1047CC0001000830B8F1000F08BF05F10800059D85
:1047DC000068E968D6E90423F469CDE90001901C6E
:1047EC00991CA31E4A4638F0DDF8E86846F09FFB9A
:1047FC0006980728C0F28380DDE90310081AC51E4D
:10480C00BAF1030F5046D8BF0320841E7069F269B9
:10481C000AEB00013A44284637F0F6FE0137013D19
:10482C00013CAAF1010AF1D169E04FF2B412C2F2D3
:10483C0001024FF21C2BC2F2010B0BF11800B8F164
:10484C00000F0BF1140104BF02F1280002F1240146
:10485C000568584608BF02F11000D1F800A00068A6
:10486C007769F46946F063FB0AEB07004119611A9A
:10487C0001EBD17100EB610404F1010A0AEB0509AB
:10488C00A9F10105306951462A4637F0BDFE306961
:10489C00B269411C504607F009FE0BF10400B8F157
:1048AC00000F4FF2B411C2F2010108BF01F1140064
:1048BC00006846F03CFBA71CA9F1020AB069394616
:1048CC00524637F0A1FE3069B269411C284607F008
:1048DC00EDFD0BF10800B8F1000F4FF2B411C2F26C
:1048EC00010108BF01F11800006846F020FB306997
:1048FC00B16901304A1E3946534607F003FE0020C9
:10490C0009B0BDE8F08F0128F9DB00250AF1080A8F
:10491C000138B8F1000F3968BA6801EBD17105FBA9
:10492C0002F292FBF0F0326902EB6101084452464C
:10493C0008BF09F12402716912680A44013A37F080
:10494C0063FE013578688542E2DBD8E7B8F1000FE9
:10495C0004BF03F124001A460592046810687569B7
:10496C0046F0E5FA04EB050B0BEB09050BF1010422
:10497C00A9F1010732690495D01921462B4607F09D
:10498C006FFDC9F1010AB26902EB0A0021462B4600
:10499C0007F066FD4C44D9463069F269214637F080
:1049AC0033FED6E90602214637F02EFE3169D6E9F0
:1049BC0006200131013A07F079FD4FF20C20C2F2CA
:1049CC0001000430B8F1000F4FF2B411C2F2010132
:1049DC0008BF081D006846F0AAFA0BF1020B3169FA
:1049EC00C8194A1C59462B4607F03AFDB16901EB30
:1049FC000A004A1E59462B46AB4607F031FD30697A
:104A0C00F16901304A1E214637F0FEFDD6E9060158
:104A1C0001384A1E214637F0F7FD3169D6E90620E8
:104A2C0001380231023A07F041FD4FF20C20C2F27C
:104A3C0001000C30B8F1000F4FF2B411C2F20101B9
:104A4C00059D08BF01F10C00A96800683269D6E920
:104A5C000634CDE90010901C9A1EA31E594637F05F
:104A6C0091FEA86846F063FA06980728FFF647AF50
:104A7C0009F10305032F3846D8BF0320841E00BF5D
:104A8C003069B26939185244284607F00FFD0AF113
:0C4A9C00010A0135013F013CF2D130E776
:104AA8002DE9F04F87B00546006846F0B7FD82460D
:104AB800069006A858F0A8FDD5E904B0D5E906691E
:104AC800ADF810B0ADF81200ADF81460ADF816905E
:104AD8006C6A0390206888B104A950460A4653F0CE
:104AE80017F948F22177C0F605074CF6B118C0F659
:104AF800030846F6F902C0F604020BE048F2917783
:104B0800C0F605074CF29178C0F6030846F65B122A
:104B1800C0F604026B68A3F1080100200B2919D81C
:104B2800DFE801F0225CBABA06BABABA0606BA9940
:104B38004FF2E010C2F20100BDF91210D0E9075798
:104B4800BDF91000BDF91420BDF91630CDE90057A4
:104B5800C047A0E0192B40F09F802068002800F093
:104B68009E802869A9699CE065684FF23827C2F2DF
:104B780001074FF2E018C2F20108022D414608BFB2
:104B8800394604A8904708F12400022D08BF07F110
:104B980024002468006846F0CCF94FF0FF300090FC
:104BA800002C5846039F04BF38464E4600B231B227
:104BB800081AC11E45F25652C5F2555251FB02F170
:104BC80001EBD173C11A013100FA8BF0A0EB61013E
:104BD80038B20FFA89F2101A013037E065684FF2DF
:104BE8003827C2F201074FF2E018C2F20108012D7E
:104BF800414608BF394604A8904708F12400012D12
:104C080008BF07F124002468006846F092F90120E3
:104C18000090002C039F08BFBB460FFA8BF031B2FF
:104C280008BF4E4632B2101AC21E45F25653C5F29C
:104C3800555352FB03F202EBD273C21A0132081A1F
:104C480000EB620138B20FFA89F2101A421050468E
:104C5800FEF786FE1FE060684FF2E018C2F2010816
:104C6800032804BF4FF23828C2F2010804AD2846D1
:104C7800414690472068A91D0028284614BF0230E5
:104C8800291DB0F90000B1F90010081A0E2802DB3E
:104C980004A84146B847002007B0BDE8F08F68690E
:084CA800E969081A0130F7E781
:104CB0002DE9F04F8DB08046D0F80490484641462B
:104CC0002BF0D6F8002800F09581D8F800002228B3
:104CD0001EDDB0F5897F32DC232871D0242840F016
:104CE0008681D8F80C60484646F09CFC03903168F9
:104CF000C26C914240F0C080B268436D934240F074
:104D0000BC807268076D97421A4600F0B180B4E02B
:104D10000B2869D00E286BD00F2840F068814846D8
:104D200046F080FC0390002800F06481406CD0F8CD
:104D3000008003A858F06CFC4846C0475AE140F296
:104D4000131188426FD0B0F5107F40F05081D8F831
:104D50000C60002E00F04B81377A484646F062FC2A
:104D600004460290002F00F09780A26CD4F850A067
:104D700003A9484690473168E06C656D678E3A0735
:104D800046BFD6F804B0C6E900B18B46461BA06DFD
:104D9000032840F0A380484641F06CFF0498DDE909
:104DA0000A1202EBD272ABEB6202C04310447043B2
:104DB00056F026FE8246206602A858F029FCFDE047
:104DC000484646F02FFC0390002800F01081D8F8E8
:104DD0000C10D0E91323406D0A60D8F80C108860DD
:104DE000D8F80C00436043E0484653F0C3FDFEE0B2
:104DF000484646F017FC0390466D03A858F008FC9F
:104E0000D8F80C0041680129C0F2F1800068103820
:104E1000052800F2EC80DFE800F003036C6C757489
:104E20004FF0FF366EE0484646F0FCFB0646039026
:104E3000C16D91B1484653F02DFEF06D01280CDB99
:104E4000306D316E8842B4BF002001200CDC60B9A7
:104E5000706E322152F08AF90AE0306D316E88426C
:104E6000CCBF00200120F2DA3165484641F002FF54
:104E700003A858F0CDFBBAE0B2684265C16471681E
:104E80000165484641F00AFA03A858F0C1FB4846BC
:104E9000052141F088F8AAE0668E02A858F0B8FB18
:104EA000F00540F1A48048464FF4807152F05AFF5B
:104EB000484646F0B7FB06460390C06D10B1484621
:104EC00041F0D8FE0020B065B66A03A858F0A0FBF8
:104ED000B00740F18C8048460221DAE7049A019736
:104EE000934508DD05998B4511DAAAEB050A6D4259
:104EF00032E0012606E0022811D14FF0FF350220F2
:104F00002AE076424846314653F0C4FD6FE00699E8
:104F10008B450FDD07998B4572DAAA441CE0606E61
:104F200010B1484641F0A6FE0220A065AAF1010A90
:104F3000C51E11E00A9901290BDBD04358440B9A96
:104F400002EBD272A0EB620B0BFB06F056F058FDA1
:104F500082460320A0650025E76D0A9959B104989F
:104F60000B9AC043584402EBD272A0EB620070432C
:104F700056F046FD04E0012806BFE06C0138002031
:104F8000206602A858F044FB9DB1B7B9484640F2EC
:104F9000D2414FF4C872002352F0B6F80746484693
:104FA00046F040FB4766C5650C900CA858F030FBF6
:104FB00003E017B1484641F05DFE019F48460121DC
:104FC00052F00EF94846514653F07CFDF8050ED4D8
:104FD000484646F027FB0C90866A0CA858F018FB50
:104FE00048464FF4807141F031FBB00705D440468C
:104FF00052F066FE0DB0BDE8F08F4846012148E74B
:1050000008998B45A7DC012801D1012008E0606EDA
:1050100010B1484641F02EFE0120A0650AF1010AB8
:04502000012599E7E6
:105024002DE9F04F8DB0824646F0FAFA0746059016
:1050340090F8C10020B197F8C00008B105AD06E1B1
:10504400D7F8B8000DF11408F0B146F0E9FA0446B7
:105054000690F86B42F01BFD0646B4F8049008F184
:105064000405384653F0B6FF83464E451FD02468E6
:1050740005A858F0CBFA284658F0C8FA71002CB1AC
:10508400204658F0A1FB04E04546E0E0084658F00D
:1050940071FB074600284ED0504646F0C1FA0590F1
:1050A400D0F8B80046F0BCFA0446076006902068C1
:1050B40046F0B6FA0790059908F1080491F8C12062
:1050C4005AB14E4515DD002281F8C22020F819900E
:1050D40009F101094E45F9D10BE0002281F8C22003
:1050E400012EC0F2A28000BF20F8122001329642A5
:1050F400FAD1069A022E9680C0F2998091F8C210D5
:10510400CDE903A5CDE9014BB9B1B2B2022AC0F091
:1051140083805108012994BF0121510800EB420208
:10512400023A00BF1388078820F8023B22F802796C
:105134000139F7D170E001208DE0A6F101090CAE30
:105144004C4600250798059AA4F1010A30F814B0DA
:1051540030F81A10D06B42F0FDFC0C9000284BD0B4
:1051640005990068D1F8801042F0F4FC80460A905A
:10517400304658F04BFAB8F1000F44D00AA858F062
:1051840045FA05985946C06B42F0E4FC0B90A8B36D
:1051940005990068D1F8801042F0DCFC07460990BC
:1051A4000BA858F033FA77B309A858F02FFA0598EA
:1051B400D0F88010006C42F0CDFC089018B308F1D0
:1051C40004024368391D10469847074608A858F05A
:1051D4001DFA0698007C002818BF7F42012F12DBBD
:1051E4000798012530F8141030F81A2020F81A1006
:1051F40020F8142007E000BF304602E000200990A8
:105204000BA858F003FABAF1000F54469AD1002DB6
:105214004C464FF0000595D1DDE9021000F01EF870
:10522400069ADDE90451019C01E0069A968040F259
:105234000110A1F8C000486BD1F88010127C42F034
:10524400C4FB204658F0E2F905A858F0DFF92846D7
:0C52540058F0DCF900200DB0BDE8F08F30
:1052600070B584B00D46044646F0DCF90390D0F8E2
:10527000B86003A858F0CCF996B1304646F0D2F9A0
:1052800002908688006846F0CDF9019096B1002121
:1052900030F81120AA4209D001318E42F8D109E03C
:1052A00020462946002253F0DFFF09E02046002275
:1052B00053F0DAFF01A858F0ABF902A858F0A8F9AA
:0452C00004B070BD09
:1052C40000284AD02DE9F04182B01E4690460C4693
:1052D400054656F05FFD28462146424653F028FF16
:1052E4000746019038B928462146424641F059FE06
:1052F4000746019060B3089C97F82C00C1071DD1A4
:1053040040F0010087F82C00284646F089F9009007
:10531400002100BF8E4205D000EB810207EB810320
:10532400526C9A6000EB810207EB8103526D9A6123
:1053340001310429EED1684658F068F907EB86007C
:1053440041468460284641F07AFE01A858F05EF98F
:0C53540044F01CFC02B0BDE8F081704782
:10536000F8B50446406B54F045FD70B10546002683
:1053700001280BDB002700BF606B394654F014FD99
:1053800006440137BD42F7D100E001263046F8BDA2
:105390002DE9F04784B00646C06B42F07AFB8246A6
:1053A000306C42F076FBBAF1010F29DB8046002712
:1053B00003AC0DF1040900BFF06B394642F0CCFBA1
:1053C0000190B8F1010F12DB002500BF00682946EB
:1053D00042F0C2FB039030B1006808B158F07CF98C
:1053E000204658F015F901350198A845EED100681E
:1053F0002CF0F0FD484658F00BF901375745DBD14A
:10540000D6F8B80048B146F00DF90290C46802A879
:1054100058F0FEF8D6F8B800A047306C2CF0DAFD52
:10542000F06B2CF0D7FD0020C6E90F00D6F8BC00C9
:0C54300008B151F06BFF04B0BDE8F0873C
:10543C00F8B50D46044646F0EFF80090C16B476F87
:10544C00084642F020FB0646684658F0DBF82F442D
:10545C00002F14D4B742A8BFF8BD2046394653F0EC
:10546C0077FF002807EB0500394618BF4FF0FF31D6
:10547C0000290746ECD42046012253F0EFFEF8BD7C
:10548C002DE9F04F85B0E8B18946824656F07EFC96
:10549C00504646F0C1F80390B0B10446C76B38468D
:1054AC0042F0F1FA0546206C42F0EDFA064603A8EC
:1054BC0058F0A8F8384600210C2242F0F3FA28B133
:1054CC00012673E0002673E000266FE042F051FBEA
:1054DC008046012E32DBCDE9007500240DF1100B56
:1054EC00B9F1000F12BF59F8045B4FF00009002509
:1054FC00284656F0DFFA074600F109024046002123
:10550C0042F0D0FA002D08BFA946C8B94046214642
:10551C0042F01CFB04904DB1012F07DB4FF2D4611C
:10552C00C2F2010104300A6829469047584658F0E7
:10553C0069F80134A642D3D100260EE000260EE015
:10554C0054B1013CDDE900754046214600F0B8FC41
:10555C00013CF9D2012602E00126DDE9007538464E
:10556C00294642F0F3FAC0F80080029002A858F0E5
:10557C0049F8504646F050F8039088B1002180F865
:10558C00C010D0F8B81039B1D0F88000002803D47E
:10559C00504653F047FE03E05046294641F04BFD80
:1055AC0003A858F02FF8504653F006FF44F0EAFADF
:0855BC00304605B0BDE8F08F98
:1055C400F8B50C460546406B54F012FC88B1A04275
:1055D400B8BF0446D5F89C700026A7420ADA00BF7B
:1055E400686B394654F0DEFB06440137BC42F7D100
:0855F40000E001263046F8BD7D
:1055FC002DE9F04F87B08B46814646F00DF80390AD
:10560C0000F1AC0104AD2A4691E8C800C8C2476B52
:10561C00846F03A857F0F6FF01A9484651F05CFFD0
:10562C003846214654F0BAFB8246002C00950CD427
:10563C0004F10108002600253846314654F0AEFB33
:10564C0005440136B045F7D100E00025ABF1100060
:10565C00032800F29A80DFE800F00F023102A5EB7C
:10566C000A01059881424FDA0AEB0001691A81EAB6
:10567C00E172C2EBE17148E0611E384654F08EFBDA
:10568C00A5EB0A0205990844801AD8BF0020BDF981
:10569C000420BDF908302A440B440AEB03079D4251
:1056AC00C8BFB81A00285CD0091A04AD284640F0CF
:1056BC0024F8044648464FF0FF311BE0611C384685
:1056CC0054F06CFB4119BDF90420BDF90830059864
:1056DC000344C91AD4BF00238B18291AA8BF194632
:1056EC00002942D0014404AD284640F006F8044697
:1056FC004846012154F0B4F8484645F08DFF03901C
:10570C00AC3095E80E0018E0002104AEBDF9042081
:10571C00BDF90830EF1A0344EB1A8742C8BF991839
:10572C00B9B1014430463FF0E8FF0446484645F025
:10573C0073FF0390AC3096E80E000EC003A857F030
:10574C0061FF14B3484653F013FE484653F06AFD0C
:10575C001BE0484645F060FF0390AC3096E80E0025
:10576C000FE048464FF0FF3101E04846012154F06C
:10577C0077F8484645F050FF0390AC30009F97E80F
:10578C000E000EC003A857F03DFF07B0BDE8F08F28
:10579C002DE9F04F93B00546D0F804B05846294691
:1057AC002AF060FB002800F07F812868A0F10B0133
:1057BC00062914D8DFE811F00700780178012500DC
:1057CC0065007801F800584645F026FF0290D0F8A5
:1057DC0084002CF0F9FB02A857F014FF64E1262892
:1057EC0000F0F980B0F5107F40F05E81E868002889
:1057FC0040F05A815846032113B0BDE8F04F40F0F9
:10580C00CCBBEE687068002800F04E81584645F01D
:10581C0003FF0746109002A9584651F05DFED7F8D9
:10582C007090D7E921010191BDF90840BDF90C80B8
:10583C0042F029F90090D6F800A0D7F8906010A893
:10584C0057F0E0FE26EAE677AAF11000082800F2ED
:10585C002281A8EB040149440131019A4A4491FB8D
:10586C00F2F20021DFE810F0090007010B01110131
:10587C001701170117011B012301002EC8BF013EA0
:10588C000CE100240A94584645F0C6FE1290D0F85C
:10589C003880D0F884A0D0F89890B0F90070B0F9A6
:1058AC00026012A857F0AEFEE8680CAD8188C28881
:1058BC0041EA02414288008840EA0240C5E9000101
:1058CC0079427242284657F039FB10AF5846394698
:1058DC0051F002FE2846394643F028FEE0430B9473
:1058EC00CDE90404CDE902B4BDF93000BDF93210A4
:1058FC00BDF93420BDF936300DF1180C8CE80F00D1
:10590C0002AD2846C8471E2003902846C84750467B
:10591C0042F0B9F8002800F0C7800546584654F00C
:10592C00A5F900FB08F6002E00F1BE80AE4280F215
:10593C00BB800EAC0DF108084FF0120A58462146F8
:10594C00324654F0AFF9BDF93A00BDF93610884231
:10595C0000F3AA80BDF93E10BDF9322091421FDB45
:10596C00BDF93C20BDF930309A4219DBBDF9383015
:10597C00BDF93470BB4213DCCDE90821CDE906300A
:10598C00CDF808B00520CDE903064046C8470620EF
:10599C0003904046C847CDF80CA04046C84700BF0E
:1059AC000136B542CAD17FE0E868417A012925D099
:1059BC00002979D1017A012976D1D0E90012584613
:1059CC0041F06DFE002803D40146584653F0E2FF27
:1059DC00584601214CE0E86806282DD0052863D1F3
:1059EC00584645F019FE80461090AE68584651F066
:1059FC0027FEAF68864225D138252AE0017A002996
:105A0C0052D1D0E90012584641F049FE054658469D
:105A1C0045F002FE06460290D0F8840042F033F8BE
:105A2C008542A8BF4FF0FF35C6F89C5002A857F02E
:105A3C00E9FD584602211BE0584613B0BDE8F04F73
