:020000040800F2
:100000000000082055360008D11C0008251C0008F7
:1000100000000000000000000000000000000000E0
:10002000000000000000000000000000D31C0008D9
:1000300000000000000000009D1A0008813B00083D
:10004000D51C0008D71C0008D91C0008DB1C0008C0
:10005000DD1C0008DF1C0008E11C0008E31C000890
:10006000E51C0008E71C0008E91C0008EB1C000860
:10007000ED1C0008EF1C0008F11C0008F31C000830
:10008000F51C0008F71C0008F91C0008FB1C000800
:10009000FD1C0008FF1C0008011D0008031D0008CE
:1000A000051D0008071D0008091D00080B1D00089C
:1000B0000D1D00080F1D0008111D0008131D00086C
:1000C000151D0008171D0008191D00081B1D00083C
:1000D0001D1D00081F1D0008211D0008231D00080C
:1000E000251D0008271D0008291D00082B1D0008DC
:1000F0002D1D00082F1D0008311D0008331D0008AC
:10010000351D0008371D0008391D00083B1D00087B
:100110003D1D00083F1D0008411D0008431D00084B
:10012000451D0008471D0008491D00084B1D00081B
:100130004D1D0008053700084F1D0008511D00081F
:10014000531D0008551D0008571D0008754B000879
:10015000591D00085B1D00085D1D00085F1D00089B
:10016000611D0008631D0008651D0008671D00086B
:10017000691D0008F14B00086B1D0008A51D000853
:100180006D1D00086F1D0008711D0008731D00081B
:10019000751D0008771D0008791D00087B1D0008EB
:1001A000F93600087D1D00088B1E00087F1D000821
:1001B000811D0008831D0008851D0008871D00089B
:1001C000891D00088B1D00088D1D00088F1D00086B
:1001D000911D0008931D0008951D0008971D00083B
:1001E000991D00089B1D00089D1D00089F1D00080B
:0801F000A11D0008A31D000879
:1001F800034C206804348047FBE701F0D0FDFEE79C
:040208005C4D000841
:10020C0010B50446C06C40B101F0F4FB03488068A3
:10021C00A04202BF02480021016010BD0000002076
:04022C004429002041
:080230000048704700FC0720A4
:1002380001480249081A704700FC072000000820FE
:1002480081B06846EFF31081016072B60D490E4A1D
:10025800535843F47F035350016881F310884FF0DB
:1002680000709060106840F0404010600020EFF38C
:10027800148020F0040080F31488BFF36F8F01B05E
:0C028800704700BFECFDFFFF34EF00E00A
:0C0294000149C863704700BF0000002053
:1002A0002DE9F0414FF0800080F3118800BF00BFBE
:1002B000144ED6E90478144DE8688047044628694E
:1002C000804728B1013748F10008E86880470446B4
:1002D000707818B94FF0000080F311886869A7FBA7
:1002E000001208FB00220023001B63F100082D7A96
:1002F000002D1CBF98462046401848EB0201BDE87F
:0C030000F08100BF0000002094280020C5
:10030C002DE9F0410446244FF86B28B103F034FA80
:10031C00014640F21B10B0472048014694E86C019E
:10032C0081E86C01D0E90012B1FBF2F242614FF4AA
:10033C007A720B4633B1B2FBF3F404FB13241A4666
:10034C002346F7E7B1FBF2F34FF47A74B4FBF2F205
:10035C00C0E90623124A13460C4614B101F0AAFD5B
:10036C00FBE7B1FBF3F4B2FBF3F2C0E908240D4A4E
:10037C0013460C4614B101F09DFDFBE7B1FBF3F104
:10038C00B2FBF3F2C0E90A21F86B18B1816C40F2B0
:10039C001B108847BDE8F081000000209428002045
:0803AC0040420F0000CA9A3B19
:1003B40070B50D4EF06B10B1816AD6208847FFF7F7
:1003C4006DFF0A4AD2E90832A0FB030401FB034192
:1003D40001F06EFD04460D46F06B18B1C26CD620D8
:1003E4002146904701F067BD0000002094280020BA
:0C03F4000148C06A704700BF00000020F4
:0C0400000148C06A704700BF00000020E7
:10040C0010B5144C207801382070207800B110BD44
:10041C0060680028FBD04FF0800080F3118800BF8B
:10042C0000BF606868B101202070E06B20B1026AE7
:10043C00A06890F850109047204601F0B0FB0020C7
:10044C00207060780028E2D14FF0000080F3118812
:08045C00DDE700BF00000020F5
:100464002DE9F84F9B46924688460446254FF86B83
:10047400DDF83090DDE90A6568B1D946D0E90EB1FE
:1004840020468847014600952E2052463346D847D9
:10049400CB46DDF830902046542101F017FAC4E928
:1004A40004AA84F85290C4E90985E66297F86700C3
:1004B40084F8500030462946CD2201F008FAF86B42
:1004C40030B1016920468847F86B08B101F004FD9A
:1004D400A819583820F007000BF10201C0E913B144
:1004E4004FF08071084A01F0F0FC01606060204622
:1004F40000F0C2FAF86B10B1816C2E208847BDE879
:0C050400F88F00BF00000020311B000831
:1005100038B50446094DE86B18B1C26A2A20214655
:100520009047012C04DBFFF765FF204400F008F83A
:10053000E86B10B1816C2A20884738BD000000208C
:1005400010B504460B4991F8620068B14FF0800085
:1005500080F3118800BF00BF8868042180F8501024
:10056000C46000F0C3FA03E0FFF744FF001BFBD4B4
:0805700010BD00BF00000020D7
:1005780070B504460C4DE86B28B103F003F9014649
:1005880040F21510B047002C08BFAC680CB1646A83
:1005980000E0064CE86B20B1C26C40F21510214611
:1005A8009047204670BD00BF00000020824C000824
:1005B80070B504460C4DE86B38B103F0E3F801461A
:1005C8004FF48B70B047E86B00E00020002C08BFA8
:1005D800AC6894F8514020B1C26C4FF48B7021463E
:0C05E8009047204670BD00BF00000020BE
:1005F40070B504462D4DE86B20B103F0C5F80146F3
:100604002F20B04700F0AEFA002C08BFAC68284E8B
:1006140036681EB1716820468847F9E72448416866
:1006240009B1204688472046FFF7EEFD4FF08000D1
:1006340080F3118800BF00BFA06810B1204603F00A
:10064400A7F8204601F062FC1A480168A14204BFE1
:1006540000210160687818B94FF0000080F3118818
:10066400E869844204BFA869E861E86B38B1016DA8
:1006740020468847E86B10B1816C2F208847A86812
:1006840084420FD14FF0800080F3118800BF00BF77
:10069400A968E86B00220A6008B1806980470348B2
:1006A40001F081FAFFF7B0FE70BD00BF000000202A
:0806B400E0280020780000207E
:1006BC0038B5134CE06B18B1816A4FF491708847D0
:1006CC00A06B10B101F014FC0CE001F004FC5CBF59
:1006DC000120607194F8650020B101F00EFC04BF9C
:1006EC000120207104F148052D6815B16868804718
:1006FC00FAE7E06B18B1816C4FF49170884738BD04
:04070C0000000020C9
:100710002DE9F041B54C00256570012020704FF0A7
:10072000800080F3118800BF00BF606B50B161781A
:1007300001316170804784F86450C4E90D556078D8
:10074000013860704FF0000080F31188FFF770FDF2
:100750000078CD2802D07D2003F0F8F9A06898B188
:10076000C16A0978CD2904D0782003F0EFF9A06898
:1007700050B1054655F8441F31B1406809688847B3
:100780006D680DB12968F9E794F8660000283DD03E
:10079000A06894F8651080F851102079002835D0B1
:1007A0004FF0800080F3118800BF00BF002020714F
:1007B000A1684FF0000080F3118819B3086808B3EE
:1007C0000B6902699A421DD10246006810B10569A1
:1007D0009D42F9D04FF0800080F3118800BF00BF28
:1007E0000868E3698B4208BFE0610B6A0362186026
:1007F0000A621068086000B10162116092F852004C
:1008000082F851004FF0000080F3118894F86300E3
:10081000C0B1C0070CD0FFF7EDFD75494968081A53
:1008200006D594F8630010F0FE0084F8630009D048
:10083000FFF736FDA16821B1E26D821A8B6B1A4475
:100840008A63E065A06828B190F8501011B9416B37
:1008500001314163E06988B34FF0800080F3118873
:1008600000BF00BFE5697DB395F8506066B37007BF
:100870000FD5E16AE868411A002904DD216B411AAD
:1008800048BF206305E0284600F0B4F895F8500012
:10089000A0B106F0FB00102809D1A8688068406864
:1008A00090F8501019B929690069884206D1286862
:1008B000E0614FF0000080F31188CDE74FF0800039
:1008C00080F3118800BF00BF00276FF0004804F1DB
:1008D0001806607900283BD06771E06A40442063C5
:1008E000A16A09B1204688474FF0000080F31188C3
:1008F00035462D684FF0800080F3118800BF00BF9F
:10090000002DE6D0E06918B1006929698142E0D381
:1009100095F85000400716D5E16AE868411A0029A9
:100920000DDC284600F066F84FF0800080F3118857
:1009300000BF00BF95F850000028CAD0E868216BBE
:10094000411A48BF20634FF0000080F31188D0E7C0
:1009500000206060E569B5B395F85000B0B1A868B3
:10096000806846683168306A0160316801B10862A8
:1009700028693061E06B10B1C168304688470120BA
:1009800060703046294600F079F8E661E069A060C1
:10099000054655F8441F39B14068496888476D6875
:1009A0000DB12968F9E7A06890F8511084F8661035
:1009B00084F86510E16B11B149698847A068016B43
:1009C000013101630EE0E06B08B1406A804700200E
:1009D00084F8650084F86600A06020704FF0000085
:1009E00080F311880148BDE8F08100BF00000020BD
:0409F000A826002015
:1009F40038B505461F4CE06B10B1C16928468847DD
:100A0400A86820B1E06AE860284602F0C1FE95F8C3
:100A1400500010F0030085F8500025D1E06918B1AA
:100A240002692969914205D9E561207878B10120EC
:100A3400607117E0A842F8D0914215D12A46126895
:100A440082B1136999420DD18242F8D1ECE70120B9
:100A54002070E06B08B101F061FA204601F0A3F8C0
:100A640000202070607800B138BD4FF0000080F3A2
:080A7400118838BD00000020CC
:100A7C0038B50246194C207801302070106909B144
:100A8C000B6809E004F118010B6823B11D69A84239
:100A9C0002D21946F8E70023116213600A6043B1D1
:100AAC001A62196981420CBF92F85200002082F838
:100ABC00510092F8500070B94FF0800080F311880B
:100ACC0000BF00BF1046FFF78FFF607818B94FF0DA
:100ADC00000080F31188FFF793FC38BD0000002064
:100AEC0038B5094C2578681C2070E06B08B101F012
:100AFC0011FA204601F053F82570607818B94FF0C0
:0C0B0C00000080F3118838BD00000020BC
:100B180010B54FF0800080F3118800BF00BF0E4C65
:100B2800607894F863100130607029B9012084F866
:100B38006300FFF7B1FBE065E06A61780139617035
:100B480041F28831084405494860607818B94FF087
:100B5800000080F3118810BD00000020A8260020A6
:100B68000248017801310170704700BF0000002081
:100B780070B5FFF759FB084DE9684C68061BFFF78D
:100B880057FB3218E868016F8A4203D8C06E2146C5
:0C0B980000F068FE70BD00BF00000020EF
:100BA4000548816D19B182680023C2E91113406DB3
:0C0BB40000B10047704700BF00000020A7
:100BC00038B5174800680078532803D11548807954
:100BD00008B1FEE7FEE7144800684CF69111884220
:100BE0001CD112480124124D6FF000412963C0E965
:100BF0000644C0E90844C0E90A44FFF725FB2C700D
:100C0000FFF716FB044602F0BBFD001BB0F120010C
:100C100003D02046CD2200F05CFE38BDFEE700BFC9
:100C2000181A0008E04C0008141A00089428002044
:040C300000000020A0
:100C340038B50A4DE86B60B1816A4FF4AC708847EF
:100C440095F86240E86B30B1816C4FF4AC70884722
:100C540001E095F86240204638BD00BF0000002046
:100C64004FF0800080F3118800BF00BF02480121CB
:0C0C7400017000F065BF00BF62000020AE
:100C800070B50546184EF06B38B1C46AC16B284682
:100C90008847014640F22710A04730780130307075
:100CA000B068002D08BF0546AC6B854210D14FF0EF
:100CB000800080F3118800BF00BFFFF7F1FAF16DEB
:100CC000401A0444707818B94FF0000080F311887E
:100CD000FFF79CFBF06B20B1C26C40F2271021465D
:0C0CE0009047204670BD00BF00000020BF
:100CEC0010B5084CE06B50B1816A40F23B1088475C
:100CFC00E06B20B1C26C044940F23B1090470248B3
:0C0D0C0010BD00BF000000206C4C00086F
:100D180010B5084CE06B50B1816A40F23D1088472D
:100D2800E06B20B1C26C044940F23D109047024884
:0C0D380010BD00BF000000207B4C000834
:100D440070B504460B4DE86B38B102F029FD01463D
:100D54004FF4A170B047E86B00E00020002C08BFFE
:100D6400AC68E46A20B1C26C4FF4A170214690478C
:080D7400204670BD00000020C4
:100D7C0070B504460B4DE86B38B102F00DFD014621
:100D8C0040F24310B047E86B00E00020002C08BF95
:100D9C00AC68A46A20B1C26C40F243102146904763
:080DAC00204670BD000000208C
:100DB400034800210170417081700161704700BFD8
:040DC40068000020A3
:100DC8002DE9F0417D4E3279511C3171B01890F8FF
:100DD8002000432809D1901C307172693AB156FA43
:100DE80081F090F82000904701E0718911B100204E
:100DF800BDE8F08101217181714F3870632863D09B
:100E08006C283CD0742847D0732840F0D480FFF772
:100E18007FFEFFF7F1FA6B4CA0476B4D6868A0475F
:100E280055F8100CA0474CF6911000F06BF970893A
:100E3800C7289FBF0121395401307081FFF752FF45
:100E480000F0D6F9FFF764FF00F0D2F97089C728DF
:100E58009FBF0021395401307081FFF7E5F901F097
:100E680069F8FFF7E5F90446B0F57F4F05D34FF46D
:100E78007F4040EA144000F045F9204699E00220FE
:100E8800708174207870504C2468002C00F0938096
:100E9800204601F04FF8F7E74B4D01F042F80446C1
:100EA80090F8508028460068A04221D00028FAD146
:100EB80044F24E1000F026F97089C7287BD85421D7
:100EC80039540130708176E001F02BF8044600F0C7
:100ED8007DF8810804CCB2F1CD3F03D101390A0471
:100EE800F8D1002120F00300890089B2401A60E09F
:100EF800FFF7D2F901F01EF855F8105C2046FFF70D
:100F080037FB00F075F9A542454608BF4FF0FF359D
:100F1800B8F1000F18BF454671892069FF2809D923
:100F2800C7299FBF00227A540131718101F002F86C
:100F3800708904E0C72907D87854481C7081C728ED
:100F48009EBF3D5401307081A06808B1806800E000
:100F580000201C4DA847E068A8472046FFF7EEFE92
:100F6800A8472046FFF788FEA847206BA8472046D9
:100F7800FFF700FF0546B0F57F4F05D34FF47F40DC
:100F880040EA154000F0BEF8284600F0BBF82046BD
:100F9800FFF70EFB7189C72909D87854481C70815E
:100FA800C7291FBF94F852203A54881C7081FFF754
:100FB8001DFA00F0A7F870891AE700BF6800002042
:0C0FC800902400203D1F000818000020AD
:100FD400064810F81C1C8A1C00F81C2C425C0131C9
:100FE400C9B2405C40EA022080B270478800002009
:100FF40070B5424DA878092812D8DFE800F005132F
:101004001B292D3E42464F56688910B9687800283E
:1010140070D00020A8810120A87028708C2467E07B
:10102400002465E068890221002808BF0721A9700F
:10103400ED245DE06C89F02C3DBF2C720420A87077
:10104400032021BFA870F02040EA14242C724FE042
:101054000420A870AC7A4BE0A889411CA981294AD4
:10106400145C287A20442872688989B281423FD16D
:10107400002068810520A8703AE00620A8702C7A28
:1010840036E00020A8708D2432E00820A87068782B
:101094000130287268780130C4B229E00920A870B0
:1010A400287A43302872432422E0A889A9690C5C79
:1010B4000130A881697880B2884216D10520A870D1
:1010C4004FF0800080F3118800BF00BF00266E70CF
:1010D400286918B12869FFF78BFC2E61084840780D
:1010E40018B94FF0000080F31188287A2044287240
:1010F400204670BD00202870C443F9E76800002032
:081104000000002090240020EF
:10110C0010B507494A89C72A09D8040A054B9C54CB
:10111C00541C4C81C72A1EBF1855901C488110BD09
:08112C0068000020902400205F
:1011340010B5204C617905293AD8DFE801F0030B9A
:101144000F16282FED2833D10020E0704FF4807063
:10115400A0802DE08C2829D1022028E030B3092872
:1011640024D2E071A071032021E0E17807299FBF18
:101174004A1CE270214481F82000A179E2791044EC
:10118400E071481EA071000612D104200FE0E1793D
:101194000844E071000609D1052008E08D2805D136
:1011A400FFF710FE10B1608100F006F800206071B6
:0811B40010BD00BF680000201F
:1011BC0080B54FF0800080F3118800BF00BF094854
:1011CC00007830B9FFF710FF002802D4C0B202F04B
:1011DC0021FD0548407818B94FF0000080F31188C4
:0C11EC0008BD00BF6800002000000020CB
:1011F80070B50146104D6E89C6F1C7041E2C28BF74
:101208001E2430B10020844206D00A5C1AB1013095
:10121800F9E7002400E00446C72E9FBF074884551D
:1012280001366E813CB1054810FA86F0224600F07E
:1012380019FB3019688170BD6800002090240020D7
:10124800F8B542F654140DF10301C2F2000401226C
:10125800207802F0E3FC0128C0F20F829DF8030019
:10126800411E06290BD8DFE811F0070053006C0077
:10127800A600B400E400040101F069FDF8BD7F2870
:1012880000F0FB81802840F0048120780DF10301F3
:10129800012202F0C3FC0128C0F2EF8142F60C10D3
:1012A800C2F200000268002A00F0E7819DF80300FE
:1012B800002800F03081411E1269002A00F0DD810B
:1012C80091B11269002A00F0D88101290CD0126965
:1012D800002A00F0D281022906D01269002A00F003
:1012E800CC8104394B1CE7D1EFF311874FF0200173
:1012F80081F3118845F6651541B2C2F2000500294F
:1013080080F2148140F0800005F8010B01200DE106
:1013180042F65C15EFF311844FF0200181F3118838
:10132800C2F20005287848B145F665100B22C2F2D2
:101338000000014601F07FFB0020287084F311882B
:10134800F8BD42F63810C2F200000068002800F02C
:10135800AB800068002800F0A78080470A46EFF3BA
:1013680011864FF0200181F311880146802845F647
:101378006510C2F20000C0F0CA8041F0800303701B
:10138800CB09B1F5804FC0F0FC8043F08003437077
:101398008B0BB1F5001FC0F0718143F0800383709F
:1013A8004B0DB1F1805FC0F07981051D090F43F045
:1013B8008003C37074E142F63810C2F2000000687E
:1013C800002800F05A814068002800F056818047C4
:1013D800F8BD42F63010EFF311854FF0200181F38C
:1013E8001188C2F20000046845F66510802CC2F22C
:1013F8000000C0F08680E209B4F5804F44F0800117
:101408000170C0F0828042F08001A20BB4F5001F89
:101418004170C0F0B48042F08001620DB4F1805F89
:101428008170C0F0B580011D240F42F08002C270A7
:10143800B0E042F64B10EFF311844FF0200181F336
:101448001188C2F2000090F9002045F66510C2F23A
:101458000000002A014604DA42F0800201F8012B5C
:10146800012201F8012B1B2201F0E5FA84F311880F
:10147800F8BD42F60C10C2F200000468002C00F01F
:10148800FC80E068002818BF80472469002CF8D148
:10149800F8BD40B20028A8BFF8BD20780DF10301BF
:1014A800012202F0BBFBF8BD41F20400CEF20000BD
:1014B8000268EFF311844FF0200181F3118845F69B
:1014C8006510802AC2F200001DD3D309B2F5804FFF
:1014D80042F0800101701CD343F08001930BB2F5F8
:1014E800001F41704FD343F08001530DB2F1805F6C
:1014F8008170C0F0C580011D120F43F08003C370D6
:10150800C0E0014646E00146BCE0411C41E005461A
:10151800C6E0411CB5E0EFF311874FF0200181F3DD
:10152800118845F66515C2F2000500202946936822
:10153800802B01F8010BC0F0EC80084643F08006D0
:1015480000F8016BDE09B3F5804F1ED346F0800624
:101558004E709C0B8E1CB3F5001FC0F09B8044F0AE
:10156800800088705C0DC81CB3F1805FC0F0CE802D
:1015780044F08006CE701B0F04310546C9E0811C7B
:1015880007E0451C8BE0811C7BE00D463346BFE03D
:10159800C11C144642F62C120B46C2F2000203F894
:1015A800014B1268802A26D31C46D709B2F5804F12
:1015B80042F0800104F8011B16D347F08001970B15
:1015C8009E1CB2F5001F597012D347F08001570DC9
:1015D800DC1CB2F1805F997039D347F08001D97073
:1015E800120F0433214606E019463A46234602E024
:1015F80021463A46334642F624170231C2F2000722
:101608001A703C68802C26D30A4644F0800302F8FE
:10161800013BE309B4F5804F14D343F080024A70CC
:10162800A20BB4F5001F10D342F080028A70620D3D
:10163800B4F1805F0DD30B1D42F08002CA70240FF5
:10164800194608E011461C4605E0023102E0314621
:10165800CBE70331144601F8024B002201F8012CB4
:10166800182201F0E8F942F6341085F31188C2F225
:101678000000006808B18047F8BDF8BD851C0EE081
:10168800C11C1A4601F8012B0C2201F0D4F984F38D
:101698001188F8BD0546234631463AE0C51C19466F
:1016A8002B46802A03F8011B26D3194642F08007EF
:1016B80001F8017BD709B2F5804F16D347F08007B0
:1016C8005F70970B9C1CB2F5001F12D347F0800186
:1016D8009970570DD91CB2F1805F15D347F0800778
:1016E800DF70120F04330D4606E01D463A460B46DE
:1016F80002E00D463A462346A91C1A700D2201F055
:101708009AF986F31188F8BD2546EFE73546234652
:1017180001460B70A81C1168802202F003FF0146E5
:1017280045F66510C2F20000162201F084F987F32D
:041738001188F8BD5F
:10173C00002B35D129B9B0FBF2FC0CFB1202604630
:10174C007047914215D22DE9F041B2FA82F39A40DA
:10175C009940D3F1200C30FA0CFC51EA0C01984062
:10176C0000F04EF8280036FA03F200210023BDE801
:10177C00F081F0B5B1FBF2FC0CFB1211B2FA82F362
:10178C009A409940D3F1200630FA06F6314398403E
:10179C0000F036F8614628003200DA400023F0BD34
:1017AC00F3B5B3FA83FC49085FEA300013FA0CF383
:1017BC00DCF1200432FA04F423430CB41A0000F0D8
:1017CC001FF80CBC33FA0CF3DCF11F0C35FA0CF5DA
:1017DC0018BF013D03BCA5FB026705FB0377801B0B
:1017EC00B941904271EB030C05D3821A71EB0303E0
:1017FC00681C0021F0BD02000B0028000021F0BD88
:10180C00940D4FF6C2752D02B5FBF4F4D60A0136D1
:10181C0004FB04F5A5FB0656F64306EB0416550827
:10182C0032BF00277708013505FB1677A6FB074763
:10183C007F0807EBC63714001500E7FB02457F1B3A
:10184C004D1C0400E7FB014505FB1206A64284BFB4
:10185C00013DB618964224BF0135B61A704700BF39
:10186C0072B3844690EA01039B0721D1830709D008
:10187C0011F8013B00F8013B013A20D08307F7D166
:10188C0000E08446202A0AD32DE9F007B1E8F807D6
:10189C00A0E8F807203A202AF8D2BDE8F007042A7D
:1018AC0006D351F8043B40F8043B043A042AF8D21E
:1018BC002AB111F8013B00F8013B013AF9D160461D
:0418CC00704700BFA2
:1018D00000220B0011001A0084465AB3830704D07B
:1018E00000F8011B013AF9D124E0C9B241EA012113
:1018F00041EA0141202A11D3203A2DE9F0030B4699
:101900000C460D460E460F4688468946A0E8FA0367
:10191000203AFBD2BDE8F00320320BD0042A05D3D5
:1019200040F8041B043A05D0042AF9D200F8011B40
:08193000013AFBD1604670474B
:10193800002838D070B4204D50F8044C2B68011F93
:1019480003B3002600E0134699420CD91A681E46D4
:10195800002AF8D140E9012419607368F21891420D
:1019680022D070BC704740E9013486B92960002B49
:10197800F7D021448B42F4D1D3E90012224440E944
:101988000112EEE740E90134296070BC704731600C
:10199800002BE2D00A199342DFD15A681B6822440F
:1019A80040E90132D9E7704750E901121344C6E90A
:0C19B800001370BC704700BF1029002015
:1019C400072904D90023024AC0E900311060704796
:0419D40010290020B6
:1019D800EFF3108372B6034AB3FA83F35B0913601B
:0819E800704700BFE828002051
:1019F000024B1B6803B162B6704700BFE8280020A5
:101A000010B50446FFF7E8FF2046FFF795FFFFF704
:041A1000EFFF10BD17
:041A140091C9000074
:041A18009F4C0008D7
:041A1C0020000000A6
:101A2000113400080D46000831460008C53500088D
:101A3000FD470008F548000871490008954900086D
:101A4000C9340008D9470008213F0008B12C00081C
:101A5000453F0008294000086D410008B7350008DF
:101A600055460008D146000857340008F5460008DE
:0C1A70007948000825430008114A0008CE
:081A7C00B5030008F73500086E
:101A840003480449091A08B5FFF79AFF0CBC184724
:081A9400605A0020605F002091
:101A9C005048816861B9714611F0100F1CBF08B035
:101AAC0015E04D490A6822F001020A601AB00EE0F6
:101ABC00EFF309821EF0100F03D1A2F1400282EC69
:101ACC00108AA2F128024A60036882E8F84F434961
:101ADC0088478168C1B14A6892E8F84F036002F107
:101AEC0028021EF0100F01D1B2EC108A82F3098883
:101AFC0090693B49884202DB3A4A904203DB4FF043
:101B0C00000181F311887047374838490968401A39
:101B1C0080F308884FF08071C161354981617FF095
:101B2C00060E704701BC33488047204602BC8847EC
:101B3C005DF804EB304908473048C068002809D0EC
:101B4C00EFF314816A467346A0E8FE0F80EC108A0E
:101B5C002B4880472B482C490968401A20F0070075
:101B6C0080F308884FF000012848417081F31188F8
:101B7C0062B627494FF080520A60BFF34F8FBFF314
:101B8C006F8FFEE72348C068B0E8FE0F81F314881E
:101B9C00BFF36F8F95469E4690EC108A7047036892
:101BAC000CB44FF00001417081F3118818494FF0CB
:101BBC0080520A60BFF34F8FBFF36F8F0CBC036072
:101BCC00704713494FF080520A60BFF34F8FBFF339
:101BDC006F8F70470000002034EF00E01107000801
:101BEC00AB1B0008CC1B0008E0FF07201C1A0008E8
:101BFC00F3280008A50B00081F1F00080000002098
:101C0C00790B0008000008201C1A000800000020B6
:081C1C0004ED00E000000020CF
:101C24001EF0040F0CBFEFF30880EFF309800149A5
:081C340008470000554B0008B1
:101C3C00F0B400EB4003DFF8880000EBC30000F1C8
:101C4C0018063069F7687568874232D3B368DC1BB5
:101C5C00631E934214D37D19D01900BF11F8013BB8
:101C6C0005F8013B013A05D011F8013B05F8013BA1
:101C7C00013AF3D1BFF35F8FF0600120F0BC7047E5
:101C8C00C018904219D37819121B11F8013B00F8B7
:101C9C00013B013CF9D1141C05D011F8013B05F8AE
:101CAC00013B013AF9D1BFF35F8FF4600120F0BC26
:101CBC007047C01B01389042CDD20020F0BC704759
:041CCC0000260020CE
:021CD000FEE72D
:021CD200FEE72B
:021CD400FEE729
:021CD600FEE727
:021CD800FEE725
:021CDA00FEE723
:021CDC00FEE721
:021CDE00FEE71F
:021CE000FEE71D
:021CE200FEE71B
:021CE400FEE719
:021CE600FEE717
:021CE800FEE715
:021CEA00FEE713
:021CEC00FEE711
:021CEE00FEE70F
:021CF000FEE70D
:021CF200FEE70B
:021CF400FEE709
:021CF600FEE707
:021CF800FEE705
:021CFA00FEE703
:021CFC00FEE701
:021CFE00FEE7FF
:021D0000FEE7FC
:021D0200FEE7FA
:021D0400FEE7F8
:021D0600FEE7F6
:021D0800FEE7F4
:021D0A00FEE7F2
:021D0C00FEE7F0
:021D0E00FEE7EE
:021D1000FEE7EC
:021D1200FEE7EA
:021D1400FEE7E8
:021D1600FEE7E6
:021D1800FEE7E4
:021D1A00FEE7E2
:021D1C00FEE7E0
:021D1E00FEE7DE
:021D2000FEE7DC
:021D2200FEE7DA
:021D2400FEE7D8
:021D2600FEE7D6
:021D2800FEE7D4
:021D2A00FEE7D2
:021D2C00FEE7D0
:021D2E00FEE7CE
:021D3000FEE7CC
:021D3200FEE7CA
:021D3400FEE7C8
:021D3600FEE7C6
:021D3800FEE7C4
:021D3A00FEE7C2
:021D3C00FEE7C0
:021D3E00FEE7BE
:021D4000FEE7BC
:021D4200FEE7BA
:021D4400FEE7B8
:021D4600FEE7B6
:021D4800FEE7B4
:021D4A00FEE7B2
:021D4C00FEE7B0
:021D4E00FEE7AE
:021D5000FEE7AC
:021D5200FEE7AA
:021D5400FEE7A8
:021D5600FEE7A6
:021D5800FEE7A4
:021D5A00FEE7A2
:021D5C00FEE7A0
:021D5E00FEE79E
:021D6000FEE79C
:021D6200FEE79A
:021D6400FEE798
:021D6600FEE796
:021D6800FEE794
:021D6A00FEE792
:021D6C00FEE790
:021D6E00FEE78E
:021D7000FEE78C
:021D7200FEE78A
:021D7400FEE788
:021D7600FEE786
:021D7800FEE784
:021D7A00FEE782
:021D7C00FEE780
:021D7E00FEE77E
:021D8000FEE77C
:021D8200FEE77A
:021D8400FEE778
:021D8600FEE776
:021D8800FEE774
:021D8A00FEE772
:021D8C00FEE770
:021D8E00FEE76E
:021D9000FEE76C
:021D9200FEE76A
:021D9400FEE768
:021D9600FEE766
:021D9800FEE764
:021D9A00FEE762
:021D9C00FEE760
:021D9E00FEE75E
:021DA000FEE75C
:021DA200FEE75A
:021DA400FEE758
:101DA60000B583B0FEF709FF00F0B1FC00F0DBF9E7
:101DB600002001F09AFD40F2900044F69641C2F2EE
:101DC600000000904FF40050019042F2C07041F6BE
:101DD600FD53C2F20000C0F60001C0F60003642203
:101DE6004FF0020CCDF808C0FEF739FBFEF737FFBF
:061DF600002003B000BD57
:101DFC0030B583B0FEF7B2FE42F290204FF400747F
:101E0C00C2F2000044F6D041CDE9000442F26C70FD
:101E1C0041F66F63C2F20000C0F60001C0F6000389
:101E2C00642202250295FEF717FB42F2900044F65D
:101E3C00D841C2F2000041F67D63CDE9000442F2C4
:101E4C001870C0F60001C2F20000C0F60003322286
:101E5C000295FEF701FB002003B0BDE83040FEF711
:021E6C00C3BBF6
:0E1E6E00002001F04EFD3220FEF74BFBF8E79E
:0E1E7C00012001F047FDC820FEF744FBF8E707
:101E8A004BF2080042F61412C4F20200C2F2000237
:101E9A0050F8041C89074FF00001116058BF7047C1
:0A1EAA00016841F002010160704779
:061EB4000023FFF741BC12
:061EBA002046294670BD20
:0E1EC000B3FBF4F505FB143523462C467047A2
:0E1ECE00C0E910216FF002014162002170474F
:061EDC00C1682046084722
:101EE200D4E90401E26A236B01320130E26241F17A
:0A1EF2000001C4E90401D01A704792
:0A1EFC000120607184F86400704753
:0A1F0600013884F8650000067047FA
:0E1F10000268016A0A60006800B10162704751
:021F1E00FEE7DC
:0A1F2000026AA06890F85010104704
:101F2A0010B5FFF752F80446FFF74FF840EA0440AD
:021F3A0010BDD8
:101F3C0010B50446000CFFF7E3F82046FFF7E0F875
:021F4C0010BDC6
:101F4E0082B04EF6885C43F60001CEF2000CC4F26D
:101F5E0002014FF6FF70DCF80020CFF6F66042F477
:101F6E007002CCF800200A6842F001020A600022DA
:101F7E008A600B681840086043F21000C2F20040FD
:101F8E004860086820F480200860CA6001920092C0
:101F9E0041F28832086840F480300860086800F426
:101FAE0000300090019801300190009810B901980E
:101FBE009042F3D10868800354BF002001200090A6
:101FCE000098012849D1086C40F08050086447F20F
:101FDE000000C4F20000026842F480320260886899
:101FEE008860886840F400408860886840F4A0509B
:101FFE00886046F21940C0F640004860086840F01C
:10200E00807008600868800108D40868800105D4D3
:10201E000868800102D408688001F3D50620C1F853
:10202E000004886820F003008860886840F0020091
:10203E008860886800F00C0008280ED0886800F0D0
:10204E000C00082809D0886800F00C00082804D07D
:10205E00886800F00C000828EBD14FF000604CF8B7
:06206E00800C02B0704777
:102074004EF62450BFF35F8FCEF20000016821F4C6
:0A2084008031016000210167704700
:10208E0010B504460068816B490744BF816B5FEA57
:10209E00417125D4816B890744BF816B5FEA8171E1
:1020AE0034D4816BC9071CBF816B5FEAC17144D107
:1020BE00816B090746BF816B5FEA017110BD416BF1
:1020CE0021F0080141630821C163012084F8A100B9
:1020DE00002084F8A0002046BDE8104000F03EB875
:1020EE00416B21F0040141630421C163D4F8A400C3
:1020FE0040F00100C4F8A400002084F8A11084F878
:10210E00A000204600F029F82068C3E7416B21F0BB
:10211E00020141630221C163D4F8A40040F0020021
:10212E00C4F8A400042084F8A100002084F8A000C4
:10213E00204600F012F82068B3E7416B21F0010150
:10214E0041630121C163002084F8A11084F8A0002E
:0A215E00204601F0A6FA2068AAE767
:022168007047BE
:02216A007047BC
:10216C0043F63000C4F20200016841F400710160D2
:10217C0042F20040C4F20200016821F040610160AB
:10218C00016841F080610160416921F400514161B5
:10219C00016821F440610160016841F480610160D3
:0A21AC00416921F0200141617047F4
:1021B6002DE9F04184B040F25815CAF20005FFF748
:1021C60056FF0120ADF800001B206C468DF8080074
:1021D60020464FF04048CDF8048003278DF80B7059
:1021E6000026ADF80960039601F039FB40F20110B4
:1021F600ADF8000016208DF808004FF480300390EB
:102206002046CDF804808DF80B70ADF8096001F01A
:1022160026FB042001F013FB43F6300040F6004392
:10222600C4F20200C4F2020340F6CC4248F20A06A7
:102236008168CCF6004241F0010181600168CAF66E
:10224600AA2641F4FC710160196A4CF2000441F0BF
:10225600CC011962596ACCF6CC44114359620A2260
:102266001968CAF22A0211431960996811439960E4
:102276000522D968C5F21502114341F20C02C4F2D7
:102286000202D9600C215769CCF200010F4347F0D6
:10229600C0075761976947F0CC379761D3F8007448
:1022A6003743C3F80074D3F808743743C3F8087487
:1022B60044F205071368C5F2555740F6CC463B4332
:1022C600136041F22043C0F2CC06C4F202031F6839
:1022D600374347F440471F605F6827435F6040F617
:1022E600AA24D2F8F473CAF680242743C2F8F473FA
:1022F600D2F8FC732743C2F8FC7340F25554D2F867
:102306000074C5F240542743C2F80074D3F8002481
:102316003243C3F8002441F62402C4F202021768CD
:102326003943116040F62A27D3F8E013C8F20207B2
:102336003943C3F8E013D3F8E8133943C3F8E81375
:1023460040F21557D3F8EC13C4F201073943C3F82A
:10235600EC13D2F8FC1340F6A00341F44001CAF690
:10236600AA2341F44C41C2F8FC13D2F8001441F000
:10237600CC31C2F80014D2F8DC131943C2F8DC13CE
:10238600D2F8E4131943C2F8E41340F25043D2F8EA
:10239600E813C5F255531943C2F8E81342F2000197
:1023A6004AF6AA23C4F20201C0F228030A6A42F0DE
:1023B600CC320A624A6A42F44C624A620A681A439A
:1023C6000A608A681A438A6045F25553CA68C0F2A1
:1023D60014031A43CA60016841F48001016046F2A1
:1023E6001040C4F20200016821F00101016045F2CB
:1023F6008061C0F20201016020214161016841F063
:102406000101016041F6E41045F8180C46F261300E
:10241600C0F2111045F8100C112045F8080C286878
:10242600800608D52868800605D52868800602D566
:1024360028688006F3D4122045F8080C2868800620
:1024460008D52868800605D52868800602D528683C
:102456008006F3D4F32045F8080C2868800608D5D2
:102466002868800605D52868800602D52868800673
:10247600F3D446F21400C0F2040045F8080C2868AC
:10248600800608D52868800605D52868800602D506
:1024960028688006F3D455F8040C40F60641084334
:0A24A60045F8040C04B0BDE8F08115
:1024B00038B50446FEF7BEFB002872D042F6601025
:1024C000C2F20000017801292FD142F63C10C2F27D
:1024D0000000016811F8170C002862D011F8160CE2
:1024E000B8B942F650154FF0800080F3118800BF54
:1024F00000BFC2F200052978002904BF012028701E
:1025000040F20000C2F200004078002851D00029BB
:1025100055D042F64C100121C2F20000017042F683
:102520004910C2F20000047038BD4EF6085142F660
:102530003C12CEF20001C2F2000200230825096815
:1025400021F03F010968116001F8173C116801F89A
:10255000025C1225116801F8035C5225116801F82C
:10256000183C116801F8163C116801F8015C11680B
:1025700042F60412C2F20002A1F11505156042F6FE
:102580000815C2F20005A1F120022A6042F64C12A1
:10259000C2F2000213700122027011F8170C002819
:1025A0009CD1FEF7E1FAFEF705FCBDE83840FDF7E7
:1025B0002DBF4FF0000080F311880029A9D12046DB
:0A25C00000F003F80020287038BD79
:1025CA0038B542F6041142F6FC05C2F20001C2F225
:1025DA0000050C6820702968002956D08847002811
:1025EA0053D4607028688047002870D4A070286887
:1025FA00804700286DD4E0702868804700286AD494
:10260A00207128688047002867D46071286880474D
:10261A00002864D4A07128688047002861D4E0713A
:10262A002868804700285ED42072286880470028DE
:10263A005BD4607228688047002858D4A072286842
:10264A008047002855D4E07228688047002852D471
:10265A0020732868804700284FD460732868804711
:10266A0000284CD4A07328688047002849D4E07316
:10267A0028688047002846D42074286880470028A4
:10268A005ABF60741221112100E001214FF080002D
:10269A0080F3118800BF00BF42F6181242F63C10C0
:1026AA00C2F20002C2F200004FF47A7313600068AB
:1026BA0000F8161C40F20000C2F200004078002820
:1026CA0018BF38BD4FF0000080F3118838BD0221D1
:1026DA00DCE70321DAE70421D8E70521D6E706215A
:1026EA00D4E70721D2E70821D0E70921CEE70A215A
:1026FA00CCE70B21CAE70C21C8E70D21C6E70E215A
:0A270A00C4E70F21C2E71021C0E769
:102714002DE9F04F87B040F200044FF0800080F3C1
:10272400118800BF00BFC2F200044EF660754FF678
:10273400B451CEF200056078CFF6FF7101306070BD
:102744006858800312D4BFF34F8F0020BFF36F8FFC
:1027540045F8100CBFF34F8FBFF36F8F685840F4E8
:1027640000306850BFF34F8FBFF36F8F6858C003BA
:1027740061D44FF624600021CFF6FF70012343F6A5
:10278400E07829504FF62060CFF6FF70BFF34F8FEB
:102794002858C208C0F3C906C0F34E31741E03EBB7
:1027A400D000A6F1020B930700F003004FEA847AED
:1027B4004FEA8B720192F21E009201E0013928D394
:1027C40008EA4117324678B143EA070201282A6031
:1027D400224609D04AEA070202282A605A4603D050
:1027E400019A3A432A60009A032EE7D347EA827794
:1027F400013207F1404C87F0004E07F18049043A5A
:102804002F60C5F800C0C5F800E0C5F80090F6D107
:10281400D4E74FF6B451BFF34F8FCFF6FF7140F2B8
:102824000004C2F20004685840F480306850BFF3DA
:102834004F8FBFF36F8F00F0C5FF45F65C2044F661
:10284400D352C2F20000C1F262020168A1FB02127B
:102854004FF0FF3101EB92110A0E0CD14EF210022F
:102864006FF40F73CEF200025160F021E95400219D
:102874009160072111606FF40F71E0226A540068BF
:1028840002904FF47A70039000208DF8100043F604
:102894000540C0F60000059043F61140C0F6000064
:1028A400069002A8FDF730FD00F022F841F2351041
:1028B400C0F6000001F036F943F2B170C0F6000032
:1028C40001F036F943F2AD70C0F6000001F036F9BC
:1028D400607801386070607810B107B0BDE8F08F9F
:0E28E4004FF0000080F3118807B0BDE8F08FC0
:0228F200FEE7FF
:1028F40080B541F20000CEF200000168890106D4DF
:102904000168C90703D1016841F00101016045F67E
:102914005C2041F67C22C2F2000042F64313C0F66A
:102924000002C0F600030068014601F0A1FA41F676
:0E2934002020C0F60000BDE80840FDF7A9BC59
:1029420080B544F60850C0F6000000F0F9FC44F6E9
:0E295200B440C0F60000BDE8084000F0F1BC43
:102960002DE9F04142F200649846C2F200040E469E
:1029700005462778002F17463CD1A8212046FEF7B0
:10298000A7FF03202061606144F6611044F6C14155
:10299000C2F20000C0F60001A161E0614FF4805076
:1029A00020620020A06247226062E062216645F654
:1029B0004421C2F2000161661021A1665321206703
:1029C000E0666067BFF35F8F217045216170A27080
:1029D000E2702022217152216171A271E1715421B2
:1029E00021726172A072E07220736073A073E07351
:1029F000BFF35F8F022D84BF4FF0FF30BDE8F08141
:102A0000EFF311804FF0200181F31188069955B141
:102A100005EB4502002304EBC20216665766C2F8B6
:102A200068801367D36605EB450204EBC202516769
:0E2A3000BFF35F8F80F311880020BDE8F081B6
:102A3E002DE9F04F83B042F65C16C2F200063378F1
:102A4E00002B00F00E8141F2040842F6281742F6E0
:102A5E00581E93460D460446022BCEF20008C2F2D3
:102A6E000007C2F2000E40F0978042F620100122BD
:102A7E00C2F200000DF101018DF801204A1C006820
:102A8E00802824D340F080038DF80230C309B0F5BE
:102A9E00804F16D343F080038DF80330830BB0F5CF
:102AAE00001F10D343F080038DF80430430DB0F1B6
:102ABE00805F0AD30432000F43F080038DF8053097
:102ACE0005E0013202E0023200E0033218461346FE
:102ADE0003F8010B3868D8F800A0AAEB0007802F86
:102AEE0029D31846FE09B7F5804F47F0800200F84B
:102AFE00012B17D346F08002BE0BB7F5001F03F172
:102B0E00020C5A7010D346F0800098707E0DD81CBF
:102B1E00B7F1805F0CD346F08002DA703F0F0433BA
:102B2E00024608E01A4604E002463746634602E0D3
:102B3E006246374603469EF80000521A0232F146AC
:102B4E001F70FFF774F888B142F65C1642F628172C
:102B5E00C2F20006C2F20007CE463078C7F800A0D7
:102B6E0001383070C0B2012816D07AE042F65C16F9
:102B7E0042F6201AC2F20006C2F2000A42F62817E6
:102B8E00CE463078DAF80010C2F200070131CAF8EA
:102B9E000010C0B2012864D1BBF11F0F0BD842F652
:102BAE001C10C2F20000006820FA0BF0C00758D1CA
:102BBE00BBF1170F0BD9281B80280BD340F08001D7
:102BCE0004F8021DC0096070BBF1800F07D204F833
:102BDE0001BD0BE004F8010DBBF1800FF7D34BF0F4
:102BEE00800004F8020D4FEADB106070D8F8008008
:102BFE003868A8EB0000802824D3294640F08002D4
:102C0E0001F8012BC209B0F5804F14D342F08001B8
:102C1E006970810BB0F5001F10D341F08001A970CF
:102C2E00410DB0F1805F0BD32A1D41F08001E97098
:102C3E00000F154606E00D46104603E0023500E093
:102C4E00033508462870291B9EF800004A1C2146B1
:102C5E00FEF7EDFF10B1C7F8008002E030780130CA
:102C6E00307042F6541042F20061C2F20000C2F21D
:102C7E000001007800EB400001EBC000C16E006F58
:102C8E0081420BD042F64A14C2F20004207828B9D1
:102C9E0001202070FEF7D1FA0020207003B0BDE8AD
:022CAE00F08FA5
:102CB00038B50B46EFF311854FF0200181F31188F1
:102CC000024645F66510802BC2F2000020D3DC09D5
:102CD000B3F5804F43F08001017021D344F08001AF
:102CE0009C0BB3F5001F417023D344F080015C0DB1
:102CF000B3F1805F817025D3011D1B0F44F0800468
:102D0000C47001F8013BFFF79AFE85F3118838BDC6
:102D1000014601F8013BFFF792FE85F3118838BDAB
:102D2000411C234601F8013BFFF789FE85F311881A
:102D300038BD811C234601F8013BFFF780FE85F377
:102D4000118838BDC11C234601F8013BFFF777FE0F
:062D500085F3118838BD77
:102D56002DE9F84342F65C100121C2F200004FF65D
:102D6600FF780A22C0F21F08017042F65810C2F21C
:102D76000000EFF311844FF0200181F3118844F62F
:102D86008C410078C0F60001FEF755FF84F31188E8
:102D960045F66514EFF311854FF0200181F3118894
:102DA600C2F200040A2220462146FFF745FE42F6FB
:102DB600301085F31188C2F20000EFF311864FF050
:102DC600200181F311880368802B19D343F080001A
:102DD6002070D809B3F5804F14D340F0800060709E
:102DE600980B434510D940F08000A070580DB3F100
:102DF600805F0BD3211D1B0F40F08000E07007E0C1
:102E0600214605E0611C02E0A11C00E0E11C03462E
:102E160042F62C100A46C2F2000002F8013B006896
:102E2600802825D31346C709B0F5804F40F08001AE
:102E360003F8011B15D347F08001850B971C40450D
:102E4600517012D945F08001450DD31CB0F1805F59
:102E5600917038D345F08001D170000F04321946C5
:102E660006E0114638461A4602E0194628463A4612
:102E760042F624130231C2F2000310701B68802B45
:102E860026D3084643F0800200F8012BDA09B3F591
:102E9600804F13D342F080004870980B434510D9F9
:102EA60040F080008870580DB3F1805F0ED30A1D84
:102EB60040F08000C8701B0F114609E0014613461A
:102EC60006E0023103E039462846CCE703310346E3
:102ED60001F8023B002001F8010C18222046FFF7FA
:102EE600ABFD42F6341086F31188C2F2000000688A
:102EF600002818BF804742F63816C2F2000630682E
:102F060050B3006840B380470A46EFF311894FF08B
:102F1600200181F31188802847D3C309B0F5804F7B
:102F260040F08001217049D343F08001830B404576
:102F3600617047D943F08001430DB0F1805FA17005
:102F460070D3211D000F43F08003E3700B46802AE7
:102F560003F8010B6DD294E041F20400CEF20000BA
:102F66000068EFF311874FF0200181F31188802864
:102F760019D3C209B0F5804F40F0800121701BD3F0
:102F860042F08001820B4045617019D942F0800100
:102F9600420DB0F1805FA17016D3211D000F42F0E3
:102FA6008002E27012E0214610E021460B46802A9C
:102FB60003F8010B3DD264E0611C06E0611C32E0BF
:102FC600A11C02E0A11C2EE0E11C104601F8010B39
:102FD6000C222046FFF730FD87F31188306818B1C0
:102FE6004068002818BF804742F64B10EFF3118562
:102FF6004FF0200181F31188C2F20000214690F9BA
:103006000000002804DA40F0800001F8010B0120DE
:1030160001F8010B1B222046FFF70EFD85F31188F0
:10302600BDE8F883E11C18460B46802A03F8010B1D
:1030360027D31846D709B2F5804F42F0800100F831
:10304600011B15D347F08001970B9D1C4245597013
:1030560010D947F080009870570DD81CB2F1805FE8
:103066000CD347F08001D970120F0433014608E0F3
:10307600194604E001463A462B4602E029463A46FE
:10308600034602311A700D222046FFF7D5FC89F35C
:0A309600118830680028A3D1A6E7D6
:1030A0002DE9F04742F6241AEFF311884FF0200182
:1030B00081F31188C2F2000A054600684FF6FF79D5
:1030C000DAF8001045F66514421AC0F21F09802A8A
:1030D000C2F2000419D3D109B2F5804F42F080004A
:1030E000207014D341F08000910B4A45607010D9D4
:1030F00041F08000510DB2F1805FA0700BD3201D14
:10310000120F41F08001E17007E0204605E0601CED
:1031100002E0A01C00E0E01C0A46014601F8012B79
:10312000AA68802A27D30B46D709B2F5804F42F010
:10313000800003F8010B18D347F08000960B8F1C1A
:103140004A45487014D946F08000560DCB1CB2F1A8
:10315000805F887055D346F08000C870120F04312C
:1031600018460A706A6852B952E008463A464AE080
:103170001846324639460A706A68002A48D04FF02D
:10318000FF33D1184F7847B18F7847B1CF7847B127
:10319000097904330029F4D104E0013302E0023359
:1031A00000E00333C11C202B28BF2023837093B37E
:1031B000581E032803F0030013D303F03C0312F856
:1031C000047B043B01F8047B12F8037C01F8037CC8
:1031D00012F8027C01F8027C12F8017C01F8017CF3
:1031E000EDD1C0B10B461778012803F8017B01D15E
:1031F000194610E0537802284B7040F09D80023150
:1032000009E03846324619460A706A68002AB6D183
:10321000C11C0022827009222046FFF710FC28689A
:10322000DAF80010431A802B19D343F08000207085
:10323000D809B3F5804F14D340F080006070980B2C
:103240004B4510D940F08000A070580DB3F1805F5D
:103250000BD3221D1B0F40F08000E07007E02246D8
:1032600005E0621C02E0A21C00E0E21C03461046DE
:10327000E968802900F8013B28D30346CF09B1F55E
:10328000804F41F0800203F8012B15D347F08002F4
:103290008E0B871C4945427011D946F080024E0DB5
:1032A000C31CB1F1805F82700DD346F08002C27002
:1032B000090F04301A4609E00246394605E01A466D
:1032C0003146384602E03A46314618460170911CB4
:1032D0002869802823D30A4640F0800302F8013B86
:1032E000C309B0F5804F13D343F080024A70820BBC
:1032F000484510D942F080028A70420DB0F1805FDB
:103300000BD30B1D42F08002CA70000F194606E075
:103310001146184603E0023100E00331104601F87F
:10332000020B002001F8010C15222046FFF787FB55
:1033300088F31188BDE8F0879078CA1C8870114620
:0233400069E73B
:1033420070B5EFF311864FF0200181F31188024628
:10335200002845F66510C2F200000DD04FF0FF3391
:10336200D1184C788CB18C788CB1CC788CB109792D
:1033720004330029F4D10DE000210170411C0E221A
:10338200FFF75CFB86F3118870BD013302E0023364
:1033920000E00333411C802B28BF8023002B0370E5
:1033A200EDD05C1E032C03F0030413D303F0FC03E3
:1033B20012F8045B043B01F8045B12F8035C01F8A9
:1033C200035C12F8025C01F8025C12F8015C01F87D
:1033D200015CEDD1002CD2D00B461578012C03F8FC
:1033E200015B0DD05378022C4B7006D102310E22B4
:1033F200FFF724FB86F3118870BD9278CB1C8A708C
:0E34020019460E22FFF71AFB86F3118870BDE3
:1034100010B54EF60450EFF311844FF0200181F304
:103420001188CEF20000036845F665101A46C2F214
:1034300000006FF35F220146802A04D3D20943F0D3
:10344000800301F8013B01F8012B0222FFF7F7FA94
:0634500084F3118810BD99
:1034560010B5EFF311844FF0200181F31188024675
:10346600802845F66510C2F200001AD3D309B2F5DA
:10347600804F42F08001017015D343F08001930B19
:10348600B2F5001F417010D343F08001530DB2F125
:10349600805F81700BD3011D120F43F08003C37050
:1034A60007E0014605E0411C02E0811C00E0C11C6A
:1034B6001A4601F8012B1C22FFF7BEFA84F3118885
:0234C60010BD37
:1034C800F8B542F624130A46C2F20003EFF3118757
:1034D8004FF0200181F311881968411A45F66510EB
:1034E8008029C2F200001FD341F080030370CB098A
:1034F800B1F5804F1FD343F0800343708B0BB1F5B8
:10350800001F1AD343F0800383704B0DB1F1805F25
:1035180015D3041D090F43F08003C3702346802A86
:1035280003F8011B12D23AE004462346802A03F826
:10353800011B0BD233E0441C02E0841C00E0C41CD5
:1035480019462346802A03F8011B28D3194642F05E
:10355800800601F8016BD609B2F5804F16D346F004
:1035680080065E70960B9D1CB2F5001F10D346F0C6
:1035780080019970560DD91CB2F1805F0CD346F0CA
:103588008006DE70120F04330C4608E01C4604E087
:103598000C4632462B4602E02C4632460B46A11C0E
:0E35A8001A700722FFF747FA87F31188F8BD63
:0E35B60042F62411C2F200010968401A704763
:1035C40010B586B00446FDF7CDFA20460194FCF709
:1035D400D1FF0290206903902046FDF7B1FB0490CF
:1035E400A06A059001A8FFF759FDFCF70DFF06B08E
:0235F40010BD08
:1035F60070B586B0FDF7B5FA40F20006C2F20006D5
:10360600B469BCB101ADFDF7ACFA20460194FCF7F4
:10361600B0FF0290206903902046FDF790FB0490CE
:10362600A06A05902846FFF738FDFCF7ECFE2468F3
:10363600002CE8D1346D34B1D4E9010101F0E5F98B
:0E3646002468002CF8D1FCF7DEFE06B070BD43
:103654000820006800BF00BFFEF777FCFEF7A9FD55
:103664004EF68850CEF20000016851F470010160FA
:04367400FCF7C0FDA2
:1036780042F64812C2F200021278002A18BF00204F
:1036880042F65402C2F2000252F82030002B48BF22
:1036980070474FF0FF3342F8203042F61402C2F26E
:0836A800000242F820107047F7
:1036B00070B542F6C4050646C2F2000569680029E5
:1036C00014D4D5E90302484333682C6850436A692F
:1036D00000FB0240C3F8AC00586A40F00100586299
:1036E0000020FFF7C9FF4FF0FF306860002130462F
:0836F000BDE8704000F0E2B8F3
:0C36F80042F25850C2F20000FEF7C5BCC0
:1037040010B540F200044FF0800080F3118800BF30
:1037140000BFC2F2000420780130207060780130CC
:103724006070E06B08B10068804742F60010C2F296
:1037340000000068002818BF80472078012805D1C0
:10374400606818B1E06B30B1083002E0E06B10B192
:103754000430006880476078013860702078012860
:1037640004D16068002818BFFEF72FFA20780138CA
:0C37740020704FF0000080F3118810BDA1
:0437800068467047E0
:08378400C66AC16B204608472C
:08378C00C66AC16B2046084724
:10379400826806CA01B14A600023836011607047E1
:0837A400C66AC16B204608470C
:0437AC00FDF722BC47
:1037B00080B5FDF71FFC002804D4C0B200F030FA39
:0837C000002000E0012008BD1B
:1037C80043F60400C4F20200416801F00C0242F220
:1037D8000041082AC0F2F40106D0042A1DD147F698
:1037E8004001C0F27D1118E002680368520203F03C
:1037F8003F0347F64002C0F27D1258BF0A46B2FBAB
:10380800F3F102680368C2F38812C3F3014351431A
:10381800022202EB4302B1FBF2F145F65C2244F6C8
:10382800F843C2F20002C0F6000311604068C0F31A
:0C3838000310185C21FA00F010607047CB
:103844004EF6245140F00100CEF2000108670868EA
:1038540040F480300860BFF34F8FBFF36F8F704721
:1038640030B502784EF69C51CEF20001437841F80F
:10387400043CEAB143680B60037B90F80BC090F8FA
:103884000AE0457B447A42EA0372837B42EA0C6C89
:10389400C27B4CEACE4C007A4CEA854C4CEA434C51
:1038A4004CEA024C4CEA042C4CEA4000486030BD1F
:0838B40000200860486030BDEF
:1038BC0090F8A020012A4FF0020211D080F8A1202C
:1038CC000268536B43F00103536346F64002C4F2A3
:1038DC00010211600022012180F8A11080F8A020C3
:0438EC0010467047CB
:1038F00020B1012818BF7047202001E04FF400508C
:1039000042F21441C4F202010A6810430860704791
:1039100020B1012818BF7047202001E04FF400506B
:1039200042F21441C4F202010A6850400860704734
:103930002DE9F041FDF77EF970B142F66011C2F257
:1039400000010878012809D142F63C10C2F20000BB
:10395000006810F8171CE9BBBDE8F0814EF608506E
:1039600042F63C12CEF20000C2F200020023082709
:10397000006820F03F000068106000F8173C1068F5
:1039800000F8027C1227106800F8037C52271068A8
:1039900000F8183C106800F8163C106800F8017C2C
:1039A000106842F60412C2F20002A0F11507176077
:1039B00042F60817C2F20007A0F120023A6042F670
:1039C0004C12C2F20002137001220A7010F8171C88
:1039D0000029C1D042F61816C2F20006316811B1B2
:1039E0000139316053D0014611F8182D8AB342F6DF
:1039F000F005C2F200052A6822B342F60810C2F2AE
:103A00000000076808780B78E3B1C0F10804385D5E
:103A1000904742F63C18C2F20008D8F8001011F89E
:103A2000180D02280ED3E0190924A0F10807385D0B
:103A300029688847D8F80010E21F013411F8180DE2
:103A40008242F4D30020087042F63C10C2F200001B
:103A5000006810F8160C00287FF47EAF42F64C1078
:103A6000C2F20000007801284FF0000030602CD135
:103A700042F64910C2F200000078FEF7A6FD42F6B9
:103A80004C10C2F2000000210170BDE8F08142F646
:103A9000FC050024C2F2000500F8174C42F64C1158
:103AA0002868C2F200010C7030B18047002803D4AE
:103AB000286880470028FBDA42F63C10C2F200007A
:103AC000006800F8184CBDE8F08142F6EC01C2F243
:103AD0000001086800283FF43FAF4FF0800080F3FA
:103AE000118800BF00BF42F65010C2F200000278F9
:103AF000002A04BF0123037040F20000C2F200005C
:103B0000407818B94FF0000080F31188002A18BFE0
:103B1000BDE8F0810868804742F65010C2F200000C
:083B200000210170BDE8F081F5
:0C3B280042F6F001C2F200010860704794
:0C3B340042F6EC01C2F20001086070478C
:0C3B400042F6FC01C2F200010860704770
:103B4C0010B50446FDF70AF840F260010020C2F2FD
:103B5C00000101F85F0C4FF0000080F311880C801D
:103B6C00088830B1088820B1088810B1088800286E
:043B7C00F6D110BDB1
:103B800010B541F20000CEF200000068C00706D177
:103B900042F64010C2F2000001680131016040F2BB
:103BA0000004C2F20004207801302070E06B08B1FC
:103BB00000688047FCF782FDFFF7BAFE20780128F5
:103BC00005D1606818B1E06B30B1083002E0E06BFD
:103BD00010B10430006880474FF0800080F31188F6
:103BE00000BF00BF2078012804D16068002818BFFA
:103BF000FDF7EDFF2078013820704FF0000080F3D2
:043C0000118810BD5A
:0C3C04004EF21800CEF20000006870477D
:103C10004EF60450CEF20000006800F0806070475D
:043C2000FEF746BCA9
:103C24002DE9F04742F200661446C2F200068846C7
:103C340007463378002B3CD1A8213046FDF746FED9
:103C440003203061706144F6611044F6C141C2F250
:103C54000000C0F60001B161F0614FF480503062A1
:103C64000020B06247227062F062316645F644215A
:103C7400C2F2000171661021B16653213067F0660B
:103C84007067BFF35F8F317045217170B270F2704D
:103C94002022317152217171B271F171542131724A
:103CA4007172B072F07230737073B073F073BFF3EB
:103CB4005F8F07EB470006EBC007B94659F8705F02
:103CC40059F804AC554513D9B86E461B786E4119A2
:103CD400A64228BF264640463246FDF7C5FD701968
:103CE400B96EB044451AA4EB060418BF054600E0BB
:103CF4000026AAEB0500A04238BF04463CB1786E0A
:103D0400224641194046FDF7AFFD2644254430467E
:0C3D1400002E18BFC9F80050BDE8F08771
:103D20002DE9F84F42F200669846C2F2000691462D
:103D30008A4683463778002F3CD1A8213046FDF7CC
:103D4000C7FD03203061706144F6611044F6C14143
:103D5000C2F20000C0F60001B161F0614FF4805082
:103D600030620020B06247227062F062316645F630
:103D70004421C2F2000171661021B16653213067FF
:103D8000F0667067BFF35F8F317045217170B2705C
:103D9000F2702022317152217171B271F17154218E
:103DA00031727172B072F07230737073B073F073FD
:103DB000BFF35F8FEFF311824FF0200181F3118881
:103DC00006F134030021012053F8185C15B335695E
:103DD000A84224DA1D6855B3451C3769BD4214DA80
:103DE0009F6917B3851C3769BD420EDA1F6BB7B3E5
:103DF0003769C41C051D04316033BC422846E3DB2F
:103E0000681E3169884215DB2EE0284631698842F8
:103E100010DB29E00138316988420BDB24E041F0F6
:103E200001003169884205DB1EE041F00200316982
:103E3000884219DA00EB4001002306EBC101C1F80A
:103E400018B0C1F81CA0C1F820908B624B62C1F879
:103E50002C80BFF35F8F82F31188BDE8F88F41F0AB
:103E6000030031698842E5DB4FF0FF3082F31188AF
:043E7000BDE8F88F22
:103E74002DE9F84344F634588946C0F6000842F662
:103E840061111C4617460646C2F200014FF4005267
:103E9400002340460025FFF741FF42F6581145F63E
:103EA4005422C2F20001C2F20002082300950870F5
:103EB40042F65411C2F2000108704146C0B2FEF746
:103EC4004DFD42F624104FF00051C2F20000016093
:103ED40041F20400CEF2000042F62811C2F20001C1
:103EE4000068086042F63810C2F20000076042F62B
:103EF4003010C2F20000066042F62C10C2F200003C
:103F0400C0F8009042F63410C2F20000046042F699
:0C3F14005C10C2F200000570BDE8F883EC
:103F200010B5024645F66510EFF311844FF02001FD
:103F300081F31188C2F200000146FEF780FD84F390
:043F4000118810BD17
:103F4400F8B50B46EFF311874FF0200181F3118888
:103F5400844645F66510802BC2F200001FD3DE09AB
:103F6400B3F5804F43F0800101701FD346F0800108
:103F74009E0BB3F5001F41701AD346F080015E0D0D
:103F8400B3F1805F817015D3011D1B0F46F08006CD
:103F9400C6700C46802A04F8013B12D23AE001466E
:103FA4000C46802A04F8013B0BD233E0411C02E0AA
:103FB400811C00E0C11C33460C46802A04F8013BF6
:103FC40028D32346D609B2F5804F42F0800103F886
:103FD400011B16D346F08001960BA51CB2F5001FF9
:103FE400617010D346F08001560DE31CB2F1805F7E
:103FF400A1700CD346F08001E170120F043419460D
:1040040008E0214604E0194632462C4602E02946DF
:1040140032461C46023122706246FEF70EFD87F3DB
:044024001188F8BD4A
:104028002DE9F0418E46EFF311884FF0200181F31E
:104038001188844645F66510BEF1800FC2F2000073
:1040480023D3BEF5804F4FEADE144EF08001017095
:1040580022D344F08001BEF5001F4FEA9E34417020
:104068001CD344F08001BEF1805F4FEA5E5481703A
:1040780016D3011D4FEA1E7E44F08004C4700D461D
:10408800802A05F801EB12D23AE001460D46802A53
:1040980005F801EB0BD233E0411C02E0811C00E083
:1040A800C11CA6460D46802A05F801EB28D32C46EC
:1040B800D709B2F5804F42F0800104F8011B16D3EE
:1040C80047F08001970BAE1CB2F5001F697010D342
:1040D80047F08001570DEC1CB2F1805FA9700CD33A
:1040E80047F08001E970120F0435214608E029469F
:1040F80004E021463A46354602E031463A4625462E
:104108000231802B2A7024D30A4643F0800702F834
:10411800017BDF09B3F5804F14D347F080024A7062
:104128009A0BB3F5001F10D342F080028A705A0D23
:10413800B3F1805F0BD30F1D42F08002CA701B0FD2
:10414800394606E011463B4603E0023100E0033100
:104158001346624601F8013BFEF76DFC88F31188AF
:04416800BDE8F0813D
:10416C002DE9F8438E46EFF311884FF0200181F3CF
:10417C00118884464FF6FF7945F66510BEF1800F25
:10418C00C0F21F09C2F2000022D34EF08001BEF52E
:10419C00804F01704FEADE1121D341F08001CE45F2
:1041AC0041704FEA9E311CD941F08001BEF1805F15
:1041BC0081704FEA5E5116D3051D4FEA1E7E41F009
:1041CC008001C1702F46802A07F801EB12D239E02A
:1041DC0005462F46802A07F801EB0BD232E0451C2E
:1041EC0002E0851C00E0C51C8E462F46802A07F88D
:1041FC0001EB27D33C4642F0800104F8011BD109A6
:10420C00B2F5804F15D341F080017970910BBE1C33
:10421C004A4510D941F08001B970510DFC1CB2F126
:10422C00805F0CD341F08001F970120F04372546E2
:10423C0008E03D4604E025460A46374602E035468E
:10424C000A462746089C0235802B3A7025D32A460D
:10425C0043F0800102F8011BD909B3F5804F18D344
:10426C0041F080016970990B4B4514D941F08001E4
:10427C00A970590DB3F1805F15D32A1D41F080014F
:10428C00E9701B0F15462A46802C02F8013B11D20F
:10429C0039E0154608E002350B462A46802C02F818
:1042AC00013B30D306E003350B462A46802C02F83E
:1042BC00013B28D3134644F0800103F8011BE109AC
:1042CC00B4F5804F15D341F080015170A70B911CB0
:1042DC004C4511D947F080039370670DD31CB4F192
:1042EC00805F0DD347F08001D170240F04321D463E
:1042FC0009E015460C4605E01D463C460A4602E020
:10430C000D463C461A46A91C14706246FEF791FBFA
:08431C0088F31188BDE8F88365
:104324002DE9F8438E46EFF311884FF0200181F315
:10433400118884464FF6FF7945F66510BEF1800F6B
:10434400C0F21F09C2F2000022D3BEF5804F4FEA2B
:10435400DE144EF08001017021D344F08001CE457B
:104364004FEA9E3441701CD944F08001BEF1805F55
:104374004FEA5E54817016D3011D4FEA1E7E44F04D
:104384008004C4700F46802A07F801EB12D23AE089
:1043940001460F46802A07F801EB0BD233E0411C9B
:1043A40002E0811C00E0C11CA6460F46802A07F8E3
:1043B40001EB28D33C46D609B2F5804F42F0800188
:1043C40004F8011B15D346F08001950BBE1C4A4529
:1043D400797011D945F08001550DFC1CB2F1805F54
:1043E400B9700DD345F08001F970120F04372146DE
:1043F40009E03946324605E021462A46374602E0BE
:1044040031462A462746089C0231802B3A7023D332
:104414000A4643F0800702F8017BDF09B3F5804FB9
:1044240013D347F080024A709A0B4B4510D942F0DF
:1044340080028A705A0DB3F1805F0BD30F1D42F0D6
:104444008002CA701B0F394606E011463B4603E062
:10445400023100E0033113460F46802C099A07F815
:10446400013B28D33B46E609B4F5804F44F0800174
:1044740003F8011B19D346F08001A50BBE1C4C4563
:10448400797015D945F08001650DFB1CB4F1805F8E
:10449400B97015D345F08001F970240F043719461B
:1044A4000231802A3C7012D235E03946344609E0A4
:1044B40019462C4637460231802A3C702BD306E03D
:1044C40031462C461F460231802A3C7023D30B46CA
:1044D40042F0800703F8017BD709B2F5804F13D36C
:1044E40047F080034B70930B4A4510D943F0800387
:1044F4008B70530DB2F1805F0BD30F1D43F080031B
:10450400CB70120F394606E019463A4603E00231F1
:1045140000E003311A4601F8012B6246FEF78DFADA
:0845240088F31188BDE8F8835B
:10452C0000B5C9B14FF0FF3301EB030E9EF801C08B
:10453C00BCF1000F14D09EF802C0BCF1000F11D0DA
:10454C009EF803C0BCF1000F0ED09EF804C00433DB
:10455C00BCF1000FE8D108E0002100F8011B00BD00
:10456C00013302E0023300E00333934288BF134669
:10457C00FF2B09D2002B00F8013B40D05A1E03F050
:10458C00030E032A0ED222E0FF220270C21C4370DB
:10459C004FEA132C80F802C010465A1E03F0030E8B
:1045AC00032A14D323F0030C11F8042BBCF1040CD4
:1045BC0000F8042B11F8032C00F8032C11F8022C32
:1045CC0000F8022C11F8012C00F8012CECD1BEF1F2
:1045DC00000F08BF00BD84460A78BEF1010F0CF82D
:1045EC00012B04BF604600BD4A78BEF1020F427039
:1045FC0004BF023000BD8978C21C8170104600BD1A
:10460C0010B545F66510EFF311844FF0200181F3DE
:10461C001188C2F2000003220146FEF70AFA84F365
:04462C00118810BD24
:1046300010B545F66510EFF311844FF0200181F3BA
:104640001188C2F2000012220146FEF7F8F984F345
:04465000118810BD00
:1046540010B542F62412EFF311844FF0200181F3D8
:104664001188C2F200021168421A45F66510802AC8
:10467400C2F200001AD3D309B2F5804F42F0800190
:10468400017015D343F08001930BB2F5001F417004
:1046940010D343F08001530DB2F1805F81700BD3CE
:1046A400011D120F43F08003C37007E0014605E0CB
:1046B400411C02E0811C00E0C11C1A4601F8012BD8
:0C46C4001322FEF7BAF984F3118810BD30
:1046D00010B545F66510EFF311844FF0200181F31A
:1046E0001188C2F2000014220146FEF7A8F984F3F3
:0446F000118810BD60
:1046F400F8B50A46EFF311874FF0200181F31188D2
:104704000146802845F66510C2F200001FD341F02F
:1047140080030370CB09B1F5804F1FD343F08003AE
:1047240043708B0BB1F5001F1AD343F080038370E1
:104734004B0DB1F1805F15D3041D090F43F08003C5
:10474400C3702346802A03F8011B12D23AE00446C0
:104754002346802A03F8011B0BD233E0441C02E0F9
:10476400841C00E0C41C19462346802A03F8011B5C
:1047740028D3194642F0800601F8016BD609B2F538
:10478400804F16D346F080065E70960B9D1CB2F5E2
:10479400001F10D346F080019970560DD91CB2F158
:1047A400805F0CD346F08006DE70120F04330C4693
:1047B40008E01C4604E00C4632462B4602E02C4638
:1047C40032460B46A11C1A701C22FEF736F987F3F9
:0447D4001188F8BD93
:1047D80010B545F66510EFF311844FF0200181F311
:1047E8001188C2F2000011220146FEF724F984F371
:0447F800118810BD57
:1047FC0010B542F62412EFF311844FF0200181F32F
:10480C001188C2F200021168421A45F66510802A1E
:10481C00C2F200001AD3D309B2F5804F42F08001E6
:10482C00017015D343F08001930BB2F5001F41705A
:10483C0010D343F08001530DB2F1805F81700BD324
:10484C00011D120F43F08003C37007E0014605E021
:10485C00411C02E0811C00E0C11C1A4601F8012B2E
:0C486C000822FEF7E6F884F3118810BD66
:1048780010B542F62412EFF311844FF0200181F3B2
:104888001188C2F200021168421A45F66510802AA2
:10489800C2F200001AD3D309B2F5804F42F080016A
:1048A800017015D343F08001930BB2F5001F4170DE
:1048B80010D343F08001530DB2F1805F81700BD3A8
:1048C800011D120F43F08003C37007E0014605E0A5
:1048D800411C02E0811C00E0C11C1A4601F8012BB2
:0C48E8001D22FEF7A8F884F3118810BD13
:1048F40010B542F62412EFF311844FF0200181F336
:104904001188C2F200021168421A45F66510802A25
:10491400C2F200001AD3D309B2F5804F42F08001ED
:10492400017015D343F08001930BB2F5001F417061
:1049340010D343F08001530DB2F1805F81700BD32B
:10494400011D120F43F08003C37007E0014605E028
:10495400411C02E0811C00E0C11C1A4601F8012B35
:0C4964000422FEF76AF884F3118810BDED
:1049700010B545F66510EFF311844FF0200181F377
:104980001188C2F2000005220146FEF758F884F3B0
:04499000118810BDBD
:1049940010B542F62412EFF311844FF0200181F395
:1049A4001188C2F200021168421A45F66510802A85
:1049B400C2F200001AD3D309B2F5804F42F080014D
:1049C400017015D343F08001930BB2F5001F4170C1
:1049D40010D343F08001530DB2F1805F81700BD38B
:1049E400011D120F43F08003C37007E0014605E088
:1049F400411C02E0811C00E0C11C1A4601F8012B95
:0C4A04000622FEF71AF884F3118810BD9A
:104A100070B542F624130A46C2F20003EFF3118682
:104A20004FF0200181F311881968411A45F665108D
:104A30008029C2F200001CD3CC09B1F5804F41F0AF
:104A40008003037019D344F080038C0BB1F5001F71
:104A5000437017D344F080034C0DB1F1805F837035
:104A600060D3031D090F44F08004C470197072B93B
:104A70005DE00346197052B959E0431C2146197094
:104A80002AB954E0831C2146002A19704FD04FF0F8
:104A9000FF3411194D7845B18D7845B1CD7845B1C8
:104AA000097904340029F4D104E0013402E002342D
:104AB00000E00334991C802C28BF80245C7004B370
:104AC000631E032B04F0030313D304F0FC0412F859
:104AD000045B043C01F8045B12F8035C01F8035C1E
:104AE00012F8025C01F8025C12F8015C01F8015C4A
:104AF000EDD133B10C461578012B04F8015B06D1DA
:104B000021461922FDF79BFF86F3118870BD557869
:104B1000022B4D7014D102311922FDF790FF86F35C
:104B2000118870BDC31C2146002A1970AFD1991C91
:104B300000225A701922FDF782FF86F3118870BD9A
:104B40009278CB1C8A7019461922FDF778FF86F3FC
:044B5000118870BD9B
:104B54004EF62C51CEF200010A68002A00D4FEE77A
:104B64000A6842F000420A6081690231816170473B
:104B740010B540F200044FF0800080F3118800BFAC
:104B840000BFC2F200042078013020706078013048
:104B94006070E06B08B10068804742F6F800C2F22A
:104BA40000000068002818BF80472078012805D13C
:104BB400606818B1E06B30B1083002E0E06B10B10E
:104BC40004300068804760780138607020780128DC
:104BD40004D16068002818BFFCF7F7FF207801387B
:0C4BE40020704FF0000080F3118810BD1D
:104BF00010B540F200044FF0800080F3118800BF30
:104C000000BFC2F2000420780130207060780130CB
:104C10006070E06B08B10068804742F6F400C2F2B1
:104C200000000068002818BF80472078012805D1BF
:104C3000606818B1E06B30B1083002E0E06B10B191
:104C4000043000688047607801386070207801285F
:104C500004D16068002818BFFCF7B9FF207801383C
:0C4C600020704FF0000080F3118810BDA0
:0F4C6C00436F72746578204D34462F4D374600E4
:074C7B007637764C53500020
:0A4C82004F535F49646C6528290058
:0A4C8C00000000000000000000001E
:094C96004D61696E5461736B00FD
:104C9F0053454747455220656D624F532056353176
:054CAF003630317500F4
:0D4CB400492331353D5379735469636B001A
:094CC1005465726D696E616C00AE
:044CCC00C9370008DC
:084CD0004850205461736B0091
:084CD8004C50205461736B0085
:104CE00008181C20242C00040C1014181C24282C38
:084CF0003034383C40505152B1
:104CF8000000000000000000010203040607080984
:104D08004E3D656D624F53207374617274207072EA
:104D18006F6A6563742C4F3D656D624F532C443D3B
:0C4D280053544D3332463736394E4900A3
:084D340053797356696577009D
:104D3C00754605480549884205D00268043003B41D
:104D4C00904703BCF7E72847CC4C0008D04C000830
:104D5C00C54D0008000000204D290000C54D00087D
:104D6C005029002001000000C54D000854290020E6
:104D7C0001000000C54D000858290020010000006A
:104D8C00C54D00085C29002001000000C54D00083D
:104D9C0060290020FC300000D74D00085C5A002030
:104DAC00C04D000804000000851A00083D4D0008A5
:044DBC0003020008E6
:044DC0000024F400D7
:104DC400206861680834002200E042540139FCD5AF
:024DD400704726
:104DD60020686168A2680C3401E08B5C8354013A58
:044DE600FBD5704742
:040000050800365564
:00000001FF
